:020000041000EA
:1000000000B5324B212058609868022188439860DF
:10001000D860186158612E4B002199600421596104
:100020000121F02299502B49196001219960352056
:1000300000F044F80222904214D00621196600F024
:1000400034F8196E01211966002018661A6600F04E
:100050002CF8196E196E196E052000F02FF8012189
:100060000842F9D1002199601B49196000215960AB
:100070001A491B48016001219960EB211966A021F2
:10008000196600F012F800219960164914480160C1
:100090000121996001BC002800D000471248134993
:1000A000086003C880F30888084703B5996A0420EC
:1000B0000142FBD001200142F8D103BD02B5186610
:1000C0001866FFF7F2FF186E186E02BD00000240BE
:1000D000000000180000070000035F00212200005C
:1000E000F4000018222000A00001001008ED00E03C
:1000F000000000000000000000000000070B8FD58A
:10010000F80E0020F51100109B270010B11100100F
:1001100000000000000000000000000000000000DF
:100120000000000000000000000000007D10001032
:1001300000000000000000001D100010C11400109D
:10014000ED100010ED100010ED100010ED1000107B
:10015000ED100010ED100010ED100010ED1000106B
:10016000ED100010ED100010ED100010ED1000105B
:10017000ED100010ED100010ED100010ED1000104B
:10018000ED100010ED100010ED100010ED1000103B
:10019000ED100010ED100010ED100010ED1000102B
:0801A000ED100010ED1000103D
:1001A80002B4714649084900095C49008E4402BC02
:1001B8007047C04603B47146490840004900095ECB
:1001C80049008E4403BC7047002934D00123002223
:1001D80010B488422CD301242407A14204D28142BE
:1001E80002D209011B01F8E7E400A14204D28142CE
:1001F80002D249005B00F8E7884201D3401A1A434B
:100208004C08A04202D3001B5C0822438C08A04281
:1002180002D3001B9C082243CC08A04202D3001B37
:10022800DC082243002803D01B0901D00909E3E7B1
:10023800100010BC704701B5002000F00BF802BD9B
:100248000029F8D003B5FFF7C1FF0EBC4243891A55
:100258001847C0467047C0461C2101231B0498421A
:1002680001D3000C10391B0A984201D3000A08393F
:100278001B09984201D30009043902A2105C4018F6
:100288007047C0460403020201010101000000009A
:1002980000000000002B11D1002A0FD1002900D145
:1002A800002802D00021C943080007B4024802A16F
:1002B8004018029003BDC0469DFFFFFF03B4684687
:1002C80001B5029800F04CF8019B9E4602B00CBCA8
:1002D8007047C046D0400B00D1409C46203AD340DE
:1002E80018435242634693401843704791400300B5
:1002F80090409C46203A9340194352426346D3406B
:100308001943704710B5002903D1FFF7A5FF203026
:1003180002E00800FFF7A0FF10BDC046F7B5040CC7
:100328000D0091B20F0061438C460600019383B221
:10033800100C5F43444358433B0C60441B189942DC
:1003480002D9802149026418019955437143180C58
:1003580004191B04BFB24919D819091903B0F0BD13
:10036800F0B506000F0015001C0085B08B4263D85D
:1003780001D1824260D821002800FFF7C3FF39006D
:1003880000903000FFF7BEFF009B21001B1A1A00E7
:1003980028000393FFF7AAFF00900191B94245D8BE
:1003A80001D1B04242D8009B019C01200021039A50
:1003B800F61AA741FFF79AFF04000D00039B002BD4
:1003C8002BD0019B009ADB0750081843019B590862
:1003D800039B9C46B9422CD801D1B04229D832009F
:1003E8003B00121A8B41012692185B410027B61870
:1003F8005F4101235B429C446346002BEAD13000F5
:100408003900039AFFF766FF039AA4197D41060095
:100418000F00FFF76BFF241A8D410A9B002B01D0B8
:100428001E605F602000290005B0F0BD0024002593
:10043800C4E7B6197F41DCE700240025EDE700009A
:1004480010B501F0EFF8034B0100180002F018F99D
:1004580010BDC0464831001010B501F0E3F8034B59
:100468000100180002F00CF910BDC0465F31001001
:1004780010B501F0D7F8034B0100180002F000F99D
:1004880010BDC0467631001010B501F0CBF8034B13
:100498000100180002F0F4F810BDC0468D310010BC
:1004A80010B501F0BFF8034B0100180002F0E8F89E
:1004B80010BDC046A431001010B501000348836880
:1004C800DB69002B01D00122984710BD282F0010AE
:1004D80010B50B4A030011791068012214008C40F2
:1004E8002100046924680C4200D05340002B03D03B
:1004F8008368DB68984710BD83681B69FAE7C046C4
:1005080000000020F0B5914D85B0280002F0B2F847
:100518002C68002805D18E48210002F0B1F805B0FA
:10052800F0BD280002F0A6F8002801D18948F3E7B9
:10053800280002F09FF8002801D18748ECE728003E
:1005480002F098F8002801D18448E5E7280002F075
:1005580091F8002801D18248DEE78021814B4902C9
:100568001800009302F03FF8011E7F482FD1802128
:100578007E4B49021800019302F035F8011E7A48B3
:100588002DD180217A4E4902300002F02CF8011E4C
:1005980075482CD18021774F4902380002F023F8A2
:1005A800011E71482BD18021734D4902280002F0A9
:1005B8001AF8011E05D00A236B48220002F060F8E1
:1005C800ADE7009802F03CF8011E02D06B48062304
:1005D800F3E7019802F034F8011E02D067480723B8
:1005E800EBE7300002F02CF8011E02D06348082324
:1005F800E3E7380002F024F8011E02D05F4809231F
:10060800DBE7280002F01CF8051E04D00A232200AC
:1006180029005A48D2E75A485A4B4360402383601E
:10062800FFF74AFF21000622574802F029F85748E9
:10063800574B436080238360FFF73EFF210007226A
:10064800544802F01DF85448544B436080235B0023
:100658008360FFF731FF21000822514802F010F8AB
:100668005048514B436080239B008360FFF724FF71
:10067800210009224D4802F003F84D484D4B4360D4
:100688008023DB008360FFF717FF21004A480A2216
:1006980001F0F6FF494C206800280AD002F063FBFD
:1006A8002368071E2ED1390045481A6801F0E8FF73
:1006B8002760444801F0E4FF404B1B68002B00D141
:1006C8002DE7009801F0A8FF0400019801F0A4FFAD
:1006D8000500300001F0A0FF0700264801F09CFF4C
:1006E8000290254801F098FF03900120FFF7F0FEE3
:1006F800002C1FD10020FFF7EBFE00210A2001F09B
:1007080099FDDEE7002BD4D080212000890201F07A
:100718006AFF2379011E06D022682B48126801F06F
:10072800AFFF2560C5E721681A002848096801F06D
:10073800A7FFBEE7002DDDD0002FDBD0029B002BEA
:10074800D8D0039B002BD8D1D4E7C046282F00105F
:10075800BB310010E23100100932001030320010B5
:1007680057320010603000107E32001058300010F0
:10077800503000104830001040300010A7320010F0
:100788006001002049040010DD32001054010020EF
:1007980061040010F93200104801002079040010AB
:1007A800163300103C010020910400103333001070
:1007B80030010020A9040010503300100000002070
:1007C8006D330010ED330010A0330010D433001047
:1007D80010B5024B1B68984710BDC04608000020A2
:1007E800014B18607047C0460800002013B50B0085
:1007F8000021034C02000091200000F003F813BD13
:10080800D9070010F0B51C00002799B00490059195
:100818000892089B1878002801D1380027E3089B24
:1008280001330793252807D00599049B984700288A
:1008380000DA1CE30137E3E112AD18220021280099
:1008480001F0C9FF089B5B78252B14D1089AEB723D
:100858000232079212AB5A7AD10700D47FE102CC58
:100868000391002900DB7FE10421187A0143197202
:10087800039B5B4277E10022012615001000944695
:100888000392079B1B782B2B6FD068D8202B71D035
:10089800232B71D0002A05D012AE327A11004022E3
:1008A8000A433272002D04D0202212AD2E7A324330
:1008B8002A72002804D0102212A8057A2A4302724C
:1008C800039A002A04D0082212A9087A02430A725D
:1008D8006246002A04D0042212A9087A02430A7246
:1008E800442112A8027A1140442902D140218A43A6
:1008F80002728022017A52420A43027200210A25BA
:10090800079A2A2B40D1417A293B0B430132437283
:100918001578022629002E394B42594112A8437AEC
:100928004900B3430B4343722E2D45D153782A2BEC
:100938003DD00023013208361178551C08003038A4
:10094800092863D912A916930D7AA8071843022318
:100958009D432B00C00F400003430B722CE02D2B4E
:100968000CD0302B96D1320000E00396079B013360
:10097800079386E73000F9E73500F7E7B446F5E76F
:1009880032006943303959181378561C180030382A
:100998000928F5D9079B9342BAD0022512AB187AD9
:1009A8001591C90F4900A84301431972B0E7042300
:1009B800417A02320B434372117812AB6C2945D04D
:1009C80029D8682930D06A294CD04C2954D01178BC
:1009D800531C12AA0793D172537A782900D9B9E027
:1009E8006D2950D8692900D9B4E0572966D841291A
:1009F80003D04539022900D9ACE0072312A98A7A25
:100A08009A43033B13438B72012373E07343303BD8
:100A18002A005B1890E7742929D07A29D7D1782140
:100A2800587A884348390DE050787821682806D1EB
:100A3800587A88437039014359720232C7E7587AA5
:100A480088431021014359720132C0E75078782158
:100A58006C2803D1587A88435839ECE7587A884388
:100A68001821EFE77821587A88435039EAE7782146
:100A7800587A88434039E5E71889A5490840A549C7
:100A880001431981E0E7012005006E39C9B28D40A4
:100A98002900A14D294238D12425294251D10142AA
:100AA80058D00721907A88430439014391727822FB
:100AB8001340403B5A425341DBB21BE001200D007A
:100AC8000600583DEDB2AE403500E226360235420A
:100AD80093D1924E354222D1842189020D4239D0D8
:100AE8000725917AA9430143917278210B40402B45
:100AF80011D0002312AA117A8807C00F03430220DD
:100B08005B00814319431172A4E60721957A8D434E
:100B180005392943E8E7137A03431372E9E7072500
:100B2800967AAE43053D3543957278252B40402B88
:100B380002D1157A284310726329DAD15A1E9341DB
:100B4800BAE70721907A88430439014391727822E1
:100B58001340F3E7012312AA117A0B43DDE7197A50
:100B68007F290FD9DB68039312AB51070CD504CC4E
:100B78000692002A0CDA02215A7A8A435A72012311
:100B88005B4204E0012374E69207F8D51B690693DB
:100B9800002512A98B7A4A7A5B0752065B0F120F5F
:100BA800CD600D61012B30D1D01E042804D8FFF789
:100BB800F7FA0E45450E0E002368D81712934860C1
:100BC800012A09D15BB21293DB174B6006E008CC0F
:100BD8001293DB174B6002E0022A14D0043412A9E6
:100BE8000B7A03201D000540034245D0079B089A55
:100BF8000599049801F0A6FD002800DA37E13F18AE
:100C0800079B089305E61BB2DDE7022B25D1D01E12
:100C1800042804D8FFF7C4FA0D121219190008CCD9
:100C2800012A16D012934D609BB2022AD7D1129393
:100C3800D5E708CC129300231393D0E70723073492
:100C48009C4303CC12901391C9E708CC129300235C
:100C5800C0E7DBB212934D60C1E7042B08D107341B
:100C680003339C4320686168083412901391B6E7F7
:100C7800032BB4D108CCDAE7C87A7828C0D8622820
:100C88002BD8252800D1CFE55828B9D11298139927
:100C98001E230AAA9B18009314AA0CAB01F005FDA9
:100CA800069B0600002B0DDB1E2340200AAA9B187A
:100CB80012AA117A9B1B814311720699994201D994
:100CC800CB1A1593002E9BD01E230AAA9B18981B9B
:100CD8000693002D32D0013030E0633815288FD8C4
:100CE800FFF768FA5E0068008EFF8EFF8EFF8EFFAA
:100CF80068008EFF8EFF8EFF8EFFA0007A007C00BA
:100D08008EFF8EFF1E008EFF7A008EFF8EFF7A0008
:100D1800FD87FFFF02400000820400000108000078
:100D2800069B129E002B37DB1900300001F040FDB6
:100D3800331800250693002E00D161E712AB9B7A89
:100D48001022190011400B91134200D185E00230A6
:100D5800159A0A9280185B0601D5169BC018039B4A
:100D6800002B00DC94E01B1A039312AB1B7A5A0782
:100D7800D10F0891002A00DA8AE05B0600D478E0F7
:100D8800002D07D028000599049B984700286EDBA2
:100D9800089D013730236DE0300001F001FDC7E701
:100DA8000923129A0CAE32700AAA9B18002501205A
:100DB8000693C3E72B251A0702D4DB06DB0F5D0178
:100DC800129A139B002B00DB60E7002150429941E7
:100DD8002D251290139159E7002557E7129812AD67
:100DE800002834D01E230AAA9B18009314AA0CAB1F
:100DF800002101F05AFCEF236A8906001A40484B8B
:100E080013436B810025069BAB4200DB4CE7A842ED
:100E180000D1F5E61E230AAA9B18181A1E239B1850
:100E280006938BE7129B072A00D9E9E61000FFF723
:100E3800B7F90C04060C08080C0C1F70E0E61F80BC
:100E4800DEE6FA171F605A60DAE61F60D8E6354B0F
:100E58000500354E0520069370E71A07D20F801853
:100E680076E705990998049B9847002805DA19B090
:100E7800F0BD20230993039B0893089B1A00013AAD
:100E88000892002BEDDC039AD719FF1A089B0393ED
:100E9800002D06D028000599049B98470028E6DB1A
:100EA800013712AB9B7ADA0601D41B0706D530202E
:100EB8000599049B98470028D9DB01370B9B002B29
:100EC80007D012ABD87A0599049B98470028CEDB47
:100ED80001373D0006E030200599049B984700281B
:100EE800C5DB01350A9BDB195B1B002BF3DC3200E9
:100EF800069B0599049801F025FC0028B7DB4719E3
:100F08003D00039B5B19DB1B002B00DC78E62020EF
:100F18000599049B98470028A9DB0137F1E7C046EB
:100F28001078000015340010103400100149102208
:100F38000A60704710ED00E0BFF34F8F30BF62B614
:100F4800BFF36F8F7047C04643B2000605D41F2217
:100F58001A4001239340014A1360704700E100E002
:100F680030B5FF2503220B00290040B20240D20011
:100F780091405B012B40C943934000280ADBC02401
:100F88000A4A800880008018A40002590A401343C6
:100F9800035130BD0F2210400838054A80088000F0
:100FA8008018C26911401943C161F2E700E100E00D
:100FB80000ED00E030BFFDE7FF22084B10B593437A
:100FC800074A9360BFF34F8FBFF36F8F00F0EEFDBA
:100FD80001F0AAF900F0F2F800F028FE0001001074
:100FE80000ED00E0084A0949936809689866D966DF
:100FF800802307495B05486803434B6062B6BFF32B
:101008006F8F9368D86E7047BC0100202C31001098
:1010180000ED00E013498A6813481044EFF3098C87
:10102800F0C043464C4655465E466746F8C072B621
:101038000E4F0F4E4A698A603E60906E0023936699
:10104800002800D162B6084C10191030F8C898462C
:10105800A146AA46B346BC462438F0C88CF3098892
:1010680070470000BC0100203000000004ED00E0E3
:101078000000000804207146014202D0EFF3098005
:1010880001D1EFF308808169023909780229FFD07C
:1010980001B501F072FB01BD10B5203A1360029B47
:1010A80001245360039B06499360049BA143D360CA
:1010B80080235B04D361002391610265836610BDC0
:1010C8009F260010064B9860101C81F309880021A8
:1010D80062B6BFF36F8F0022002301F0DCFAC0462E
:1010E800BC01002001B5EFF305800549401AC00096
:1010F8000449014409C9984709BC9E460249084762
:1011080010000000402F001015110010044B9968C2
:101118005869884202D00349034A0A6070470000B0
:10112800BC01002004ED00E00000001070B51B4B6E
:101138000C005B6888B0DB05DB0D62B6BFF36F8F10
:101148000025160E2900FF2E09D1F33E1640082E61
:1011580005D001000135120701D521000025002422
:10116800032B06D18B69023B1A880D4B9A4200D19A
:101178000C682022684601F025FB079B002D0AD049
:10118800DA0502D1074A134307936946200001F0A4
:10119800F0FA08B070BD5B0A5B02F5E700ED00E00D
:1011A80002DF0000FF010000EFF30880EFF3098180
:1011B80001B57246FFF7BAFF01BDC046F0B5C024BD
:1011C80000220326FF25A40010002F003040C00095
:1011D8008740054993089B005B1819590132B943A8
:1011E80019511A2AF0D1F0BD00E100E072B60748A3
:1011F8000749401880F30988EFF314800221084357
:1012080080F31488BFF36F8FFFF7D6FEF801002034
:101218000008000010B50A4B9B6883420DD1EFF31C
:101228000583002B09D08022064B520559680A43D2
:101238005A605A6A04490A405A6201F019F810BD06
:10124800BC01002000ED00E0FF7FFFFF014B1860AC
:101258007047C0460C0000200E4B0F4A70B51A604C
:101268000E4D0F4B0F4C2B601900A2689143FBD118
:1012780000F05EFA0C4B2B60A368DB018033FBD1D6
:10128800EFF3108372B6002B02D162B6BFF36F8FF3
:10129800002070BD00E00040BFCDFFFF00F000401F
:1012A800FE3F3C0000C00040FFFFFF0110B50848AA
:1012B80001F059FD002808D0064C2000FFF7C6FFB2
:1012C8002000FFF78DFA002010BD13204042FBE7F5
:1012D800102F0010E112001070B50400074D0A2805
:1012E80004D1AB680D2128005B689847AB682800DB
:1012F8005B68E1B29847200070BDC046102F00100F
:10130800F7B50600002403690193E308144A08337B
:101318009B009B58072222409200D3400F22134281
:1013280003D101341E2CF0D1F7BD0F21200000F0AD
:1013380045FB019B59680029F3D00127A7400D6898
:101348000029EED08B681A003A403B4202D03000A8
:101358004B6898472B1E00D02B6829001D00EFE72B
:1013680000410140436803495A68936B0B409363FB
:101378007047C0463FF8FFFF10B5032B23D8012A5A
:1013880002D0032A1FD1013A02291CD80468013A65
:101398000E485B01D200415C1A43200000232C3028
:1013A800994205D0023301391A434B4259418B0007
:1013B8001A436E23E16A4A401A4080235B010343C3
:1013C80000201A6010BD16204042FBE7423400108E
:1013D800F0B5456885B02B68040006690021A86847
:1013E80003AA6F68019301F009FB002823DB039B24
:1013F80000221979186801F014FB00281BDB3168FA
:10140800019800F045FB002817D00D4B3060736041
:101418000122032300216068FFF7AEFF3A00C023D2
:101428002C329B011343002610221A603E602000D4
:101438006B699847300005B0F0BD16204042FAE7C6
:101448000001030030B50A4B0A4A986819680A4D2A
:101458009C68C90301D4A04204D2116828680918FD
:1014680011601B682B681068C018001B30BDC0468F
:1014780010E000E084010020900100200020094ACB
:10148800136A1B021B0A1362074B084A1A60084BAF
:101498001860084B5A600722986019680A431A6056
:1014A8007047C04600ED00E090010020D3300000F6
:1014B8008401002010E000E070B5FFF7C3FF0B4B7C
:1014C8000B4A186811680B4C4018106000222568F8
:1014D8001A600949401BFEF777FE074B43435B1927
:1014E800236000F0F3FFFFF711FE70BD84010020B8
:1014F8008C01002088010020D4300000F0B5324D66
:10150800324F85B0002954D0431C08D101222B68E2
:1015180093432B60FF231B063B6005B0F0BD3B687F
:1015280001930026012804DD294B1E00984200DCA7
:10153800461EEFF3108372B60393FFF783FF002272
:10154800AB680293234B1C68234B04191A60234B86
:101558001B680093E01A904231DB214B214A5E431D
:10156800801919008018FEF72FFE1D4B5843009B69
:101578001B1B18188023DB00984223D91A4B98426A
:1015880020D8002338600138A9686860AB60029BE6
:1015980002985B1A1A19884202D2019A9B181A19E2
:1015A8000C4B1A60039B002BB7D162B6BFF36F8F49
:1015B800B3E73B680193431CB3D10548B8E78020E3
:1015C800C000DEE71800DCE710E000E09001002032
:1015D8003D0500008C0100208401002088010020C6
:1015E800D4300000D330000084C6FF0010B5EFF3FC
:1015F800108472B6FFF726FF074B084A1B6812686B
:101608009B1A1818002C02D162B6BFF36F8F0449D9
:10161800FEF7DAFD10BDC0468C01002088010020CD
:10162800D430000010B5EFF3108472B6FFF70AFF4C
:10163800044B1B68C018002C02D162B6BFF36F8F31
:1016480010BDC0468C010020F0B585B001920A9A01
:1016580005000F0000209A4263D80C241A0E1B02C2
:10166800039202930A9A030003990298FEF712FE66
:101678006C432D4B0600E4186368834200D2606017
:101688002B1FDBB20093C023009A9B012343012A3E
:101698001BD8012F19D103221A60A3683B42FCD042
:1016A800019A236852015A40E0231A4080235B01C3
:1016B80023431A60032122687A400A401A600123F2
:1016C800BB40A2681342FCD01AE0802212011A60C3
:1016D800164BAA00D158002905D05869FEF774FDA9
:1016E80001300138FDD1019A236852015A40E023A4
:1016F8001A4080235B0123431A60009A012AD9D932
:10170800802380229B01234312011A60029866609D
:10171800320000230399FEF7BDFD044CAD00605173
:10172800012005B0F0BDC0460080004094010020B3
:1017380073B50C2000F0DEF800F0E4F800280AD0B9
:1017480000232C4A2C489900013350500A2BFAD117
:101758002A4B536273BD2A4DA86700F0B7F80122DF
:10176800284B1A606B6C012BFCD10322264B1A60A4
:10177800AC6B012CFCD1022505262100009506231F
:10178800224A234800F054F833002100214A224815
:10179800009600F04DF8214B2900214D00930022BE
:1017A8000420FFF751FF2B00210000223000009594
:1017B800FFF74AFF0022104C110023000094072075
:1017C800FFF742FF00222300110000940820FFF7D2
:1017D8003BFF0022094B1100009309202300FFF76B
:1017E80033FF00222B00110000950620FFF72CFF85
:1017F800B0E7C04694010020006CDC021BB7000073
:10180800008000403CB0004030B00040002F6859D4
:1018180000800240008C864700C00240001BB700D1
:1018280040597307014B8000C0587047940100204D
:10183800F8B504000C2017001E000D00FEF7C4FCCC
:101848001D4941433800FEF7BFFC069A33041203D2
:1018580013432268002A0FDA3F2122680A40AA426D
:101868000AD1A2681205120D824205D1EE21E26862
:10187800C9020A409A421BD0104A944219D08022C9
:1018880052010F490F4E0A600F490A601700B168EC
:101898008F43FBD1C022211D92010A4321212560DB
:1018A800A060116021680029FCDAE3600823136056
:1018B800F8BD80229201E4E740420F0000C00240D8
:1018C80000E0004000C0004000F00040AA22064BA3
:1018D80012011A602F220549DA60054A11605A6818
:1018E800002AFCDA7047C0460040024000B0FA0007
:1018F800006002408023024A9B000343D362704782
:1019080000800540024B18688007C00F7047C0462A
:1019180000C00640084B8200D218402310B5146856
:10192800C0006340C0242340802464012243136024
:10193800024BC018416010BD04C001400040014086
:10194800074B8000C0180368C90092000A435A4038
:101958000C231A4080235B0103431A607047C0467A
:1019680004C00140054B8000C018022280230029D2
:1019780000D1C0239B0103431A60704704C0014093
:10198800054B8000C0180368594001231940802383
:101998005B0103431960704704C00140064B800097
:1019A800C0180368090159403023194080235B019E
:1019B800034319607047C04604C001400722C308AA
:1019C800104080008140024A3C339B009950704788
:1019D80000400140F8B5D0231B061C68050063428F
:1019E8005C412F2364429C430A4B0F00E418160005
:1019F800FFF7E4FF07232B40ED089B00AD009F4055
:101A080064198023002E00D1C0239B0123431F604B
:101A1800F8BDC04630410140054B8000C018402247
:101A28008023002900D1C0239B0103431A6070471B
:101A380004C0014070B5060006200C00FFF7F2FE56
:101A48002100C000FEF7C0FB0124C50907D00E4BDA
:101A58009D4215D87F23184000192C004508802383
:101A6800002274629B01B5622C3633431A6006204B
:101A7800FFF7D8FEA10149198000FEF7A5FB70BD4C
:101A88000025024CEBE7C046FEFF0000FFFF000008
:101A980070B5040006200D00FFF7C4FE00282ED004
:101AA800194B9C422CD08023DB03184A1849136039
:101AB800184A136018008A689043FBD1164B174ADE
:101AC800E31859424B4180215B004900995220009C
:101AD8002900FFF7AFFF6023E26A210053406E221E
:101AE800134080222C3152010A4313600C4B102200
:101AF800236380239B010B431A600323A36470BDF7
:101B080080231B04D1E7C0460080034000E000406A
:101B180000C0004000F000400080FCBFEC01002045
:101B280001030000F7B50127124E830001309C59CC
:101B380083000193019BF358A34200D8F7BD656861
:101B48002368002D13D0002B0BD0280098470028BD
:101B580007D0C2178018EB685040FF2800DDFF202F
:101B68001870EA6853783B4353700834E2E79847A3
:101B7800FBE7C0463031001010B50124094B0320A3
:101B88001C70FFF7CFFF00F025FD0420FFF7CAFF08
:101B980000F0CEF8FEF7B6FC034A137BA343137399
:101BA80010BDC046F0010020A000002010B5034A77
:101BB80003480021121A01F000F910BDF4010020B9
:101BC8003000002070B5702601250400464301024C
:101BD800114880220918002086B004950E35039517
:101BE800053565430D4B0590029001900C48F61899
:101BF8002D180C4B30000095520000F06FF80422AD
:101C0800737B2C74934373730134074BE402E41819
:101C1800EE606C6006B070BDF8090020300000204E
:101C2800BC010020D32D0010F8010020F0B50020E1
:101C3800A3B0FFF777FF214B83F308882049214B96
:101C48000A6A00251A40E0231B0413430B6200F0C4
:101C5800A6FDFFF76BF902221B4E06ABFF329A81F5
:101C6800B3601F9501F07EF80120FFF75BFF0220AB
:101C7800FFF758FF00F052FA144C154B746180229C
:101C880005930123134E14490493D2003300200016
:101C9800039502950195009500F020F804220700AD
:101CA800637B20009343637301F0A9F82800FFF7D2
:101CB80089FF320039002000FFF704FAF8090020F4
:101CC80000ED00E0FFFF00FFBC010020A0000020A5
:101CD80053340010811B0010F80A00207FB504005F
:101CE8005830A065E0650C980026207304206073C6
:101CF8000B980732A073072082438D180A9AA660B2
:101D0800E673A661E6610292099A20000192089A98
:101D180000922A00FFF7C0F9044B66659B68B3423E
:101D280000D05B6E2800636604B070BDBC01002063
:101D380070B5204C86B026001F4DAC4208D300F089
:101D4800C7F93400AC4219D300F0D2F906B070BD1F
:101D5800A36A0593236A0493E3690393A36902932F
:101D68006369019323690093E368A2686168206846
:101D7800FFF7B4FF23685C652C34DDE7636A5A1CFF
:101D88000FD0D843C01718400A220023C117FEF706
:101D9800C5FA26680B000200014304D1300000F0A8
:101DA80051F92C34CEE730000449183000F020FBFC
:101DB800F7E7C04610300010103000105D2E0010FC
:101DC800C289030000207F2A11D80A4A1068002817
:101DD8000DD00E21084A595612680020914206DBA0
:101DE8005A7BD20603D10548181A431E984101238D
:101DF80018407047E4010020E00100203000002076
:101E08000121044B044AC01A044BC0104343D15467
:101E18007047C04610010020F1010020ABAAAAAA11
:101E280070B518240C4B05001E7C0C4B7443E41849
:101E3800200001F02AF80022094B28009A55FFF7E4
:101E4800BFFF002807D0074B20001A680649013A4F
:101E5800D31700F0CDFA70BDBC010020100100209E
:101E6800F1010020E4010020091E001070B50E4D9C
:101E78000E4BAC699C4201D0002C00D1EC68AB68D9
:101E8800002808D15A7BD20605D1A269002A02D1BE
:101E9800DA897F2A05D89C4202D02000FFF7C0FFCC
:101EA80023006B6170BDC046BC010020D401002036
:101EB8000D2270B582560400437B002A04DA7F2283
:101EC8001340437300F088FF8023627B5B42134317
:101ED800134A637393691348834200D10023D1697D
:101EE800002B04D1206061600C60D4610CE00E25E9
:101EF8000E2665579E57B5420DD0AE420BDD596888
:101F0800236061600C605C609068001B434258412C
:101F1800FFF7ACFF70BD9942E4D01B68E0E7C0460C
:101F2800BC010020D40100200D2370B5C356417BAD
:101F3800002B26DBCB0624D18369002B21D18022FC
:101F480052420A434273114A114C9169A14200D08E
:101F58000B00D169002B04D1046041600860D06196
:101F68000CE00E250E2645579E57B5420AD0AE42C4
:101F780008DD5A6803604260106058600020FFF76F
:101F880075FF70BD8B42E7D01B68E3E7BC010020FA
:101F9800D40100200D2210B582560400437B002A8C
:101FA80004DA7F221340437300F016FF034B98684E
:101FB800001B43425841FFF759FF10BDBC010020E8
:101FC80070B5EFF3108572B6104A114B9468186813
:101FD800A04207D1FFF724FF002D02D162B6BFF35C
:101FE8006F8F70BD00211960127C0A4B9B5C8B427D
:101FF800F2D02000FFF7E4FE0028EDD0637BDB067B
:1020080002D12000FFF754FF2000E3E7BC010020C5
:10201800DC010020F101002010B500290AD1EFF3FE
:102028000580002807D1064B9A685B699A4202D05E
:10203800FEF7D8FF10BD62B6BFF36F8FFAE7C04650
:10204800BC01002010B5EFF3108472B60422437B64
:10205800134205D1002C02D162B6BFF36F8F10BDB9
:1020680093434373FFF760FF21000248FFF7D4FF53
:10207800F5E7C046F201002070B50400183000F002
:1020880004FFEFF3108672B60D22A256637B002A76
:1020980005DA7F2213402000637300F09DFE1023B1
:1020A8000A4D627BA8681343001B6373434258417F
:1020B800FFF7DCFE002E02D162B6BFF36F8FAB686C
:1020C800A34201D100F0DAFE70BDC046BC01002079
:1020D800EFF3108172B6054B9A68D37B013BD3733B
:1020E800002902D162B6BFF36F8F7047BC01002090
:1020F80010B5EFF3108472B6074B00209A68D37BB3
:102108000133D373FFF7B2FE002C02D162B6BFF3DE
:102118006F8F00F0B3FE10BDBC010020024B034AD4
:102128009A61DA617047C046BC010020D4010020E2
:10213800F8B5EFF3108572B67F22194CA068437B7F
:102148001340437300F048FE8022A3685242597B33
:1021580014480A435A73A269824200D10022E169F5
:10216800002A04D1186059600B60E3610CE00E2668
:102178000E279E57D757BE420DD0B7420BDD516888
:102188001A6059600B6053600120FFF76FFE28004A
:10219800FEF728FFF8BD8A42E4D01268E0E7C0469F
:1021A800BC010020D40100200300F7B50B43040054
:1021B8000D00002B03D1FFF7BBFF0020FEBD4B1C19
:1021C8002EDB4B1C01D1831C2AD300F071FE27188B
:1021D800EFF3108372B6144E0193B068134B186076
:1021E800FFF7D8FEB06822002B001149183000F024
:1021F800FFF81023B2680198517B0B435373FEF725
:10220800F1FE00F055FE00233A0004001D00121BE9
:10221800AB41AB4202DCD0D1AA42CED01000CDE710
:1022280002277F423F1BD3E7BC010020DC010020CE
:102238005D2E001010B50B000C00421C07D10133B5
:1022480005D1074B9868FFF717FF200010BD210044
:10225800FFF7AAFF0A220023C117FEF71BF8F5E7CC
:10226800BC010020014B98687047C046BC010020A3
:1022780070B50400EFF3108672B6037BDB0708D550
:10228800002E02D162B6BFF36F8F042062B602DF60
:1022980070BD0823427B1A4205D0002EF8D162B6E1
:1022A800BFF36F8FF4E72021100088430100194322
:1022B80048B2002820DB6173A368002B02D02000FD
:1022C80000F092FD2000183000F0DFFD2300A56D1E
:1022D80058339D4201D0002D16D10120FFF7C6FDCD
:1022E800104B9B68A342D8D1EFF30583002BD4D1C0
:1022F8003000FEF777FED0E75F210A401343200045
:10230800637300F069FDD7E7280000F06DFD280031
:10231800183000F0BAFD00232800EB66FFF704FE32
:10232800D4E7C046BC01002010B50648064A074954
:10233800121A00F046FD064A0649074800F041FD1A
:1023480010BDC046000000202E000020A034001060
:1023580000000000A034001000000020002010B58C
:10236800034B1B68834201D1FFF740F910BDC046FB
:10237800E801002070B50E4B1E689E4203D1FFF79E
:10238800EDFF0C4870BDFFF7E9FF002EF9D0326968
:1023980073690400C517121BAB41002BF1DC03D194
:1023A800802109068A42ECD2D843C0171040E9E7D9
:1023B80020000020FFFFFF7F30B500280ED00B4B18
:1023C8005B6898420AD00168002907D00A694B69FE
:1023D8000469456912196B410A614B6103684268D7
:1023E80013605A6000230360436030BD2000002062
:1023F800F7B5040016001F00531C01D17B1C57D0F1
:10240800A160EFF3108372B60193002F23DA7B1CCF
:1024180001D1B31C1FD82B4B1868596802225242AD
:10242800D317121A8B41921BBB41002B04DC01D13C
:10243800002A01D101220023234F226163613D68F4
:10244800BD4200D100257E68002D0FD1276066604F
:1024580034607C601CE0FFF781FF012200239219A1
:102468007B410600C71792197B41E5E7286969692E
:1024780022696369994202DC1BD1904219D9801AFA
:1024880099416B6828616961636025601C606C60B4
:102498003B68BB4206D09C4204D1FFF76BFF00218A
:1024A800FFF72CF8019B002B02D162B6BFF36F8FA8
:1024B800F7BD121A8B4122616361B542C6D02D68FF
:1024C800C2E7C0462801002020000020F0B585B0F2
:1024D800EFF3108372B60293304B1860304B1C68D0
:1024E8009C4200D100242F4B2C4D03931868596847
:1024F8002B689C46002C39D062692669DB179A4202
:1025080002DC0AD1664508D91F002269636966465C
:10251800921BBB412261636128E0F3170096019387
:10252800009A019B80185941002300221D4F226107
:102538006361386079602000FFF73EFF029B002B43
:1025480002D162B6BFF36F8F2000A3689847EFF3FC
:10255800108372B60293114B1A68921B1A60104BC3
:1025680094461C689C42BED1386879686246D31785
:1025780012184B41002403992C600A604B60FFF746
:10258800F9FE2100FEF7BAFF029BA34202D162B610
:10259800BFF36F8FFFF714FD05B0F0BDE801002011
:1025A800200000202801002010B5EFF3108472B637
:1025B800FFF7D4FE02000649C31708684968801867
:1025C8005941002C02D162B6BFF36F8F10BDC046CF
:1025D8002801002010B5024800F052F810BDC0468E
:1025E8005B3400107047F8B503000C00DA88006807
:1025F8001979224301273E0083688E409C4603696F
:102608001D682C00B4433A4201D034002C431C60AE
:1026180063461B689847F8BD030037B500681C7906
:102628000569836801A95B689847002807D10130CC
:10263800A040019B2A6853401840431E98413EBD64
:10264800030010B50068197901248C400369826879
:102658001B6823405C1EA341B8245B425B0EE40464
:102668005B061B19C024E40423409469A022520489
:10267800A04710BD10B500F076FB10BD00207047D4
:102688000FB407B504A901C90191FEF7AFF803B06B
:1026980008BC04B0184710B50400080011001A005F
:1026A800A047FFF7DFFDFEF7B5FDF0B585B0019057
:1026B8000393D37815001A00413A0F0008240292B8
:1026C8006F2B0AD004D82419582B06D0063C04E0F6
:1026D800082210249343702BF8D10A9E220000236D
:1026E80039000198FDF7D6FD13008C46D2B2092BAC
:1026F8001AD83032D3B2013E33700023BB4202D124
:10270800019B9C4202D8039B9E420AD82B789B06C9
:1027180004D5082C10D1AB782343AB70300005B03A
:10272800F0BD67460190D9E7130002995733DBB231
:102738001929E0D83732DDE7102CEFD1AB781C43EC
:10274800AC70EBE7F7B5070015001E001400019107
:10275800A64206D8002E01D0601B08E02378002B83
:10276800FAD020780199B84701340028F0DAFEBD84
:10277800704710B500F00BFB10BD10B501000068E4
:1027880000F005FB10BD10B500210120FFF7F1FF97
:1027980010BD10B5FEF70EFCFEF7B8FC10BD704773
:1027A800030000201A5C002A00D170470130F9E7C5
:1027B800030000201A5C002A01D0884200D170472B
:1027C8000130F7E7002310B59A4200D110BDCC5C68
:1027D800C4540133F8E70300C9B28218934200D108
:1027E800704719700133F9E7012040427047D02340
:1027F8001B065B6800200B6070470A0010B5036970
:102808001000196988430100D020000641611C6945
:10281800596921401140816219695B6911409943E6
:102828004162002010BD0A0010B503691000196943
:1028380088430100D020000681611C695969214044
:102848001140416219695B69114099438162002016
:1028580010BD036908001A699043D0221206D0619E
:102868001B6900200B40D362704710B50369586894
:10287800002821D088421BD108689C685860A14272
:1028880000D1986000200860824206D05A680A6029
:102898009A685960002A00D19960002010E08142AE
:1028A80006D10868206098688142EBD19C60E9E70E
:1028B800040000680028F2D1002AE7D1162040421F
:1028C80010BD10B543685B689847002010BDF7B588
:1028D8000D00076916000F21002228001C00FFF7D1
:1028E80079F801221300AB40019380239B039E4299
:1028F80005D1FB68019A93430020FB60FEBD80234D
:10290800610EDB0423401140F6010DD58900002B30
:1029180001D00823194301222800FFF75BF8FB6860
:10292800019A1A431300E7E7002BF4D00223F1E7DA
:1029380010B5002203210D20FEF712FB0D20FEF733
:1029480003FB10BD30B50469D02000060369256972
:1029580053400B40AB430D00C361036A53409D4392
:102968002B0025691D4063692B40C362036A5A40E6
:102978000A402169636911409943C162002030BD52
:10298800F8B515000F0001245209290906692140EC
:1029980038002240FEF7D4FF05213800FEF7BAFFC1
:1029A800AB0325D5BC403269A90715D5224332614E
:1029B800D02271691206680707D5214371619461B5
:1029C8006D0307D554620020F8BDA14371615461BD
:1029D8002D03F7D49462F6E7A2433261D02212069F
:1029E800290301D55461EDE76D03EBD59461E9E75F
:1029F800ED03E8D5D022BC401206EBE730B50368FA
:102A0800136005790468ED006419A34202D302201B
:102A1800404230BD5C798C4201D00833F0E7002099
:102A2800F7E7F8B5040001268D004519AC4201D13D
:102A38000020F8BD2078271DC006C00E00F087F9D9
:102A480021882078C905C006090FC00EFEF762FF6D
:102A580061782078CA09C0064906C90FC00EFEF77A
:102A68006FFF61782078C906C006090FC00EFEF70F
:102A780095FF617820784909C0063140C00EFEF7FD
:102A88007FFFA17820788907C006C90FC00EFEF71E
:102A980069FFA1782078C907C006C90FC00EFEF7E4
:102AA800BBFF3C00C2E7002070478368007902281A
:102AB80009D004280BD001280CD1C9180B78DBB237
:102AC800002013607047C9180B889BB2F8E7C91833
:102AD8000B68F5E716204042F4E70300F0B585B02F
:102AE8005F6801923E790800F100FDF7A9FB03AA8F
:102AF80004000D0081B23800FFF7D7FF002817D176
:102B080001220399EDB2AA400B00944693437D79C4
:102B1800019A954201D063460B43BA68022E09D048
:102B2800042E0CD0012E0ED1A4B2DBB2A41823704F
:102B380005B0F0BDA4B29BB2A4182380F8E7A4B2F4
:102B4800A4182360F4E716204042F1E710B50122EB
:102B5800FFF7C3FF10BD10B50022FFF7BEFF10BD81
:102B680070B504000D00FFF7F1FF002803D129001C
:102B78002000FFF7F0FF70BD030073B55E68080022
:102B880031791400C900FDF75BFB01AA0D0081B281
:102B98003000FFF78AFF002809D1019BEDB2EB4016
:102BA80001229A43737959424B415340237076BDB1
:102BB80010B5436810225B689C69200010401442DD
:102BC80002D11B680B7010BD01204042FBE7202298
:102BD80043685B6898691042FCD119607047436884
:102BE8005B681B681805C00F5A0501D508221043F9
:102BF8009A0501D502221043DB0501D504231843A9
:102C0800704730B52025436800205B689C692C42DA
:102C180002D1141A002C00DC30BD0C5C01301C60A1
:102C2800F4E730B51025436800205B689C692C42A6
:102C380002D1141A002C00DC30BD1C680C54013081
:102C4800F4E7202243685B68996B0A4307219A637B
:102C58005A6B8A435A637047202143685A68936BBA
:102C68008B439363704743685B68186C8006C00F9A
:102C78007047102243685B68996B0A4338219A634E
:102C88005A6B8A435A637047102143685A68936B9A
:102C98008B439363704743685B6898690006C00F6D
:102CA800704743685B68186CC006C00F704743687C
:102CB8005A68F823916BDB000B439363704710B598
:102CC8000400FFF7EEFF03000120002B04D12000D1
:102CD800FFF7C9FF431E984110BD012070470369E3
:102CE8009960DA60704710B502699368002B01D0CB
:102CF800D168984710BD030010B50800082219696B
:102D0800FFF760FD002010BD10B50022032114203C
:102D1800FEF726F91420FEF717F910BD70B54368C1
:102D280006000C00056909681868FEF783FE00288C
:102D380002D11620404270BDA3796279217970686A
:102D4800FEF71AFB0028F4D106CC06C5F3E70123E9
:102D5800D022834010B51206936205219361FEF7D5
:102D6800D9FD10BD7047002809D00123C268002092
:102D78005178194202D010784242504118407047A9
:102D8800EFF3108372B6FEE710B5FFF7F9FFF8B559
:102D980005000E00EFF3108772B6FFF763FA3100F3
:102DA80004002800FFF7F0FF002F02D162B6BFF33E
:102DB8006F8F2000FEF72EFAF8BD10B5FFF70BFD58
:102DC80010BD10B5FFF7FEFC10BD10B5EFF3108372
:102DD80072B6FEF7B1F8F9E70368426813605A6003
:102DE800002303604360704710B50400FFF7F4FF49
:102DF8000222637B934363730023A36010BD10B565
:102E0800EFF3108472B6FFF78FF8002C02D162B688
:102E1800BFF36F8F10BD70B504000E00EFF310857F
:102E280072B62823427B1A420ED18368002B01D048
:102E3800FFF7DAFF0422637B002E00D014229343AD
:102E480020006373FFF770F8002D02D162B6BFF35C
:102E58006F8F70BD10B501211838FFF7DCFF10BD6A
:102E680010B5002805D1EFF30580002802D1FEF740
:102E7800B9F810BD62B6BFF36F8FFAE710B5EFF37C
:102E8800108072B6FFF7ECFF10BD10B5EFF3108499
:102E980072B60368002B08D0FFF78EFA0020002CCA
:102EA80002D162B6BFF36F8F10BD16204042F6E71D
:082EB80010B5FFF779FB10BD16
:082EC000A8D4FF7F010000000F
:102EC8006112001000000000AF2A0010F82E001058
:102ED800D9130010102F0010B512001000000000C8
:102EE8008514001000000000CB280010282F0010C7
:102EF8002834001094300010A03000102A00002060
:102F0800000000001E30001045340010B0300010E2
:102F1800E03000102C0000201000002016300010B7
:102F28001A3400106830001070300010280000209B
:082F38006C01002010300010B4
:102F4000000000008F270010000000008F270010F5
:102F5000000000008F270010000000008F270010E5
:102F6000000000008F270010000000008F270010D5
:102F7000000000008F270010000000008F270010C5
:102F8000000000008F270010000000008F270010B5
:102F9000000000008F270010000000008F270010A5
:102FA000000000008F270010282F001009130010C8
:102FB000000000008F270010000000008F27001085
:102FC000000000008F270010000000008F27001075
:102FD000000000008F270010000000008F27001065
:102FE000102F0010EF2C0010000000008F270010A1
:102FF000000000008F270010000000008F27001045
:10300000000000008F270010000000008F27001034
:1030100000800080FF7F010000800080FF7F008033
:0630200000800200FF7FAA
:02302600FFFFAA
:10302800FF330010000000005834001000000000BA
:08303800163400100000000036
:10304000282F00100A001100282F0010090011007D
:10305000282F001008001100282F00100700110071
:10306000282F001006001100FFFFFF3F3929001034
:1030700089290010F72700104D290010032800109F
:103080002F2800105B280010D7280010732800108C
:103090000000000000C000400400000000C000402C
:1030A000812B0010552B00105F2B0010692B001096
:1030B0000040034000400340C8300010F82E0010CC
:1030C00016000000112D0010D0300010010000008B
:1030D000D830001002000000400200004102010050
:1030E000B92B0010D72B0010E72B0010252D001056
:1030F000FF2C00100B2C00102B2C00104B2C001060
:10310000612C00106F2C00107B2C0010912C0010F3
:103110009F2C0010AB2C0010B72C00106D1300106A
:10312000C72C0010E32C0010E72C0010F5FFFFFF68
:10313000C82E0010C82E0010E82E0010F02E00102F
:10314000F82E0010F82E0010427574746F6E302047
:10315000707265737365642061742025750A00427E
:103160007574746F6E31207072657373656420615D
:10317000742025750A00427574746F6E3220707267
:1031800065737365642061742025750A0042757447
:10319000746F6E3320707265737365642061742080
:1031A00025750A00427574746F6E342070726573F1
:1031B0007365642061742025750A004572726F7210
:1031C0003A20627574746F6E302064657669636549
:1031D000202573206973206E6F7420726561647995
:1031E0000A004572726F723A20627574746F6E31A4
:1031F00020646576696365202573206973206E6F8E
:10320000742072656164790A004572726F723A20A7
:10321000627574746F6E322064657669636520250B
:1032200073206973206E6F742072656164790A007F
:103230004572726F723A20627574746F6E332064D7
:103240006576696365202573206973206E6F74202D
:1032500072656164790A004572726F723A20627514
:1032600074746F6E342064657669636520257320FD
:103270006973206E6F742072656164790A0045720B
:10328000726F722025643A206661696C65642074EF
:103290006F20636F6E666967757265202573207095
:1032A000696E2025640A004572726F722025643AA7
:1032B000206661696C656420746F20636F6E666957
:1032C0006775726520696E74657272757074206FAF
:1032D0006E2025732070696E2025640A0053657482
:1032E00020757020627574746F6E20617420257370
:1032F0002070696E2025640A005365742075702063
:10330000627574746F6E312061742025732070694A
:103310006E2025640A0053657420757020627574F0
:10332000746F6E322061742025732070696E2025C1
:10333000640A0053657420757020627574746F6E32
:10334000332061742025732070696E2025640A0083
:1033500053657420757020627574746F6E342061CB
:10336000742025732070696E2025640A00457272EE
:103370006F722025643A204C454420646576696369
:1033800065202573206973206E6F742072656164F7
:10339000793B2069676E6F72696E672069740A00F5
:1033A0004572726F722025643A206661696C6564AB
:1033B00020746F20636F6E666967757265204C4577
:1033C00044206465766963652025732070696E20EA
:1033D00025640A00536574207570204C45442061B3
:1033E000742025732070696E2025640A0050726570
:1033F00073732074686520627574746F6E0A00635D
:10340000627072696E74665F7061636B616765009C
:10341000286E696C2900736F63006770696F4034B0
:10342000303031343030300072657365742D636F25
:103430006E74726F6C6C6572403430303063303053
:103440003000000201756172744034303033343022
:103450003030006D61696E006F73002A2A2A2042A5
:103460006F6F74696E67205A6570687972204F5368
:10347000206275696C64207A65706879722D763384
:103480002E332E302D333234382D673935346334B2
:1034900066326135363463202A2A2A0A0000000089
:1034A000282F00101900000085260010F1270010B9
:1034B00000C2010000000000000000000000000049
:0834C000200000202000002084
:0634C800000000000000FE
:0434CE0015E015E010
:04000005100011F5E1
:00000001FF
