:020000041000EA
:1000000000B5324B212058609868022188439860DF
:10001000D860186158612E4B002199600421596104
:100020000121F02299502B49196001219960352056
:1000300000F044F80222904214D00621196600F024
:1000400034F8196E01211966002018661A6600F04E
:100050002CF8196E196E196E052000F02FF8012189
:100060000842F9D1002199601B49196000215960AB
:100070001A491B48016001219960EB211966A021F2
:10008000196600F012F800219960164914480160C1
:100090000121996001BC002800D000471248134993
:1000A000086003C880F30888084703B5996A0420EC
:1000B0000142FBD001200142F8D103BD02B5186610
:1000C0001866FFF7F2FF186E186E02BD00000240BE
:1000D000000000180000070000035F00212200005C
:1000E000F4000018222000A00001001008ED00E03C
:1000F000000000000000000000000000070B8FD58A
:1001000000320020A9410010BBD100106541001051
:1001100000000000000000000000000000000000DF
:10012000000000000000000000000000A13F0010DF
:100130000000000000000000413F001029510010A5
:10014000114000101140001011400010114000102B
:10015000114000101140001011400010114000101B
:10016000114000101140001011400010114000100B
:1001700011400010114000101140001011400010FB
:1001800011400010114000101140001011400010EB
:1001900011400010114000101140001011400010DB
:0801A000114000101140001095
:1001A80002B4714649084900095C49008E4402BC02
:1001B8007047C04603B47146490840004900095ECB
:1001C80049008E4403BC7047002934D00123002223
:1001D80010B488422CD301242407A14204D28142BE
:1001E80002D209011B01F8E7E400A14204D28142CE
:1001F80002D249005B00F8E7884201D3401A1A434B
:100208004C08A04202D3001B5C0822438C08A04281
:1002180002D3001B9C082243CC08A04202D3001B37
:10022800DC082243002803D01B0901D00909E3E7B1
:10023800100010BC704701B5002000F05FF802BD47
:100248000029F8D003B5FFF7C1FF0EBC4243891A55
:100258001847C046002941D010B404004C40A446B9
:1002680001230022002900D54942002800D5404238
:1002780088422CD301242407A14204D2814202D20D
:1002880009011B01F8E7E400A14204D2814202D22D
:1002980049005B00F8E7884201D3401A1A434C082A
:1002A800A04202D3001B5C0822438C08A04202D360
:1002B800001B9C082243CC08A04202D3001BDC0888
:1002C8002243002803D01B0901D00909E3E71000E5
:1002D8006446002C00D5404210BC704701B5002090
:1002E80000F00CF802BDC0460029F7D003B5FFF7AF
:1002F800B3FF0EBC4243891A1847C0467047C04630
:100308001C2101231B04984201D3000C10391B0A3D
:10031800984201D3000A08391B09984201D3000901
:10032800043902A2105C40187047C0460403020258
:1003380001010101000000000000000041420840E6
:100348001C2101231B04984201D3000C10391B0AFD
:10035800984201D3000A08391B09984201D30009C1
:10036800043902A2105C401A7047C0461B1C1D1DB0
:100378001E1E1E1E1F1F1F1F1F1F1F1F002B11D1F8
:10038800002A0FD1002900D1002802D00021C9433A
:10039800080007B4024802A14018029003BDC046F5
:1003A8005DFFFFFF03B4684601B5029801F03DFF09
:1003B800019B9E4602B00CBC7047C046D0B501F008
:1003C80035FC00220B4B06000F0000F0A7FE01F0E1
:1003D80067FD040001F00AFC0022074B00F09EFEB6
:1003E80002000B003000390001F0C2F801F058FD9E
:1003F8002100D0BD0000F03D0000F041F0B5C30F72
:1004080085B0440245000F1C640A2D0E0393029325
:100418000AD0FF2D3BD08023E400DB041C430023DB
:100428007F3D019500930EE0012301940093002C79
:1004380009D02000FFF764FF431F9C4076235B42EE
:100448001B1A019300957D027E006D0A360EFF0F80
:10045800002E23D0FF2E2ED08023ED00DB041D4379
:1004680033007F3B002201980399C31A0098794012
:100478008000104301380E2823D8FFF791FE4D99CC
:1004880073999299734D4D92736161615300022380
:1004980001950093002CD6D00133C3E72B0001222D
:1004A800002DE0D02800FFF72BFF431F9D40762347
:1004B8005B421B1AD6E733000222002DD3D001324B
:1004C800D1E764016D01AC4228D31A200122641BD4
:1004D8000126270052006400002F01DBA54201D845
:1004E800641B324301380028F3D1601E8441144351
:1004F80018007F30002838DD620704D00F22224020
:10050800042A00D00434220103D5803318002B4A72
:100518001440E508FE281DDD00250FE01B20002201
:10052800013BD5E78023DB031C4203D01D4201D1E8
:100538002C00029780250299ED032543FF2009E04E
:100548000399009A022AE7D0032A2FD00025280011
:10055800012ACDD16D026D0AC0052843C907084399
:1005680005B0F0BD2C003900ECE701220025121A75
:1005780028001B2AEEDC9E3325009C40D540631ED4
:100588009C4125436B0704D00F232B40042B00D03C
:10059800043580232800DB0418401D420BD1ED08E8
:1005A800D8E780240023E4030293C3E70291C1E75C
:1005B80000252800CEE700250120CBE7FFFFFFF745
:1005C800002370B50400984209D0FFF799FE9E23D6
:1005D8001B1A962B08DC082829D0083884406402A6
:1005E800D805640A204370BD992B1BDD0200210049
:1005F8001B3291400A00511E8A410521091ACC403C
:10060800144322000B4D2A40610704D00F212140DA
:10061800042900D00432510102D59F232A401B1A15
:10062800D408DCE7421F0528EBD09440E9E796237D
:10063800D5E7C046FFFFFFFBF0B587B004920593EE
:10064800CB0F0193059B0D034C006D0A410F5F0012
:1006580029431D037B0D0293059B6D0ADB0F039352
:10066800049B049A5B0F2B43019E029D039F640D1C
:10067800C000D200651BBE4200D02CE1BB4EB44680
:10068800002D00DC70E0029E002E1ED11E001643D5
:1006980000D19BE26E1E012D13D182188242804147
:1006A800C91840420918012410000B0200D472E056
:1006B8000224AF4B42080B40012101400A43D807EE
:1006C80006E165451CD1A94C65E0644563D0382D29
:1006D80047DC8026360433432E001F2E2FDC2025CE
:1006E8001F00AD1BAF4002953D001700F7402F4398
:1006F800029DF340AA40551EAA411D00174303E07E
:100708000127029D382EE8DD3F188742804169188D
:100718004042091838000B023DD5002501342F004E
:100728006445C6D1934B24051C403B031B0B1C435B
:10073800019B2800DB071C43210007B0F0BD3500F2
:100748001F00203DEF403D000027202E03D04037FA
:10075800BF1BBB401F0017437B1E9F412F43002533
:10076800D2E700250127CFE7002D6FD0029D2E1B71
:10077800002C30D10D00054300D121E2751E012E59
:1007880024D1801890429241C918524289180134E4
:100798000B0200D58CE7430709D00F230340042B35
:1007A80005D0031D834280414042091818006F4B51
:1007B8000A0200D410E2002501342F009C42B1D077
:1007C8006B4BC0080B405D070543F2E166451DD140
:1007D8001900100077E7029C6445F9D0382E32DC06
:1007E80080243500240421431F2D1ADC20240E0008
:1007F800671BBE4034000600B840EE403443060094
:10080800E940701E864126430C0002E00126382D7F
:10081800EADDB01890429241E4185242A118029CB5
:1008280079E72C000E00203CE64034000026202DFD
:1008380003D04036761BB1400E000643711E8E4130
:1008480026430024E5E700240126E2E74A4F661C18
:100858003E4230D10D000543002C12D1002D00D1AD
:10086800B1E11D00154396D0821882428041C91813
:100878004042091810000B028DD53D4B1940340039
:1008880089E7002DA4D01D006446154383D0802538
:100898004C07C008C9082D032043294206D0DC08AC
:1008A8002C4203D12100D0085B071843CB00410F2D
:1008B8001943C00007E734002F00664500D131E72F
:1008C800821882428041CB1840421B18D807520830
:1008D800104359085FE7002D65DD029E002E25D1E3
:1008E8001E00164300D171E16E1E012D0ED1821A31
:1008F80090428041C91A4042091A012410000B0293
:1009080000D448E7490206004D0A07E1174FBD42E7
:1009180000D1D8E60125029F382E11DD451BA842DB
:100928008041C91B4042091A2800E8E70F4EB4422B
:1009380000D130E7382D33DC8026360433432E00CF
:100948001F2E1BDC2027BD1B02951D00029FF340B4
:10095800BD40AC4615006746F5403D43029FBA408E
:10096800571EBA411F001543D8E7C046FF070000CD
:10097800FFFF7FFF0000F07FFE07000035001F002B
:10098800203DEF403D000027202E03D04037BE1BFE
:10099800B3401F0017437B1E9F413D430027BDE71F
:1009A80000270125BAE7002D59D0029D2E1B002CE7
:1009B80016D10D0005430FD0751E012E09D1101A4E
:1009C80082429241591A039B5242891A0193013477
:1009D80095E78E4FBE4221D119001000340050E037
:1009E8008A4C029DA54200D1F2E0382E34DC8024E6
:1009F8003500240421431F2D1DDC20260C00761B06
:100A0800B440A4460400B040EC406746461EB041DE
:100A1800E9403C43044326000C0002E00126382D3F
:100A2800E9DD901B824292411C1B039B5242A11A92
:100A38000193029C63E72C000E00203CE640002452
:100A4800202D03D04034641BA1400C000443611ED8
:100A58008C4126430024E4E700240126E1E76C4E9C
:100A6800651C35424AD10D001F0005431743002C71
:100A780023D1002D08D13D1E019700D152E619005F
:100A88001000039B019386E6002F00D183E6861AA7
:100A9800B042BF41CD1A7F42ED1B2F0206D5101A76
:100AA80082429241591A5242891AEAE737002F4383
:100AB80000D1A5E0290030006DE6002D07D1002FF8
:100AC80000D194E01900039B10000193FBE5002F6F
:100AD80000D1F8E580254C07C008C9082D0320433C
:100AE800294200D1E2E6DC082C4200D0DEE65B07B2
:100AF800D0081843039B21000193D7E6861AB04219
:100B0800BF41CD1A7F42ED1B2F0228D5161AB242DB
:100B180092415B1A52429D1A039B0193002D25D0E6
:100B28002800FFF7EDFB0300083B20223100D21A12
:100B38009D40D140294335009D409C423BDC1A1B17
:100B48000132202308009B1A2C009D409840D44075
:100B58006B1E9D41D1402043284300241BE63700EB
:100B68002F43DBD13D003C000197DBE53000FFF768
:100B7800C7FB030018331F2BD7DD3100083881402D
:100B88009C4212DC1B1B5A1C1F2ADADD0C001F3B7F
:100B9800DC402800202A03D040239B1A99400800F3
:100BA800431E984100212043D7E7E41A194B0B4014
:100BB8005D07DF08B6E5E41A164B28001940EAE598
:100BC800190010005BE619001000E4E52C00E2E5CE
:100BD80019001000029C54E74A07C70817433D0054
:100BE800C9089C420FD10D4304D12F009AE58021FA
:100BF800019709033D0080273F03044C0F4391E50B
:100C08003D0001978EE50F008CE5C046FF07000008
:100C1800FE070000FFFF7FFFF0B589B00092019347
:100C28000D03CA0F4B00060004002D0B5B0D069246
:100C3800059244D05B4A93426AD0420FED001543B7
:100C4800802212042A430292574AC4009F180026A1
:100C5800019B019A1D03D20F5B0000982D0B5B0DC1
:100C6800079265D04F4A934200D188E0ED004E4983
:100C7800420F2A4380255B189C462D041543C20069
:100C88000021079B0698584063460490B00008432B
:100C9800FB1A013803930E2800D989E001F094F873
:100CA8007E002802D40128021E022802D4017E00F8
:100CB8007E001E02D401C701C701C701B5012B0080
:100CC800034302932CD0002D15D02800FFF718FB02
:100CD800010003000B391D22521A31001800D140BF
:100CE800083885400A002A433500854002922F4F74
:100CF8002C00FF1AABE7FFF703FB010003001531D7
:100D080020331C29E7DD3200083882400292EEE7E2
:100D180002002A43029207D01F000326029597E794
:100D2800029C0126270093E71F000226029C8FE7FA
:100D3800009A2A432AD0002D15D02800FFF7E0FAA0
:100D4800010002000B391D2310005B1A00990838B6
:100D58008540D9402943009D8540144B9B1A9C46E9
:100D68002A000D008CE7FFF7CBFA010002001531CD
:100D780020321C29E7DD009908388140EDE7009A08
:100D88002A4307D002009C4603217AE715009446BF
:100D9800012176E715009C46022172E700231C001A
:100DA800004A22E1FF07000001FCFFFF0DFCFFFFE6
:100DB800029B9D4204D300D022E1A24200D91FE148
:100DC800029BE607D907630819430C00029B5B08DE
:100DD800029313022D02170E00932B0C2F43079337
:100DE8000799BBB202980593FFF72AFABBB24343AF
:100DF8000A04210C050011438B4207D9C919013D8A
:100E08008F4203D88B4201D9851EC919C81A079980
:100E1800FFF716FABAB242430904A4B203000C431E
:100E2800A24207D9E419013BA74203D8A24201D93B
:100E3800831EE4192D041D43A41A009B009A1B0C61
:100E480012040593120CABB206925A43069802920A
:100E5800059A290C484353435143029A1B18120C14
:100E680094466344984202D9802252028918029A11
:100E7800180C12041B04120C40189A18844203D34D
:100E880002951ED196421CD26B1E0293009BF61847
:100E98009E429B415B42DB19E418A74203D310D161
:100EA800009BB3420DD8A04202D80AD1B24208D959
:100EB800AB1E0293009BF6189E429B415B42DB19D6
:100EC800E418B51AAE42B641201A7642801B874212
:100ED80000D1BEE00799FFF7B3F9BBB243430A0458
:100EE800290C040011438B4207D9C919013C8F42D0
:100EF80003D88B4201D9841EC919C81A0799FFF76C
:100F08009FF9BBB243430904ADB202000D43AB42A3
:100F180007D9ED19013AAF4203D8AB4201D9821E75
:100F2800ED19ED1A2304059E1343069906981C0C27
:100F38009AB2514360437243744312180E0CB218AC
:100F4800904202D9802040022418100C090412048F
:100F5800090C00195118854204D31C00854219D187
:100F6800002919D07D195C1EBD420ED3854203D3DA
:100F780010D1009A8A420AD29C1E009B5A009A42BB
:100F88009B415B42DB19ED180092854202D1009B20
:100F9800994201D001231C43039B5B4A9A18002AFB
:100FA8005ADD63070BD00F232340042B07D0231DE2
:100FB800A342A4410299644209191C000291029BB0
:100FC800DB0108D5514B029A1A408023DB009C466E
:100FD8000292039A62444E4B9A4200DD8CE0029BD7
:100FE800E4085B071C43029BDB081B0312051B0B71
:100FF8001343049A2000D2071343190009B0F0BD27
:10100800039B0026013B0393E3E6802302991B031D
:10101800194205D01D4203D11400079B0295059380
:101028008023029A1B031343059A0492B8E6310001
:10103800069B049302295FD0032956D00129ABD11E
:10104800002423002200D0E7079B14000295049394
:10105800F0E7012464429FE70121891A3829EFDC6F
:101068001F2926DC2B4A039B9446634420009C409E
:10107800029AC8409A4023000243581E83411A43EB
:10108800029B1400CB40620709D00F222240042A99
:1010980005D0221DA242A44164421B1914008021DC
:1010A8001A0009040A400B4229D1E1085C070C43E5
:1010B8009AE71F235B429B1A029ADA4000232029F1
:1010C80006D01549039B8C460299634499400B004E
:1010D8001C43631E9C4100231443D4E700231C00D7
:1010E800059380231B0302939AE7049B059397E7D4
:1010F80000231C001A0078E70024230050E6002390
:1011080001221C0071E7C046FF030000FFFFFFFE3D
:10111800FE0700001E0400003E040000F0B58BB07E
:10112800009201930D034B00CA0F06002D0B5B0DB7
:10113800059200D114E1CF4A934200D138E1ED0085
:10114800420F2A4380252D041543CB4AC4009B181F
:10115800039300230293019B00981E035A00DB0FA0
:10116800360B520D049300D131E1C24B9A4200D1A3
:1011780053E1430FF60033438026BF4936041E432C
:10118800C300501800220599049F794000910399E3
:1011980041180691013103910299880010430A28E9
:1011A80000DD73E1022800DD46E10138012800D89E
:1011B80055E1190C9BB202911900220CA4B25143BB
:1011C80020008C46029F029958435143674305917A
:1011D8006744010CC91904908C4505D98020400248
:1011E8008446059F67440597080C84466846008A2C
:1011F800090409180991310CB6B204913000210094
:10120800049F50437C4371437A4324180F0C3C19C4
:10121800A04202D9802040021218200C821824040F
:1012280089B2079262180892089962468C46290C7E
:10123800ADB22800029F58436F434B436244944623
:10124800029CFF18020CD2194C43934202D9802306
:101258005B02E418130C1B1902932B0080B21204D2
:1012680012180498734345434E434143A8191D0C73
:101278002D18AE4202D9802040020918059C60460C
:10128800A446089C6044A042BF4180189042924105
:101298002E049BB2F618079B7F42F618534204931C
:1012A800029BF4199C46A4446346049ABC42A44198
:1012B8009B18079A64429642B641029A7642344392
:1012C8002D0C64199445AD41049A6D4293429241A4
:1012D800524215436419099A6418410211434A1E7F
:1012E8009141C00DDE0D640201435B0226430B43AE
:1012F800E40100D4DFE001215A080B401A43F30748
:10130800CE401343039A5D495218002A00DCD5E009
:10131800590709D00F211940042905D0191D9942F0
:101328009B415B42F6180B00F10106D58021C900EC
:101338008C46534A1640039A624452498A4200DD59
:1013480009E17407DB081C43F60813053603009A05
:10135800360B3343D2071343200019000BB0F0BDFE
:101368002C0004432BD0002D16D02800FEF7C8FF10
:10137800040002000B3C1D2330001B1B1100D84049
:1013880008398D4003002B4335008D403E492C0021
:101398008A1A1D000392DCE6FEF7B2FF0400020081
:1013A800153420321C2CE6DD330008388340EDE785
:1013B80004002C4307D0039304000323CAE6250046
:1013C80001230394C6E6039325000223C2E6009B8B
:1013D800334329D0002E14D03000FEF791FF0100CE
:1013E80003000B391D221800521A0099083886404C
:1013F800D1403143009E86402348C01A33000E0076
:10140800C0E6FEF77DFF01000300153120331C29DB
:10141800E8DD009908388140EEE7009B334307D0A8
:10142800030010000322AEE61E0018000122AAE6FF
:1014380010001E000222A6E601218140A6200F000E
:10144800C0000740014227D190208000014277D197
:10145800B938FF38014200D1ABE604990091022A5D
:1014680079D0032A75D0012A00D04BE70026340032
:1014780032006AE7FF07000001FCFFFFFF030000DE
:10148800FFFFFFFEFE0700000DFCFFFF059900911E
:101498000F2805D00B28E0D02E002300029ADEE7A3
:1014A8008022120315424FD016424DD13500049ABE
:1014B80000921C0048E0069A039223E70120801A54
:1014C8003828D3DC1F2827DC2649039A8C461C00C1
:1014D8006244310093409140C4401A002143531E96
:1014E8009A410B00C64013435A0709D00F221A40ED
:1014F800042A05D01A1D9A429B415B42F618130034
:1015080080213000090408400E4227D17407DB0807
:1015180002001C43F60818E71F2149428A1A3100C5
:10152800D1400022202805D00F48039A84466244FF
:101538009640320013435A1E934100260B43D3E7CB
:1015480080253C002D030097802636032E43074A4A
:10155800FBE63500ADE700263400F8E70026012257
:101568003400F2E61E0400003E040000FF070000FD
:10157800F0B585B000920193CB0F0D030293019B48
:101588004C006D0A410F29435D001E036B0D9C46FC
:10159800019B760ADD0F009B009A5B0F3343BE4E1A
:1015A800640DC000D200B44523D11E001643039633
:1015B800039FBA4EA619002F0CD0029F0095AF4288
:1015C80000D0B5E1002E00D104E1002C00D0BAE231
:1015D8006446B8E001276F40029D0097BD4200D0E5
:1015E800AFE1002E00D1F5E0002CF1D003990800FE
:1015F8002FE00126754000956546029F009E651BF9
:10160800B74200D02EE1002D00DC76E06746002FBF
:1016180021D11F00174300D122E16F1E012D15D1E2
:10162800821882428041C9184042091801241000DA
:101638000B0200D496E00224994B42080B4001218A
:1016480001400A43D807104359088BE0924EB5422F
:1016580022D1914C86E0904EB44200D182E000261F
:10166800B4460136382D1ADC80262F003604334361
:101678001F2F31DC20251E00ED1BAE40B44616009E
:101688000095FE4065462E43009DFB40AA40551E2E
:10169800AA4116439C4602E00126382FE8DD361899
:1016A8008642804161444042091830000B0259D5F6
:1016B8000026794B0134B4469C42BDD1794B2405B0
:1016C8001C4063461B031B0B1C43029B3000DB07BB
:1016D8001C43210005B0F0BD3D001E00203DEE403A
:1016E8000025202F03D04035ED1BAB401D001543CE
:1016F8006B1E9D4100232E43CCE7002D6AD0654622
:101708002D1B002C1ED000240126382D12DC80242D
:10171800240421431F2D4BDC20240F000600641BEA
:10172800A040A740EE4037430600E940701E8641BE
:101738000C003E43B01890429241E4185242A1185E
:101748006446B3E72C000D00054329D0651E012C23
:1017580023D1801890429241C918524289180B022D
:1017680000D568E7430709D00F230340042B05D0B1
:10177800031D834280414042091818000B0200D41F
:10178800E4E10026444B0134B4469C4296D0444BD5
:10179800C0080B405E070643CDE13F4EB44202D17C
:1017A80019001000DEE7382DB4DD00240126C1E75A
:1017B8002C000E00203CE64034000026202D03D0EB
:1017C8004036761BB1400E000643711E8E412643FB
:1017D8000024AFE7344E651C354233D10D00054374
:1017E800002C11D1002DDBD01D001543BAD0821872
:1017F80082428041C9184042091810000B02B1D535
:10180800274B01341940ADE7002D00D19BE11C00A6
:101818001443002C00D11CE74C07C0082043802447
:10182800C9082403214208D0DD08254205D1290032
:101838005B07D0081843009B0293CB00410F194364
:10184800C00006E7144CA54200D196E182188242F6
:101858008041CB1840421B18D8075208104359083A
:101868002C007FE7002D76DD6646002E2ED11F0066
:101878001743F5D06F1E012D18D1821A904280416E
:10188800C91A4042091A012410000B0200D469E762
:10189800490206004D0A02E1FF07000001F8FFFFB8
:1018A800FFFF7FFF0000F07FFE070000B74EB54244
:1018B80000D1CEE60126382F15DD861B6346B042DF
:1018C8008041C91A4042091A3000DEE7AF4EB442DF
:1018D80000D147E70026B4460136382DEDDC8026D6
:1018E8002F00360433431F2F11DC20251E00ED1B6B
:1018F800AE40B44616000095FE4065462E43009D56
:10190800FB40AA40551EAA4116439C46D5E73D0018
:101918001E00203DEE400025202F03D04035ED1B52
:10192800AB401D0015436B1E9D4100232E43ECE781
:10193800002E67D0002C25D019001000934C02957A
:1019480010E7002E5ED0002C1FD003998F4C0800A2
:10195800009B029306E7002D54D065462D1B002CF2
:101968001FD1009C02942C000D00054300D117E7FD
:10197800651E012C0CD1101A82429241591A52420A
:10198800891A82E702956446EEE7009C0294FAE71A
:101998007E4EB44200D103E7382D09DD002101262F
:1019A80014E0382D2BDC802424042143009C02946D
:1019B8001F2D13DC20240F00641B0600A040A74045
:1019C800EE40441EA041E9403E430643901B82423C
:1019D8009241591A52426446891A56E72C000E0061
:1019E800203CE6400024202D03D04034641BA14055
:1019F8000C000443611E8C4100212643E6E7009950
:101A08000291CBE7624E651C354238D11D00154363
:101A1800AC460D000543002C25D1002D08D16146A8
:101A280026000294002900D148E6190010008FE72B
:101A38006546002D00D195E6861AB042BF41CD1A01
:101A48007F42ED1B2F0206D5101A82429241591A85
:101A58005242891A7CE733002B439C4600D18FE021
:101A6800290030007EE6002D07D1614600297AD092
:101A78001900009B10000293EBE56446C9E6861A3C
:101A8800B042BF41CD1A7F42ED1B2F0228D5161A4E
:101A9800B24292415B1A52429D1A009B0293002D5A
:101AA80026D02800FEF72CFC0300083B202231003A
:101AB800D21A9D40D140294335009D409C423DDCCF
:101AC8001A1B0132202308009B1A2C009D409840C5
:101AD800D4406B1E9D41D14020432843002441E659
:101AE80033002B439C46DAD11E001C000293E5E527
:101AF8003000FEF705FC030018331F2BD6DD31003C
:101B0800083881409C4212DC1B1B5A1C1F2AD9DD55
:101B18000C001F3BDC402800202A03D040239B1ADE
:101B280099400800431E984100212043D6E7E41A53
:101B3800184B0B405E07DB089C46BFE5E41A154BC3
:101B4800280019400EE61900100082E54B07C0086E
:101B580003439C460D4B6646C9089C4213D10E436D
:101B680004D1B446AAE502918021090380231B030E
:101B78000B436646054C9C46A0E50026034CF0E75F
:101B8800260002949AE58C4698E5C046FF070000B7
:101B9800FE070000FFFF7FFF70B50300020006008C
:101BA800051E11D0C21785185540C40F2800FEF72E
:101BB800A7FB0D4A121A0A280FDC0B232E001B1A4A
:101BC8001530DE40854023003603360B12053243BC
:101BD800DB071A432800110070BD0B38854023002D
:101BE8002E000025F0E7C0461E04000010B50300D3
:101BF8000400021E0CD0FEF783FB0B4A121A0A28B7
:101C08000DDC0B2321001B1AD94015300B00844032
:101C18001B031B0B12051A432000110010BD2300E3
:101C28000B3883400024F3E71E040000FE2270B541
:101C38004400240E4302611C5D0AC60F11420DD0F8
:101C4800E0229200A4181B0B6D071B031B0B240535
:101C5800F6071C4334432800210070BD002C18D11E
:101C68002300002DF1D02800FEF74AFB0A280ADCE1
:101C78000B232A001B1ADA40130002001532954084
:101C8800094C241AE1E703000B3B9D402B0025007B
:101C9800F6E7002D06D01A0B80231B036D071343AC
:101CA800024CD2E72B00FBE789030000FF07000086
:101CB800F7B50B034A005B0A460F520D1E43531C2F
:101CC8009C460400C7003C48C90F03400193634683
:101CD800034249D0394BD018FE2868DC002837DC8D
:101CE8000300173365DB80241E25240434432D1A92
:101CF8001F2D10DC324BD2183B0097409440781EC1
:101D08008741EB4027433B4307241A0022402342E4
:101D18003BD1DB0832E002235B421B1A2000D8408B
:101D280003000020202D03D02648121820009040E0
:101D38003843421E9041034307241A00224023429D
:101D4800E7D00F221A40042A24D00020043308E0E8
:101D5800A401621E9441F6007B0F344323435A07C3
:101D68001BD10200DB0809E0019B002A06D03B00DA
:101D7800FF22334302D08023DB0333435B02D005C9
:101D88005B0A1843C9070843FEBD0F2200201A400A
:101D9800042A06D10022DB08F0E70F221A40042AA1
:101DA800DFD004335A01DCD5421C0023E6E7FF22CA
:101DB800FBE700221300E1E7FE07000080FCFFFFBD
:101DC80082FCFFFFA2FCFFFF03B4714649084000F4
:101DD8004900095A49008E4403BC7047D0400B00A3
:101DE800D1409C46203AD340184352426346934020
:101DF800184370479140030090409C46203A934016
:101E0800194352426346D340194370478446100031
:101E180062468C461900634600E0C0461FB500F0D4
:101E280013F9002801D40021C8421FBD10B500F0E5
:101E380053F84042013010BD10B500F005F90028F4
:101E480001DB002010BD012010BDC04610B500F018
:101E5800FBF8002801DD002010BD012010BDC046A0
:101E680010B500F07BF8002801DC002010BD01202F
:101E780010BDC04610B500F071F8002801DA002046
:101E880010BD012010BDC04610B5002903D1FEF7D2
:101E980037FA203002E00800FEF732FA10BDC046DB
:101EA80070B500220B4B04000D00FFF7E3FF00287C
:101EB8000BD0084B002220002900FFF759FB00F047
:101EC8003BF980231B06C01870BD2000290000F0D4
:101ED80033F9F9E70000E041F0B50D0087B0009252
:101EE8000193040004900198EB0F4600C70F1A48AD
:101EF80003938446009B09030593019B6A001B0317
:101F08000120090B520D1B0B760D624503D0664567
:101F18000DD107B0F0BD9642FBD1009A0B43134395
:101F28002343F6D1039BD81B431E9841F1E70120B8
:101F3800B242EED19942ECD1049B059EB342E8D15E
:101F4800039BBB4206D0002AE3D121434B1E994193
:101F58000800DEE70020DCE7FF070000F0B587B0E7
:101F6800009001911D00009B14000493019B29031C
:101F78001A03130B334A03939446019B68005F00CE
:101F88007B0D0293029A019B0594DB0F090B400D10
:101F9800EE0F624512D1009A039F17434FD1029A60
:101FA800904204D00120002B06D0023804E02143DF
:101FB800081E44D1B342F5D107B0F0BD604511D138
:101FC80021433CD1029A002A04D0B342EAD1181E18
:101FD800F2D105E0009A03991143F6D1301EEBD1F6
:101FE80001202DE0029A002A17D00028DAD0B34247
:101FF800D8D1029A8242D5DC029A8242E7DB039A60
:102008008A42CFD8E3D1049A05998A42CAD8049A59
:10201800059900208A42CFD2D9E7009F039A174337
:10202800002802D0002FD9D0CFE70C4304D0002FCE
:10203800D4D0B342E3D0B5E7002FBDD0B2E7022039
:102048004042B9E7FF070000F0B587B00090019162
:102058001D00009B14000493019B68001A03130BD6
:10206800344A03939446019B05945F007B0D0293C9
:10207800019B029AD90F2B031B0B400DEE0F6245F3
:1020880013D1009A039F174352D1029A904204D069
:102098000120002907D0023805E00220234302D19D
:1020A8001800B142F4D107B0F0BD604513D1022049
:1020B8002343F8D1029B002B04D0B142E8D1081E7B
:1020C800F1D105E0009B039A1A43F6D1301EEAD1FC
:1020D80001204042E7E7029A002A17D00028D7D00B
:1020E800B142D5D1029A8242D2DC029A8242E6DB20
:1020F800039A9A42CCD8E2D1049B059A9342C7D856
:10210800049B059A00209342CDD2D8E7009F039AFA
:102118001743002802D0002FD8D0CEE71C4304D0A4
:10212800002FD3D0B142E3D0B2E7002FBBD0AFE746
:102138000220B8E7FF0700000B0070B5114E0C0332
:1021480049000200240B0020490DDD0FB14204DDD7
:102158000D48814202DD0D4BE81870BD8020400318
:1021680020430B4C641A1F2C08DC0A4EE2408919E4
:1021780088401043002DF0D04042EEE7064B5B1A32
:10218800D840F7E7FE0300001D040000FFFFFF7FB3
:1021980033040000EDFBFFFF13040000F0B51D0041
:1021A8004B005B0D9C460B4F14002B030A036E007B
:1021B800120B1B0B760DBC4503D102430120002AEC
:1021C80006D10020BE4203D123431800431E984184
:1021D800F0BDC046FF070000F7B5040C0D0091B232
:1021E8000F0061438C460600019383B2100C5F43D5
:1021F800444358433B0C60441B18994202D9802140
:1022080049026418019955437143180C04191B04B9
:10221800BFB24919D819091903B0F0BD10B5002883
:1022280002D0FEF78BF8013010BDF0B506000F00A4
:1022380015001C0085B08B4263D801D1824260D85A
:1022480021002800FFF720FE390000903000FFF73A
:102258001BFE009B21001B1A1A0028000393FFF79E
:10226800C9FD00900191B94245D801D1B04242D888
:10227800009B019C01200021039AF61AA741FFF751
:10228800B9FD04000D00039B002B2BD0019B009A85
:10229800DB0750081843019B5908039B9C46B94229
:1022A8002CD801D1B04229D832003B00121A8B41F8
:1022B800012692185B410027B6185F4101235B4253
:1022C8009C446346002BEAD130003900039AFFF79B
:1022D80085FD039AA4197D4106000F00FFF78AFDCA
:1022E800241A8D410A9B002B01D01E605F602000DC
:1022F800290005B0F0BD00240025C4E7B6197F41C8
:10230800DCE700240025EDE70300F7B50A0019799A
:10231800DB8800681343826894460269DC0206D5AC
:10232800C0242403234202D0DD0700D563400127DF
:102338003D00084C16681C408D4001943400AC43A5
:102348003B4201D034002C43634614601B68019A59
:102358009847FEBDFFFFEFFF10B502F097FF034B54
:10236800010018000AF078FD10BDC046F2EB00101D
:1023780010B502F08BFF034B010018000AF06CFD4A
:1023880010BDC04609EC001010B502F07FFF034BEA
:10239800010018000AF060FD10BDC04620EC0010D6
:1023A80010B502F073FF034B010018000AF054FD4A
:1023B80010BDC04637EC001010B583681B68002BB1
:1023C80002D00349984710BD58204042FBE7C04659
:1023D800D8240020F0B5436889B002938389046843
:1023E8000393A36820005B68029906AA984700280F
:1023F8002BDB069E079F0023174A30003900FFF7A2
:10240800EBFE0023154A0491FDF7B8FF0499144B1D
:102418000500059099421AD800233900114A300066
:10242800FFF7DAFE00230D4A0F00FDF7A7FF0C4A5D
:10243800030097420BD8A26885420BD3039920006A
:102448000091166802992A00B04709B0F0BD8620AD
:102458004042FAE71620FBE700E1F50500CA9A3B7F
:10246800FFC99A3B80F0FA0210B50100034883685F
:10247800DB69002B01D00122984710BD10E0001045
:1024880070B5040018293AD10378042B37D1437862
:10249800142B34D18378C0780002184340BA80B234
:1024A800FFF77AFB0022164BFEF7B6FBFFF700FC9E
:1024B800144B051C18602079A37900021B061843E9
:1024C8006379114E1843E3791B041843FFF764FB43
:1024D80000220E4BFEF7A0FBFFF7EAFB3060281C3A
:1024E800FFF7A4FB02000B00094805F063F9306808
:1024F800FFF79CFB02000B00064805F05BF970BD76
:1025080000002440942300209023002000408F40A6
:102518004EEC00105FEC0010F8B504002248001BD8
:10252800FFF764FB214B1A685B68FEF7F7FD0600AE
:1025380020000F00FFF75AFB02000B0030003900A3
:10254800FEF76AFB04F084FB194B0D001A685B6800
:102558000400FEF7E3FD174B1A685B68FEF76CF89A
:10256800154B06001A685B680F0020002900FEF76B
:10257800D5FD2B002200FEF7D1FD2B002200FEF72F
:10258800CDFD02000B0030003900FEF755F80200BF
:102598000B0000200949FEF73FFB094B1A685B68EE
:1025A800FEF7E6FFF8BDC046460500002000002003
:1025B8001000002018000020080000200000F03F54
:1025C80000000020F0B5C54897B00AF045FCC44C9F
:1025D80020000AF0F0FB002859D0D021C148490357
:1025E800FFF792FE002852DB20000AF0E4FB0028E7
:1025F8004DD08021BC484902FFF786FE002846DB03
:1026080020000AF0D8FB002841D08021B7484902B1
:10261800FFF77AFE0690002839DBB5480AF01CFC63
:102628001422002111A805F061F8162304AA9B18AA
:1026380013930223AF4C149320000AF0BCFB00282C
:102648000BD0A5682000AC492B689847021E1ADBFE
:1026580020000AF0B0FB002803D1A8480AF0FCFBD0
:1026680015E0A74920002B6898470121021E0BDBC3
:10267800A4480AF0F1FBA44B18680AF09CFB002858
:1026880007D1A248EAE70021A1480AF0E5FB17B004
:10269800F0BDA04C20000AF08EFB002804D19E4813
:1026A80021680AF0D9FBF2E720000AF084FB002831
:1026B800F5D020000AF07FFB0028F0D097480AF0F8
:1026C800CBFB974C20000AF076FB002809D1954BEC
:1026D8000122029394490300019000900AF06FFBD5
:1026E800D5E72000A36800240DAE3100DB699847C8
:1026F80033888D4D0593778803938C4B29002000F0
:10270800032202930194230000940AF058FB884B9B
:1027180029002000032202930194230000940397C8
:102728000AF04DFB0E9B29000393824B20000322E5
:1027380002930194230000940AF041FB0F9B2900A7
:1027480003937D4B200003220293019423000094FD
:102758000AF035FB337B29000393784B20000322D2
:1027680002930194230000940AF029FB737B8026CE
:102778000393734B29002000032202930194230042
:1027880000940AF01CFB059B554D7B43059A0A9360
:10279800280004AB9A83DF831E840AF00CFB2C68A4
:1027A800002801D167481BE0069B002B06D00623B2
:1027B8002200654806990AF04FFB68E76348644BB6
:1027C800436040238360FFF74FFE624806222100E2
:1027D8000AF042FB28000AF0EEFA002802D15E480F
:1027E80021005EE75D485E4B86604360FFF73CFE74
:1027F8005C48072221000AF02FFB28000AF0DBFAC8
:10280800002801D15848EBE75848594B43608023CA
:102818005B008360FFF728FE5648082221000AF073
:102828001BFB28000AF0C7FA0028BBD05248534BBC
:10283800436080239B008360FFF716FE2100092276
:102848004F480AF009FB4F480AF006FB4E48FFF7CD
:10285800C1FD011E4D4800D023E74D48FFF7BAFDE2
:102868004C4E071E079000D1B9E03900474818E7D9
:1028780000280FD148480AF0EFFA2868FFF79CFDB6
:1028880046492368464A0978D15401332360182BF6
:10289800F3D1AFE04348ABE00123B7E0162504AB22
:1028A800ED18298840480AF0D7FA2888FFF734FE3F
:1028B80002000B003D493E480A604B6004F07AFF75
:1028C80000213C4803F046FDC5E03B480AF0C4FA45
:1028D80038480AF082FA2F4E012780E070EC001089
:1028E80010E0001098E3001090E3001088E3001057
:1028F8007EEC001028E000102EE30010A0EC001081
:102908003EE30010E3EC00107807002004ED00100F
:10291800C1EC001058E000101BED00103EED001057
:1029280070E000105FED0010ACE100107BED0010CE
:102938008CED00109DED0010B9ED0010C9ED0010F0
:10294800E2ED0010FAED001021EE001084230020C3
:10295800612300104AEE001067EE00107823002073
:10296800792300108EEE0010ABEE00106C230020CF
:1029780091230010D2EE001060230020A92300103C
:10298800EFEE00100CEF001058E300101EEF0010DF
:1029980048E300105C09002058EF0010D8240020FC
:1029A800D924002074EF0010B6EF0010B0210020E9
:1029B800C3EF001010270000D8EF0010002C06D03D
:1029C80052480AF049FA0A200AF007FA0327069B38
:1029D8004F4E002B03D00A200AF0FFF902274D4D75
:1029E8002868FFF7E9FC4C4C431C00D040E74B48F3
:1029F8000AF032FA4A482168FFF742FD079B236034
:102A08000021484803F0A6FC0023474C256805939D
:102A1800237946481A00296806930AF01DFA637953
:102A2800002B0DD00123069A4421934004AA129347
:102A3800A37B521813700131E37B04AA5218137058
:102A4800AB6811A928005B689847011E00DB25E7E1
:102A580037480AF001FA059B1034002B00D11BE718
:102A68000021304803F076FC002232480096836843
:102A780011009C680AABA0472F480AF088F9059016
:102A88002E480AF084F906902D480AF080F90400CF
:102A98002C480AF07CF90500052F30D83800FDF7DE
:102AA80089FB14FF8DFF0600170025003200002C5B
:102AB80006D025480AF0D0F90A200AF08EF9032733
:102AC800059B224E002B8AD00A200AF086F903E7DC
:102AD800002C06D01E480AF0BFF90A200AF07DF93A
:102AE80004271C4E002D00D179E7EDE71A4E002D82
:102AF80000D174E70A200AF070F905276FE7174834
:102B08000AF0AAF96BE7164E69E7C046DFEF001036
:102B18005C190020780700209823002043EF00105C
:102B2800D92400201027000028E300108EEF0010A1
:102B3800A1EF001070E0001080E3001078E30010AF
:102B480070E3001068E30010FAEF00105C15002035
:102B580016F000105C1D00205C11002027F000100A
:102B68005C0D0020F0B595B00493042309921A4037
:102B7800099B0892DA0807231A40013207001A9CB9
:102B880002910B92820700D0D2E1021D0092002828
:102B980004D007290AD81C20404254E1029A1A405E
:102BA8001300043200920822D31A02930425049BCE
:102BB8002E00013B0593002307930A930393019387
:102BC800013B0693002F02D0009B049A1A600B9BCE
:102BD800002B00DDEBE09D4B049A9A4203D39C4BFB
:102BE8009A4200D2E3E0009B0999DA1B930889070F
:102BF80000D509E1039A0F2A00D9B4E0002F00D1CB
:102C08000AE103990CAA53540A00069910AB995487
:102C18000A9B01330A93EEE07A2861D84B280ED834
:102C280047285DD829282BD8252856D058D82028B9
:102C38007FD0233843425841C3B2019379E04C38DE
:102C48002E284DD8FDF7ACFA754C4C4C4C4C4C4CDE
:102C58004C4C4C4C4E4C4C4C4C4C4C4C4C5D4C4E97
:102C68004E5D5D5D754E734C754C184E184C4C8915
:102C7800874E4C4C4E4C87000023019304253EE0C0
:102C880001210A002A38C0B28240724B1A4250D140
:102C9800E220130080050340024232D110000840B0
:102CA80001900A4245D0009A6942013A52191140EE
:102CB8000091002F65D0F21B52180299914200D260
:102CC80069E7002B6AD1042E4BD108CC009A136017
:102CD800009B0426043300932BE0069B013B0693DC
:102CE8000023AAE7059B5A78002301936C2ADAD1BE
:102CF8000425059A2E0012786C2AD4D16D192E005D
:102D0800D1E7072500990734AC434919A9430CCCEE
:102D1800002F08D00135ED1B029E6D18B54200D971
:102D280039E70A604B6000230831009101930825B8
:102D38002E00059B01330593059B9878002877D0D2
:102D4800019B002B00D067E72528F2D1069B0133B1
:102D58000693012301930425EAE70022019B0192CF
:102D68008CE7082E01D0162016E7072300990734B0
:102D78009C430CCC0A604B60009B082608330093E8
:102D8800D7E7002B0AD1042E01D10434A0E7082E7E
:102D9800E9D1072307349C430834EDE7059B023348
:102DA80005930B9B013B0B9308CC04930AE7099B03
:102DB8009B0723D50121009BDA1B93088020800004
:102DC8008242D0D2039A0F2ACDD8002F1ED0039862
:102DD800DBB20CAA13549C46069B10AA1354002974
:102DE80000D115E780226346524213430CAA1354BC
:102DF800079B01330793039B01330393009B043321
:102E08000093059B013B96E70021D7E7002903D0F3
:102E1800029B01330293EEE7029B02330293089B65
:102E2800002BE8D1049804F0E9FC029B1B18F1E799
:102E38008022009BD200DB1B934294D2002F0BD13F
:102E480002980838C01815B0F0BDC04670DF0010F1
:102E5800282D0110DAFF00009B08282238603B70FB
:102E68006B469B18089A1B78002A0CD0FB70079BAE
:102E7800BB70002B20D100260CAD039BB34220D1A0
:102E8800009BD81BDFE77B70F1E70CACE4560CA97C
:102E9800595C002C0BDA009C029DA4180140A54245
:102EA80000D278E6009C21702100013100910133A5
:102EB80003999942E9D1DEE7012200237F20D21B42
:102EC800F6E7079B002B02D02B787F2B21D8089B95
:102ED800002B21D010AB009AF35C00241370130070
:102EE800013300930123009ADB1B1B19D318029AA4
:102EF8009A4200D24FE6009B009A013301932B7847
:102F0800049913700198220004F0A8FB019B1B1977
:102F1800009301360135B0E72B789B00FB181A683F
:102F28000492089A04981A6004F068FC441CD9E7D3
:102F38000E2031E6014B18607047C0467C07002020
:102F4800F0B503000268042400200A26054D117814
:102F58006F5C274201D11A60F0BD704330380132EE
:102F68004018F4E7DDE50010F0B585B00190039353
:102F7800D3781500244A0F00D15C0322114008249D
:102F880002916F2B0AD004D82419582B06D0063C7E
:102F980004E0082210249343702BF8D10A9E2200E3
:102FA800002339000198FDF7E9F913008C46D2B2E5
:102FB800092B1AD83032D3B2013E33700023BB42FA
:102FC80002D1019B9C4202D8039B9E420AD82B78CF
:102FD8009B0604D5082C10D1AB782343AB70300086
:102FE80005B0F0BD67460190D9E713000299573341
:102FF800DBB20129E0D13732DDE7102CEFD1AB7815
:103008001C43AC70EBE7C046DDE50010F0B51C00D2
:1030180000279BB0049005910892089B1878002817
:1030280001D1380028E3089B01330793252807D0EE
:103038000599049B9847002800DA1DE30137E2E16F
:1030480014AD18220021280004F050FB089B5B787F
:10305800252B14D1089AEB720232079214AB5A7AD4
:10306800D10700D47EE102CC0391002900DB7EE188
:103078000421187A01431972039B5B4276E100220E
:1030880001261500100094460392079B1B782B2BF2
:1030980000D191E000D988E0202B00D191E0232BCA
:1030A80000D190E0002A05D014AE327A11004022F7
:1030B8000A433272039A002A04D0202214A90E7AF5
:1030C80032430A72002D04D0102214A90D7A2A4323
:1030D8000A72002804D0082214A9087A02430A7246
:1030E8006246002A04D0042214A9087A02430A720C
:1030F800442014A90A7A1040442802D1402082436F
:103108000A72079A14AD0D928022297A52420A4314
:103118002A722A2B5BD16A7A293B13436B72079B6D
:1031280001331978022608002E384242504114AD66
:103138006A7A4000B24302436A722E2909D15A1CA6
:103148000D925A782A2A52D1697A263A0A436A7223
:103158009B19197814AA6C2972D056D868295DD0A1
:103168006A2979D04C2900D180E05A1C1978079235
:1031780014AA537AD172782900D9EEE06D297CD847
:10318800692900D9E9E0572900D991E0412903D0FC
:103198004539022900D9E0E0072314A98A7A9A431D
:1031A800033B13438B7201239FE02D2B0DD0302B53
:1031B80000D077E7320000E03000079B0133079327
:1031C80063E73500F9E70396F7E7B446F5E70DA896
:1031D800FFF7B6FE0D9B079A9342A2D002212A7AE6
:1031E800E860C00F40008A4302432A7299E70DA89D
:1031F800FFF7A6FE2B7A28619A071043C00F4000FC
:10320800B34303432B720D9BA3E7742929D07A2972
:10321800ABD17821507A884348390DE05878782125
:10322800682806D1507A88437039014351720233B5
:103238009BE7507A8843102101435172013394E788
:10324800587878216C2803D1507A88435839ECE7AC
:10325800507A88431821EFE77821507A884350390B
:10326800EAE77821507A88434039E5E71089B4497C
:103278000840B44901431181E0E7012005006E3997
:10328800C9B28D402900B04D29423DD1242529429B
:103298005AD1014261D00721907A88430439014309
:1032A800917278221340403B5A425341DBB21CE0F2
:1032B80001200D000600583DEDB2AE403500E22673
:1032C8003602354200D067E7A04E35422AD1842124
:1032D80089020D4241D00725917AA9430143917291
:1032E80078210B40402B0BD0002314AA117A8807B1
:1032F800C00F034302205B00814319431172ADE6FE
:10330800137A03431372EFE70721957A8D43053942
:103318002943917278210B40402BE5D1137A184349
:103328001072E1E70725967AAE43053D354395725D
:1033380078252B40402B02D1157A28431072632937
:10334800D2D15A1E9341B1E70721907A88430439B4
:103358000143917278221340F3E7012314AA117AEA
:103368000B43CFE7197A7F290FD9DB68039314AB96
:1033780051070CD504CC0692002A0CDA02215A7A9D
:103388008A435A7201235B4204E0012375E69207DF
:10339800F8D51B690693002514A98B7A4A7A5B072E
:1033A80052065B0F120FCD600D61012B30D1D01E7C
:1033B800042804D8FCF7F4FE0E45450E0E002368D9
:1033C800D81714934860012A09D15BB21493DB170C
:1033D8004B6006E008CC1493DB174B6002E0022A2E
:1033E80014D0043414A90B7A03201D0005400342AD
:1033F80045D0079B089A0599049809F02EFE0028E5
:1034080000DA39E13F18079B089306E61BB2DDE7AF
:10341800022B25D1D01E042804D8FCF7C1FE0D12BA
:103428001219190008CC012A16D014934D609BB2CA
:10343800022AD7D11493D5E708CC14930023159307
:10344800D0E7072307349C4303CC14901591C9E7B0
:1034580008CC14930023C0E7DBB214934D60C1E796
:10346800042B08D1073403339C432068616808346F
:1034780014901591B6E7032BB4D108CCDAE7C87AD3
:103488007828C0D862282BD8252800D1D0E558281C
:10349800B9D11498159926230AAA9B18009316AA3D
:1034A8000EABFFF761FD069B0600002B0DDB262304
:1034B80040200AAA9B1814AA117A9B1B81431172F7
:1034C8000699994201D9CB1A1793002E9BD0262230
:1034D8000AABD218931B0692002D42D0013340E06C
:1034E800633815288FD8FCF765FE330069008EFF16
:1034F8008EFF8EFF8EFF69008EFF8EFF8EFF8EFF80
:10350800A2007B007D008EFF8EFF16008EFF7B00E1
:103518008EFF8EFF7B00069B149E002B0CDB190090
:10352800300004F099F9002E00D16CE733180693A7
:10353800069B00259B1B14E0300004F05FF9F5E7BB
:10354800FD87FFFF02400000820400000108000020
:103558001123149A0EAE32700AAA9B1806930025FE
:10356800012314AA927A1021100008400B900A42F5
:1035780078D0023317990A91CB18520601D5189AB8
:103588009B18039A002A00DC87E0D31A039314AB34
:103598001B7A5A07D10F0891002A00DA7DE05B06F2
:1035A80000D46BE0002D07D028000599049B9847AC
:1035B800002861DB089D0137302360E02B251A07BE
:1035C80002D4DB06DB0F5D01149A159B002B00DB90
:1035D8005FE70021504299412D251490159158E735
:1035E800002556E7149814AD002835D026230AAADA
:1035F8009B18009316AA0EAB0021FFF7B5FCEF232A
:103608006A8906001A40484B13436B810025069BC4
:10361800AB4200DB4BE7A84200D1F4E626230AAA16
:103628009B1826220AA952181B1A069299E7149B7E
:10363800072A00D9E7E61000FCF7B2FD0C04060CD7
:1036480008080C0C1F70DEE61F80DCE6FA171F6006
:103658005A60D8E61F60D6E6344B05000693344E10
:1036680005237EE71107C90F5B1883E705990998B9
:10367800049B9847002805DA1BB0F0BD2023099366
:10368800039B0893089B1A00013A0892002BEDDC73
:10369800039AD719FF1A089B0393002D06D0280018
:1036A8000599049B98470028E6DB013714AB9B7A01
:1036B800DA0601D41B0706D530200599049B9847E4
:1036C8000028D9DB01370B9B002B07D014ABD87A25
:1036D8000599049B98470028CEDB01373D0006E09A
:1036E80030200599049B98470028C5DB01350A9BC3
:1036F800DB195B1B002BF3DC3200069B0599049851
:1037080009F0ABFC0028B7DB47193D00039B5B19A8
:10371800DB1B002B00DC76E620200599049B9847EC
:103728000028A9DB0137F1E7107800006FF00010DE
:103738006AF00010F0B585B001902F48039109F0A8
:10374800ADFC061E0AD1040001272C4D2C4B9D42CE
:1037580006D3019B002B01D0002C1FD105B0F0BD72
:103768002B7B002B10D02B68DB68002B01D02800A6
:1037780098472B681B69002B08D16B680422280026
:10378800196800F0C5F801361035DFE728009847BA
:103798000028F2D03B00B3401C43F4E72700200088
:1037A800FCF7CCFD01238340DA43144E05019C430A
:1037B800731901931B7B0292002B0CD0AB591B6928
:1037C800002B13D1029B76191F40736804221968D5
:1037D800019800F09DF8002CE1D1039B002B03D049
:1037E8006420002102F0B6FD3C00B5E70198984737
:1037F8000028F0D1E6E7C046A4230020FCE1001031
:103808000CE20010014B8000C0587047A0E3001084
:10381800030010B50800002B05D0044A136000F01F
:1038280079FA002010BD16204042FBE780070020EF
:103838000023FA21054A10B51370054A054813609C
:10384800054A89001360FFF7E3FF10BDF22400204A
:103858009C23002095D00010A023002070B50C4DAB
:103868002978002908D10120FFF764FF094C0A4B89
:103878009C4202D301232B7070BD63685B79002BD7
:1038880003D0236820009B6898471034EFE7C046B0
:10389800F2240020FCE100100CE2001010B5040036
:1038A800044809F0FBFB002C03D0012102480AF070
:1038B80003FB10BD9C230020A023002070B50A4BF9
:1038C80005001B689847094CA860094B9C4200D327
:1038D80070BD63685B79002B04D023682900200041
:1038E8001B6898471034F0E780070020FCE10010BF
:1038F8000CE20010044B054A00209B1ADB08994291
:1039080001D2C90088587047FCE1001094E100100A
:10391800084B10B5C31A44681B110133237143685F
:103928009A7101224368196043685A7109F0CFFB04
:1039380010BDC046FCE10010F0B50400002087B0BF
:1039480002AF7B603B6B0E001500834207D07B6B98
:103958001021FB6000933B6BFA6AFFF703F907221B
:10396800230015401340DB001549AD011D434302F8
:103978000B401D43BC6ABB6A17341B051D43231843
:1039880093430333043A93430733D34093406A463F
:10399800D31A9D463B6B02AC002B08D001002000D7
:1039A8007B6B103000933B6BFA6AFFF7DBF82A0059
:1039B800310020007B6809F08DFBBD4605B0F0BDE5
:1039C80000FE0F000EB417B5054C05AB04CB010083
:1039D8002000019309F0BFFB1EBC08BC03B01847C8
:1039E8000FD1001010B5CB0604D4890603D50349BE
:1039F800FFF7E8FF10BD0249FAE7C046512601105B
:103A080050260110F0B58FB0069314AB1B78060052
:103A18000C0008920593002B00D19CE00225189B0E
:103A2800189A1D4001231A400A92189A07331A401F
:103A38000B92002709F04CFB0200B84204D030007A
:103A48008449FFF7BFFF0700002D09D04423189AC7
:103A58001A4244D1220030007F49FFF7B3FF3F18D4
:103A68000A9B002B0AD0059A7C4B9200D258002A58
:103A780000D17B4A30007B49FFF7A4FF00240B9B51
:103A8800A34208D0059A784B920030007749D25863
:103A9800FFF798FF0400089B002B05D01A003000A0
:103AA8007349FFF78FFF2418069B002B05D01A00D7
:103AB80030007049FFF786FF2418159B6E48E719F8
:103AC800002B00D09CE0179B002B51D1189BDB07E3
:103AD80000D5B8E030001899FFF784FF9CE000207B
:103AE800664B1D688542BAD0654B20001968FCF703
:103AF8006BFB2900FCF7A4FB0C00E12109010790EE
:103B0800FCF79EFBFA208000099160432900FCF72E
:103B180097FB0C000C903C210998FCF755FBE12120
:103B28000D9009010798FCF74FFB0790FA208000D9
:103B380029006043FCF748FB0C9B02903C21099844
:103B48000193FCF77DFB300000910D9B079A4D49CE
:103B5800FFF738FF83E7069B4B48012B00D1464807
:103B6800159B059F002B4BD1179B002B54D000278A
:103B7800179D102D00D9102530001899FFF732FF36
:103B88000024A7424DDC169B30001A783F49FFF706
:103B980019FF012407231C4203D130003C49FFF7D9
:103BA80011FFA54243D9169B30001A5D3749FFF72C
:103BB80009FF0134102CEDD1002430003549FFF7FE
:103BC80001FF23006821169AD25C334B9B5C8B4320
:103BD80000D12E2230003149FFF7F4FE0134102CB9
:103BE8002AD007231C4203D130002949FFF7EAFEF7
:103BF8002300A542E6D830002549FFF7E3FEEDE7AC
:103C0800159B3200264909F0F1F8179B002BAFD11C
:103C1800059B002B00D059E7300009F0A2FA0FB03D
:103C2800F0BD30001A49FFF7CDFE0134A9E7300096
:103C38001C49FFF7C7FEBCE7169B5B191693179B39
:103C48005B1B1793E2E73000054A0649FFF7BAFE07
:103C580040E7C046582601105C260110B0E300106A
:103C68005326011081260110C4E300108426011098
:103C78008A2601108E2601100FD10010AC230020D7
:103C8800A82300206526011027D1001093260110D3
:103C98009B2601109D260110DDE500109F260110CE
:103CA8005FD1001099260110F0B50B8889B0DB05AB
:103CB8005C0F4B680F0015008E680790002B0CD026
:103CC800134A9A1AD208002311B2120405D438787C
:103CD8008006400FFFF70EFE03003A003968788827
:103CE80009030009490D103284465718481E8141BE
:103CF80049420A4061460192039100223100079827
:103D0800049502970094FFF77DFE09B0F0BDC04608
:103D180094E10010012310B500211C00074A9042CD
:103D280007D8074A002900D101231360054B186002
:103D380010BD210040085B00F1E7C04640420F007B
:103D4800A8230020AC230020014B002019607047F5
:103D5800C4230020012210B5024B03481A7009F051
:103D680000FA10BDF4240020F4E3001010B5054B50
:103D78000C001868FFF746FD0F22030021000248D7
:103D8800984710BDC4230020F4E3001070B50D005F
:103D980004004618B44201D1280070BD21780348B8
:103DA800013483685B689847F4E7C046F8DF001081
:103DB800014910220A60704710ED00E0BFF34F8FF1
:103DC80030BF62B6BFF36F8F7047C046F0B50700CB
:103DD8000D0087B0002939D000248B681E4E05934A
:103DE8004B68012204930B68200003931B4B31009E
:103DF800029301942300009409F0C0F96B69012231
:103E080005932B6931000493EB6820000393144B4E
:103E1800019402930094230009F0B0F9EB690122A0
:103E28000393104B31002000029301942300009467
:103E380009F0A4F9AB69012203930B4B31000293FB
:103E4800200023000194009409F098F92900380013
:103E580001F0F2FC07B0F0BDDCE10010DC26011037
:103E68000B2701103A2701104927011043B2000619
:103E780005D41F221A4001239340014A136070475A
:103E880000E100E030B5FF2503220B00290040B215
:103E98000240D20091405B012B40C9439340002867
:103EA8000ADBC0240A4A800880008018A40002594E
:103EB8000A401343035130BD0F2210400838054A09
:103EC800800880008018C26911401943C161F2E777
:103ED80000E100E000ED00E030BFFDE7FF22084B05
:103EE80010B59343074A9360BFF34F8FBFF36F8FAB
:103EF80001F04CFD02F0BAFA00F03AF901F086FD43
:103F08000001001000ED00E0084A094993680968BB
:103F1800D8661967802307495B05486803434B60E7
:103F280062B6BFF36F8F9368186F704764240020E0
:103F38006CE5001000ED00E013498A68134810444E
:103F4800EFF3098CF0C043464C4655465E4667463B
:103F5800F8C072B60E4F0F4E4A698A603E60D06E46
:103F68000023D366002800D162B6084C101910301F
:103F7800F8C89846A146AA46B346BC462438F0C8B5
:103F88008CF309887047000064240020300000008A
:103F980004ED00E00000000804207146014202D050
:103FA800EFF3098001D1EFF30880816902390978BC
:103FB8000229FFD001B509F0F0F801BD10B5203A8B
:103FC8001360029B01245360039B06499360049B82
:103FD800A143D36080235B04D36100239161026510
:103FE800C36610BD77CE0010064B9860101C81F395
:103FF8000988002162B6BFF36F8F0022002308F002
:1040080036FFC0466424002001B5EFF3058005495A
:10401800401AC0000449014409C9984709BC9E4692
:10402800024908471000000088E0001039400010DD
:10403800044B99685869884202D00349034A0A60C8
:10404800704700006424002004ED00E00000001028
:10405800F0B5384B91B05F680400FB05DB0D0793A2
:1040680062B6BFF36F8F344E130EFF2B0DD1F33BA7
:104078001340082B3FD10020304B0122029331001E
:1040880003000190009009F09AF800252C00079B86
:10409800032B36D100272A4B0122029331003B0023
:1040A80038000197009709F08AF8A369023B1A883B
:1040B800244B9A4239D1236831000393224B0122C1
:1040C800029338003B000197009709F078F82668BA
:1040D8002022210008A803F0C1FA0F9B002D26D04A
:1040E800DA0502D1194A13430F93300008A9FFF7E4
:1040F8006DFE11B0F0BD01251207C8D50C000025D2
:10410800C5E7F8235B00124A1F4200D0114A00207D
:10411800079B0392103B04930F4B0122029331003B
:1041280003000190009009F04AF80026D0E75B0AE6
:104138005B02D9E700ED00E0DCE10010A5270110E3
:10414800D027011002DF0000E7270110FF0100005F
:10415800772701108C27011003280110EFF308803E
:10416800EFF3098101B57246FFF772FF01BDC04642
:10417800F0B5C02400220326FF25A40010002F005C
:104188003040C0008740054993089B005B181959C7
:104198000132B94319511A2AF0D1F0BD00E100E00B
:1041A80072B607480749401880F30988EFF314806E
:1041B8000221084380F31488BFF36F8FFFF78EFE48
:1041C800002500200008000010B50A4B9B688342B8
:1041D8000DD1EFF30583002B09D08022064B520541
:1041E80059680A435A605A6A04490A405A6202F0F6
:1041F800CFF810BD6424002000ED00E0FF7FFFFF32
:10420800014B18607047C0468807002070B506004B
:104218000D000024AC4208DA054B1B68984730555E
:1042280001340A2801D00D28F4D1200070BDC04601
:1042380084070020F8B506000D000024AC4201DB1D
:104248002800F8BD335D054F0A2B02D10D203B68CD
:104258009847305D3B6898470134EFE788070020AE
:1042680010B505210148FFF7E5FFFEE71628011004
:1042780010B5074C07492368C2180748091A8A422B
:1042880002D21818226010BD01204042FBE7C04648
:10429800C823002000200420007600200E4B0F4A7F
:1042A80070B51A600E4D0F4B0F4C2B601900A268A9
:1042B8009143FBD101F07AF80C4B2B60A368DB012A
:1042C8008033FBD1EFF3108372B6002B02D162B6B4
:1042D800BFF36F8F002070BD00E00040BFCDFFFF2F
:1042E80000F00040FE3F3C0000C00040FFFFFF011F
:1042F8001FB540680A790078D306DB0E98420ED8BD
:10430800002003931A4B012202931A4903000190DB
:10431800009008F0B2FF8620404204B010BD4888E3
:1043280000280BD00020144B12490293030001907F
:104338000090012208F0A1FF1620EDE720241300C9
:104348002340224209D00D4B012202930949030060
:104358000190009008F091FFDDE70A781800082A1C
:10436800DBD0074A0349029201930093E1E7C04674
:104378002028011094E100103C2801105A2801104F
:1043880078280110020070B5031DDB6FB43213608A
:104398000300AC300168B033196080210C4B09016F
:1043A8001960802104250B4CC90019601D6021602B
:1043B8001068FDF733FF084B01381B6800035840AD
:1043C800E023DB011840054B1860256070BDC0462E
:1043D80008E0044000E0044000C0044000D004406D
:1043E800F0B5076987B03B00403304000D001600A4
:1043F800059301225242D317059801F0D7FC3300E8
:104408005A1E93413A007832137004927E672B7CCF
:104418006268591E24690B2910D9039349494A4BEC
:1044280000200293012203000190009008F025FF6C
:1044380086246442059801F097FC6BE06F68167853
:10444800002F1FD10122013EB24000233A4201D081
:104458000133DBB25208F9D12A685B00002A02D086
:10446800928901325343EA689A4216D20020374BA8
:1044780001220293334903000190009008F0FDFEE9
:104488000C24D6E73800FBF73BFF20231B1AB34266
:10449800D8D92C492E4B0397C2E72300AA68AC331E
:1044A8001A602A00303B43CA43C3002603CA03C329
:1044B80026672B68B34230D0250090352A0083CB7D
:1044C80083C21B6813602300A033E5671E802B6836
:1044D800B34222D03100200009F0FBFC31006322F6
:1044E800002328688018594164220023FBF746FFFF
:1044F80000902000002200230191083002F080F98A
:10450800230078331B78002B0BD0049B1C78002CDD
:1045180090D00024200007B0F0BD2000FFF732FF44
:10452800EEE7200001225242D317583001F03EFC3A
:10453800049B246F1B78002B00D17BE7002C00D054
:1045480078E7E6E794E100108A280110C9280110ED
:10455800A42801108021F8B53E4D04696A682B68CB
:1045680092B25B045B0F4900AE680E420DD0296819
:10457800890514D5230078331B78002B07D0052133
:104588004942200008F09EFE44E0EE68ECE705236F
:104598005B4223672000583001F0E6FB3AE0260032
:1045A800AC3631688F1C37600A80012221009A409E
:1045B800B4310B6893430B603BD1E36F002B31D0D0
:1045C80023002500270094331B68A0352A889037DC
:1045D800002B05D03839984701280AD002281AD06C
:1045E80022009C322B8812889A4214D901332B80DE
:1045F80003E02300B0331B6833603B68002B03D112
:104608002000FFF7BFFE05E00121200009F054FC5F
:104618000128F5DCF8BD3B68002B03D020000830EA
:1046280009F024FC230078331B78002BB2D000213A
:10463800A7E71800FDF7F2FD01382B68C0B20003A8
:104648005840E0230422DB011840034B1860034B59
:104658001A60DFE700C0044000D0044000E00440D6
:1046680010B5436804695B6898470E4B1A680E4B8F
:1046780053400E4A13400E4A136000220D4B1A6134
:1046880001321A60FF3219681142FCD001229A6186
:10469800A36C002B03D12000403001F065FB002003
:1046A80010BDC04608C00440070000010F00000FFD
:1046B80008D0044000C0044010B5084809F069FA61
:1046C800002808D0064C2000FFF79AFD2000FEF7CE
:1046D80031FC002010BD13204042FBE7F8DF00103A
:1046E800ED46001070B50400074D0A2804D1AB68E8
:1046F8000D2128005B689847AB6828005B68E1B229
:104708009847200070BDC046F8DF0010080010B5BB
:104718000C00032200210D3002F0E8FF034B0122B8
:1047280023600423A2606360237310BD80004000EF
:104738001FB50020064B0190029300900300012250
:10474800044908F0CBFD8620404205B000BDC046B4
:10475800F4280110F4E100101FB50024064B2000D6
:1047680002930122230005490194009408F0B6FD44
:10477800200004B010BDC046F4280110F4E1001078
:104788001FB50020064B01900293009003000222FF
:10479800044908F0A3FD8620404205B000BDC0468C
:1047A800F4280110F4E100101FB5002004290AD0F4
:1047B800064B01900293009003000122044908F07F
:1047C8008DFD8620404205B000BDC046F42801108A
:1047D800F4E100101FB50020064B019002930090F1
:1047E80003000122044908F079FD8620404205B003
:1047F80000BDC046F4280110F4E10010F0B58C4665
:1048080005001989988887B081420DD229492A4B19
:1048180000200293012203000190009008F05EFD41
:104828000120404207B0F0BDDF881B683C004443CC
:10483800E4109C4200D91C000C9B002B01D0002CDA
:1048480002D11C491D4BE3E7814202D919491C4B8F
:10485800DEE7072316001E401A4202D01549194BFD
:10486800D6E7202304A90B8001338B7063460138F7
:10487800DBB2CB701B180B7122234B71D308D219F2
:10488800D210013A8B71CA7101230822686808F0B6
:1048980033FD031E08D00C4B012202933000330075
:1048A800044901960096B9E722000C99686808F057
:1048B80023FDB7E7F4E10010002901101C290110BD
:1048C8003C2901104D2901106029011007B5054B3D
:1048D80001A91B7840680B7001231A0008F00CFD31
:1048E8000EBDC0467829011007B5054B01A91B78F4
:1048F80040680B7001231A0008F0FEFC0EBDC0468C
:104908007A290110F0B5456804008BB0286809F0D1
:1049180040F900280ED12B6801221B6854490393E3
:10492800544B019002930090030008F0D7FC162521
:104938006D423BE0A868002817D14F4B656807AE69
:104948003380AB68002B38D12000FFF7BFFF002869
:1049580045D00020494B01220293454903000190AC
:10496800009008F0BBFC0525E2E7297BEB8982680B
:10497800944602690492DD071BD4B0256D032B43CE
:104988000126049A3E4D17681D408E400595012268
:104998003D00B543134201D03D003543049B059AC1
:1049A8001D6063461B689847051EC6DA28000BB0D1
:1049B800F0BDD0256D036B40E2E7002108350A20E1
:1049C80001F0C8FC0121280008F0BDFC00210A20E4
:1049D80001F0C0FC0021280008F0B5FCB4E708ADE0
:1049E80006222849280002F039FE01230622290060
:1049F800606808F081FC0028ABD107222249280012
:104A080002F02CFE012307222900606808F074FCDC
:104A180000289ED11D4B02222B80290001236068AB
:104A280008F06AFC002800D093E703221849280000
:104A380002F014FE012303222900606808F05CFCE0
:104A4800002800D085E7012302223100606808F0C1
:104A580053FC002800D07CE78021200008F067FC88
:104A6800051E00D075E72000FFF73EFF9EE7C04611
:104A7800F4E100107C290110A4A6FFFF952901107C
:104A8800FFFFEFFFB229011030E20010A1C8FFFFBD
:104A9800B9290110F7B50600002403690193E3085A
:104AA800144A08339B009B58072222409200D340A7
:104AB8000F22134203D101341E2CF0D1F7BD0F2170
:104AC800200000F0E9FD019B59680029F3D0012777
:104AD800A7400D680029EED08B681A003A403B4287
:104AE80002D030004B6898472B1E00D02B68290055
:104AF8001D00EFE7004101407FB50BAB0593002097
:104B08000393054B01220293019003000090FEF7E6
:104B180013FF07B000BDC046E2290110F0B5466892
:104B280087B0050004690021F06805AA08F07CFE3A
:104B380000281FDB059B00221979186808F087FEFA
:104B4800002817D1012201005242200009F071F813
:104B58002000183009F066F801216B681B68DA6ECE
:104B68008A43DA661A00FC3211681E4A914203D061
:104B78000520404207B0F0BD06271B6828003B40CF
:104B8800063B5A42534122004332137073689847D8
:104B9800B368154A934213D01DD8144A043F934270
:104BA8000ED0134A023793420AD00027114B012234
:104BB800029338003B00104901970097FFF79CFFCC
:104BC800102139432800E16208F0DBFC0028CFD12E
:104BD80040342070CEE7094A08279342F0D0084AAB
:104BE800E0E7C0464001574440420F00A08601005C
:104BF800801A0600E2290110BCE1001040E13300F0
:104C0800404B4C00F0B5002587B007000291039295
:104C18000593AA4200D1B6E0436804691B68019372
:104C280023001833049301225242D317049800F04A
:104C3800E9FF051E00D0A6E00122019B1B6F13426D
:104C480000D0C7E02100082340310878184200D07E
:104C5800C0E0087803430B707B6839691B68D86E1D
:104C68009043D8661D63186CC86AC70602D4162517
:104C78006D4282E06127104200D0183707224008B1
:104C88000240460700D581E00626304200D08CE07D
:104C9800012AECD1C88F9861888F5861062052008C
:104CA8008743174300221F609A63DA635A681868BB
:104CB800C00700D47FE00598920A8005800D920213
:104CC8000243C96AC80605D5C90700D476E0802121
:104CD80049010A4301275A60019B019ADB6E3B4355
:104CE800D36623000026029A42331268187822639A
:104CF800029A51686163127A50401A70A66338426A
:104D080002D0042002431A70039A012A03D11878AA
:104D1800013202431A702300032040331A78824379
:104D28001A70220042321278100038403A4248D1B4
:104D38001A783A431A70230041331870019B1B6894
:104D48003B4244D0254B019A136301225242D317A8
:104D5800200001F02BF82300042240331B78134273
:104D68003AD1636B002B37D1029B0C330293039B20
:104D7800013BDBB20393002BB3D1002340342370F3
:104D8800049800F0B7FF280007B0F0BD042A00D04F
:104D98006DE70A0043321278002A00D167E7CA8F0C
:104DA8009A628A8F5A62032278E7CA8F1A628A8FB8
:104DB800DA61022272E70598986082E708490A409A
:104DC80088E70222187802431A70C8B2B3E798231A
:104DD8009B00B8E710254BE7052549E75F0200006F
:104DE800FFEFFFFF7FB50BAB059300200393054B47
:104DF80001220293019003000090FEF79DFD07B089
:104E080000BDC046112A0110F0B5456887B00021E1
:104E1800E86905AA08F008FD041E07DB059B0022C7
:104E28001979186808F013FD041E0DD000201C4BDA
:104E3800012202931B490300039401900090FFF79D
:104E4800D1FF200007B0F0BD210017482B1D142208
:104E5800164F4A43BC46944400266746124D01311A
:104E680055192E603E60124FBC46944467463E601A
:104E7800104FD219104F176010226A602E601A78EE
:104E88005E78120132436A60012502680333954354
:104E9800802252010243156014300829D7D1D0E787
:104EA800112A0110E4E10010000005400800054047
:104EB8000C00054010000540FFFF0000F7B508ACE6
:104EC800248800930F2943D88026551E7602B542C0
:104ED8003ED2B3423CD201260D003540019514253F
:104EE8004F087D43406834400068401903680068F3
:104EF800314228D09908314020000C00C000A4009D
:104F080004430C201449013A0B0069180E6892B248
:104F1800744004408020400101430C60142179430F
:104F2800C9180E4B0A61ED18019B002B0ED0009B8F
:104F38000B4A1B040093296805430020009B4B4043
:104F48001A402A60FEBDC0083040D7E7054AF2E79C
:104F580016204042F6E7C046000005400C00054018
:104F68000000FFFFFFFF0000F8B515004A080F29F1
:104F780025D8032353434468E4186079FBF720FBE2
:104F8800FCF754FE00220F4BFCF7C8F80600207906
:104F98000F00FBF715FBFCF749FE02000B00300081
:104FA8003900FBF749FBFCF783FE011C0648FBF7B9
:104FB80025FAFBF703FA286069600020F8BD16207F
:104FC8004042FBE70000B03F286BEE4C43680349C2
:104FD8005A68936B0B4093637047C0463FF8FFFFD6
:104FE80010B5032B23D8012A02D0032A1FD1013A76
:104FF80002291CD80468013A0E485B01D200415CC2
:105008001A43200000232C30994205D0023301397D
:105018001A434B4259418B001A436E23E16A4A40B6
:105028001A4080235B01034300201A6010BD16203C
:105038004042FBE76E2A0110F0B5456885B02B6841
:10504800040006690021A86803AA6F68019308F0A4
:10505800EBFB002823DB039B00221979186808F072
:10506800F6FB00281BDB3168019800F07FFB002865
:1050780017D00D4B30607360012203230021606854
:10508800FFF7AEFF3A00C0232C329B0113430026E2
:1050980010221A603E6020006B699847300005B006
:1050A800F0BD16204042FAE70001030030B50A4B74
:1050B8000A4A986819680A4D9C68C90301D4A04235
:1050C80004D211682868091811601B682B681068D9
:1050D800C018001B30BDC04610E000E02C240020A2
:1050E800382400200020094A136A1B021B0A136295
:1050F800074B084A1A60084B1860084B5A60072289
:10510800986019680A431A607047C04600ED00E0CD
:1051180038240020D33000002C24002010E000E0C8
:1051280070B5FFF7C3FF0B4B0B4A186811680B4C9F
:1051380040181060002225681A600949401BFBF7D7
:1051480043F8074B43435B19236001F061FAFEF70C
:105158006FFF70BD2C240020342400203024002050
:10516800D4300000F0B5324D324F85B0002954D00C
:10517800431C08D101222B6893432B60FF231B0695
:105188003B6005B0F0BD3B6801930026012804DDB3
:10519800294B1E00984200DC461EEFF3108372B6BE
:1051A8000393FFF783FF0022AB680293234B1C682D
:1051B800234B04191A60234B1B680093E01A904292
:1051C80031DB214B214A5E43801919008018FAF718
:1051D800FBFF1D4B5843009B1B1B18188023DB004B
:1051E800984223D91A4B984220D8002338600138B6
:1051F800A9686860AB60029B02985B1A1A1988421A
:1052080002D2019A9B181A190C4B1A60039B002BA7
:10521800B7D162B6BFF36F8FB3E73B680193431C06
:10522800B3D10548B8E78020C000DEE71800DCE706
:1052380010E000E0382400203D0500003424002060
:105248002C24002030240020D4300000D33000006B
:1052580084C6FF0010B5EFF3108472B6FFF726FF7F
:10526800074B084A1B6812689B1A1818002C02D1B1
:1052780062B6BFF36F8F0449FAF7A6FF10BDC046A8
:105288003424002030240020D430000010B5EFF37F
:10529800108472B6FFF70AFF044B1B68C018002C75
:1052A80002D162B6BFF36F8F10BDC0463424002010
:1052B800F0B585B001920A9A05000F00934205D215
:1052C8002D21354B354A364801F0DEFE0C241A0EE6
:1052D8001B02039202930A9A002302980399FBF790
:1052E8004DF86C432F4B0600E4186368834200D2E4
:1052F80060602B1FDBB20093C023009A9B012343FD
:10530800012A1BD8012F19D103221A60A3683B4236
:10531800FCD0019A236852015A40E0231A408023A6
:105328005B0123431A60032122687A400A401A600D
:105338000123BB40A2681342FCD01AE0802212016C
:105348001A60194BAA00D158002905D05869FAF7F4
:105358003BFF01300138FDD1019A236852015A40C0
:10536800E0231A4080235B0123431A60009A012A34
:10537800D9D9802380229B01234312011A60029805
:105388006660320000230399FAF7F8FF064CAD0077
:105398006051012005B0F0BD7F2A0110D92A011003
:1053A800902A0110008000403C24002073B50C2096
:1053B80000F00EF900F014F900280AD000232C4A56
:1053C8002C489900013350500A2BFAD12A4B5362CA
:1053D80073BD2A4DA86700F0E7F80122284B1A6030
:1053E8006B6C012BFCD10322264B1A60AC6B012C91
:1053F800FCD102250526210000950623224A2348D0
:1054080000F054F833002100214A2248009600F0A9
:105418004DF8214B2900214D009300220420FFF76D
:1054280047FF2B002100002230000095FFF740FFC6
:105438000022104C1100230000940720FFF738FFCA
:1054480000222300110000940820FFF731FF0022FA
:10545800094B1100009309202300FFF729FF0022C0
:105468002B00110000950620FFF722FFB0E7C04689
:105478003C240020006CDC021BB7000000800040C8
:105488003CB0004030B00040002F68590080024016
:10549800008C864700C00240001BB70040597307C4
:1054A800014B8000C05870473C240020F8B5170015
:1054B80004000C201E000D00FAF786FE2E4BFA1889
:1054C8002E4B9A4205D911212D4B2E4A2E4801F018
:1054D800DBFD2E4941433800FAF776FE0200982397
:1054E800103A5B009A4204D91921294B254A2648CB
:1054F800EDE7731E062B03D8069B013B062B04D948
:105508001C21244B1F4A2048E1E7069B32041E0356
:1055180023681643002B0FDA3F2223681340AB425F
:105528000AD1A3681B051B0D834205D1EE22E3684F
:10553800D2021340B3421BD0174B9C4219D0802390
:105548005B01164A16491360164A13601F008A68E1
:105558009743FBD1C023221D9B01134321222560C1
:10556800A0601A602268002AFCDA0822E6601A6045
:10557800F8BD80239B01E4E780E84BD380F8A9328B
:10558800E92A0110FA2B0110522B011040420F009A
:10559800952B0110B12B011000C0024000E0004023
:1055A80000C0004000F00040AA22064B12011A6019
:1055B8002F220549DA60054A11605A68002AFCDA88
:1055C8007047C0460040024000B0FA000060024048
:1055D8008023024A9B000343D36270470080054042
:1055E800024B18688007C00F7047C04600C00640CD
:1055F800084B8200D218402310B51468C0006340DD
:10560800C02423408024640122431360024BC01845
:10561800416010BD04C0014000400140074B8000BC
:10562800C0180368C90092000A435A400C231A4064
:1056380080235B0103431A607047C04604C00140E1
:10564800054B8000C01802228023002900D1C02306
:105658009B0103431A60704704C00140054B80005A
:10566800C018036859400123194080235B01034394
:105678001960704704C00140064B8000C0180368D9
:10568800090159403023194080235B010343196005
:105698007047C04604C001400722C308104080007C
:1056A8008140024A3C339B009950704700400140BA
:1056B800F8B5D0231B061C68050063425C412F2304
:1056C80064429C430A4B0F00E4181600FFF7E4FFFE
:1056D80007232B40ED089B00AD009F4064198023F1
:1056E800002E00D1C0239B0123431F60F8BDC04694
:1056F80030410140054B8000C0184022802300291A
:1057080000D1C0239B0103431A60704704C00140C5
:1057180070B5060006200C00FFF7C2FE2100C0008D
:10572800FAF752FD0124C50907D00E4B9D4215D842
:105738007F23184000192C0045088023002274623A
:105748009B01B5622C3633431A600620FFF7A8FE8A
:10575800A10149198000FAF737FD70BD0025024CF8
:10576800EBE7C046FEFF0000FFFF000070B5040035
:1057780006200D00FFF794FE00282ED0194B9C42FE
:105788002CD08023DB03184A18491360184A136089
:1057980018008A689043FBD1164B174AE318594200
:1057A8004B4180215B004900995220002900FFF7F6
:1057B800AFFF6023E26A210053406E22134080222B
:1057C8002C3152010A4313600C4B102223638023AF
:1057D8009B010B431A600323A36470BD80231B0441
:1057E800D1E7C0460080034000E0004000C0004010
:1057F80000F000400080FCBFD4240020010300001A
:10580800014B986864307047642400201FB5040079
:10581800FEF724F80020064B019002930090030045
:105828000122044908F0C2F9200008F0CEF9C04668
:10583800032C0110DCE10010F0B506000F0089B060
:10584800EFF3108372B6079300F09CFD264B05001A
:10585800042E02D8254BB200D3580024244A0493BE
:10586800244B0692029301222300200006990594F6
:1058780003960194009408F099F9A7420DD0FB69AA
:10588800DB05A34209D01C4B012202932000230010
:1058980006990194009408F089F9002D07D0280092
:1058A80008F0A8F9002802D00378002B00D113488B
:1058B80004900020124B01220699029301900300E4
:1058C8000090039508F072F939003000FFF79EFF49
:1058D800079B002B02D162B6BFF36F8F2800FEF73B
:1058E80073FC09B0F0BDC046122C011070E5001021
:1058F800DCE10010282C0110502C0110202C011084
:10590800712C0110F7B50127124E830001309C5904
:1059180083000193019BF358A34200D8F7BD656843
:105928002368002D13D0002B0BD02800984700289F
:1059380007D0C2178018EB685040FF2800DDFF2011
:105948001870EA6853783B4353700834E2E7984785
:10595800FBE7C04684E5001010B50124094B03207D
:105968001C70FFF7CFFF01F007F80420FFF7CAFF0C
:1059780000F000F9FCF726FE034A137BA3431373D8
:1059880010BDC046F72400203022002010B5034A7D
:1059980003480021121A08F01CF910BDFC2400204D
:1059A800B021002070B57826012504004643010285
:1059B800114880220918002086B004950E350395F9
:1059C800053565430D4B0590029001900C48F6187B
:1059D8002D180C4B30000095520000F075F8042289
:1059E800737B2C74934373730134074BE402E418FC
:1059F800EE606C6006B070BD002D0020B82100205C
:105A08006424002009DC001000250020F0B50020E7
:105A1800A5B0FFF777FF244B83F308882349244B6D
:105A28000A6A1A40E0231B0413430B6207F0D6FBF3
:105A3800FEF7BEF9FDF7FCFE02236A46FF3306A80F
:105A4800938400F093FF1B4D06ABAB6008F0A0F801
:105A58000120FFF757FF0220FFF754FF00F0EEFB8D
:105A6800154C164B6C618022002505930123144EBA
:105A780014490493D2003300200003950295019540
:105A8800009500F021F804220700637B200093436F
:105A9800637308F01BF92800FFF784FF3200390010
:105AA8002000FEF7A1FAC046002D002000ED00E01E
:105AB800FFFF00FF6424002030220020D32C0110B7
:105AC80061590010002E00207FB504005830A065F1
