:020000041000EA
:1000000000B5324B212058609868022188439860DF
:10001000D860186158612E4B002199600421596104
:100020000121F02299502B49196001219960352056
:1000300000F044F80222904214D00621196600F024
:1000400034F8196E01211966002018661A6600F04E
:100050002CF8196E196E196E052000F02FF8012189
:100060000842F9D1002199601B49196000215960AB
:100070001A491B48016001219960EB211966A021F2
:10008000196600F012F800219960164914480160C1
:100090000121996001BC002800D000471248134993
:1000A000086003C880F30888084703B5996A0420EC
:1000B0000142FBD001200142F8D103BD02B5186610
:1000C0001866FFF7F2FF186E186E02BD00000240BE
:1000D000000000180000070000035F00212200005C
:1000E000F4000018222000A00001001008ED00E03C
:1000F000000000000000000000000000070B8FD58A
:10010000F00E0020A1330010FF4C00105D330010F2
:1001100000000000000000000000000000000000DF
:1001200000000000000000000000000099310010F5
:1001300000000000000000003931001055380010A8
:100140000932001009320010093200100932001083
:100150000932001009320010093200100932001073
:100160000932001009320010093200100932001063
:100170000932001009320010093200100932001053
:100180000932001009320010093200100932001043
:100190000932001009320010093200100932001033
:0801A0000932001009320010C1
:1001A80002B4714649084900095C49008E4402BC02
:1001B8007047C04603B47146490840004900095ECB
:1001C80049008E4403BC7047002934D00123002223
:1001D80010B488422CD301242407A14204D28142BE
:1001E80002D209011B01F8E7E400A14204D28142CE
:1001F80002D249005B00F8E7884201D3401A1A434B
:100208004C08A04202D3001B5C0822438C08A04281
:1002180002D3001B9C082243CC08A04202D3001B37
:10022800DC082243002803D01B0901D00909E3E7B1
:10023800100010BC704701B5002000F00BF802BD9B
:100248000029F8D003B5FFF7C1FF0EBC4243891A55
:100258001847C0467047C0468446100062468C4620
:100268001900634600E0C0461FB500F077FD00287E
:1002780001D40021C8421FBD10B500F0B7FC4042B0
:10028800013010BD10B500F069FD002801DB002029
:1002980010BD012010BDC04610B500F05FFD00285C
:1002A80001DD002010BD012010BDC04610B500F0D2
:1002B800DFFC002801DC002010BD012010BDC04675
:1002C80010B500F0D5FC002801DA002010BD01208F
:1002D80010BDC0461C2101231B04984201D3000C09
:1002E80010391B0A984201D3000A08391B099842A1
:1002F80001D30009043902A2105C40187047C046B7
:1003080004030202010101010000000000000000D6
:10031800414208401C2101231B04984201D3000CD0
:1003280010391B0A984201D3000A08391B09984260
:1003380001D30009043902A2105C401A7047C04674
:100348001B1C1D1D1E1E1E1E1F1F1F1F1F1F1F1FC4
:10035800002B11D1002A0FD1002900D1002802D08A
:100368000021C943080007B4024802A140180290BE
:1003780003BDC046E1FEFFFF03B4684601B502981D
:1003880001F024FC019B9E4602B00CBC7047C0469D
:10039800D0B501F0B9FA00220B4B06000F0000F0AF
:1003A80055FD01F0A3FB040001F08EFA0022074B73
:1003B80000F04CFD02000B003000390000F070FF27
:1003C80001F094FB2100D0BD0000F03D0000F04199
:1003D800F0B5C30F85B0440245000F1C640A2D0E0A
:1003E800039302930AD0FF2D3BD08023E400DB0463
:1003F8001C4300237F3D019500930EE001230194E7
:100408000093002C09D02000FFF764FF431F9C4095
:1004180076235B421B1A019300957D027E006D0ACC
:10042800360EFF0F002E23D0FF2E2ED08023ED0096
:10043800DB041D4333007F3B002201980399C31A54
:10044800009879408000104301380E2823D8FFF720
:10045800A7FE4D9973999299734D4D92736161619D
:100468005300022301950093002CD6D00133C3E733
:100478002B000122002DE0D02800FFF72BFF431F9F
:100488009D4076235B421B1AD6E733000222002DDB
:10049800D3D00132D1E764016D01AC4228D31A20D0
:1004A8000122641B0126270052006400002F01DB93
:1004B800A54201D8641B324301380028F3D1601EDD
:1004C8008441144318007F30002838DD620704D0C7
:1004D8000F222240042A00D00434220103D580339D
:1004E80018002B4A1440E508FE281DDD00250FE002
:1004F8001B200022013BD5E78023DB031C4203D0ED
:100508001D4201D12C00029780250299ED03254355
:10051800FF2009E00399009A022AE7D0032A2FD086
:1005280000252800012ACDD16D026D0AC005284397
:10053800C907084305B0F0BD2C003900ECE70122DB
:100548000025121A28001B2AEEDC9E3325009C4049
:10055800D540631E9C4125436B0704D00F232B40D5
:10056800042B00D0043580232800DB0418401D42EA
:100578000BD1ED08D8E780240023E4030293C3E7F6
:100588000291C1E700252800CEE700250120CBE72E
:10059800FFFFFFF7002370B50400984209D0FFF76A
:1005A80099FE9E231B1A962B08DC082829D00838A8
:1005B80084406402D805640A204370BD992B1BDD72
:1005C800020021001B3291400A00511E8A41052178
:1005D800091ACC40144322000B4D2A40610704D06D
:1005E8000F212140042900D00432510102D59F2354
:1005F8002A401B1AD408DCE7421F0528EBD0944098
:10060800E9E79623D5E7C046FFFFFFFBF0B587B0C3
:1006180004920593CB0F0193059B0D034C006D0AC3
:10062800410F5F0029431D037B0D0293059B6D0A53
:10063800DB0F0393049B049A5B0F2B43019E029DDF
:10064800039F640DC000D200651BBE4200D02CE1A0
:10065800BB4EB446002D00DC70E0029E002E1ED179
:100668001E00164300D19BE26E1E012D13D1821885
:1006780082428041C91840420918012410000B0227
:1006880000D472E00224AF4B42080B400121014024
:100698000A43D80706E165451CD1A94C65E06445C5
:1006A80063D0382D47DC8026360433432E001F2EB6
:1006B8002FDC20251F00AD1BAF4002953D00170021
:1006C800F7402F43029DF340AA40551EAA411D0042
:1006D800174303E00127029D382EE8DD3F188742C3
:1006E800804169184042091838000B023DD50025A1
:1006F80001342F006445C6D1934B24051C403B03AD
:100708001B0B1C43019B2800DB071C43210007B07F
:10071800F0BD35001F00203DEF403D000027202E92
:1007280003D04037BF1BBB401F0017437B1E9F41B0
:100738002F430025D2E700250127CFE7002D6FD0F2
:10074800029D2E1B002C30D10D00054300D121E263
:10075800751E012E24D1801890429241C918524228
:10076800891801340B0200D58CE7430709D00F2301
:100778000340042B05D0031D8342804140420918E1
:1007880018006F4B0A0200D410E2002501342F0034
:100798009C42B1D06B4BC0080B405D070543F2E1AA
:1007A80066451DD11900100077E7029C6445F9D011
:1007B800382E32DC80243500240421431F2D1ADC16
:1007C80020240E00671BBE4034000600B840EE40EF
:1007D80034430600E940701E864126430C0002E0BF
:1007E8000126382DEADDB01890429241E4185242B1
:1007F800A118029C79E72C000E00203CE64034004A
:100808000026202D03D04036761BB1400E0006434B
:10081800711E8E4126430024E5E700240126E2E705
:100828004A4F661C3E4230D10D000543002C12D1C0
:10083800002D00D1B1E11D00154396D082188242E7
:100848008041C9184042091810000B028DD53D4B54
:100858001940340089E7002DA4D01D0064461543D3
:1008680083D080254C07C008C9082D03204329429E
:1008780006D0DC082C4203D12100D0085B071843BE
:10088800CB00410F1943C00007E734002F0066452D
:1008980000D131E7821882428041CB1840421B18B0
:1008A800D8075208104359085FE7002D65DD029EFE
:1008B800002E25D11E00164300D171E16E1E012DB8
:1008C8000ED1821A90428041C91A4042091A012465
:1008D80010000B0200D448E7490206004D0A07E160
:1008E800174FBD4200D1D8E60125029F382E11DDF1
:1008F800451BA8428041C91B4042091A2800E8E765
:100908000F4EB44200D130E7382D33DC8026360450
:1009180033432E001F2E1BDC2027BD1B02951D0014
:10092800029FF340BD40AC4615006746F5403D4385
:10093800029FBA40571EBA411F001543D8E7C04668
:10094800FF070000FFFF7FFF0000F07FFE070000A9
:1009580035001F00203DEF403D000027202E03D02A
:100968004037BE1BB3401F0017437B1E9F413D43CA
:100978000027BDE700270125BAE7002D59D0029DC1
:100988002E1B002C16D10D0005430FD0751E012E0D
:1009980009D1101A82429241591A039B5242891A6C
:1009A8000193013495E78E4FBE4221D11900100002
:1009B800340050E08A4C029DA54200D1F2E0382E66
:1009C80034DC80243500240421431F2D1DDC20261F
:1009D8000C00761BB440A4460400B040EC406746C7
:1009E800461EB041E9403C43044326000C0002E0A7
:1009F8000126382DE9DD901B824292411C1B039B86
:100A08005242A11A0193029C63E72C000E00203C7D
:100A1800E6400024202D03D04034641BA1400C0084
:100A28000443611E8C4126430024E4E70024012688
:100A3800E1E76C4E651C35424AD10D001F000543A5
:100A48001743002C23D1002D08D13D1E019700D15A
:100A580052E619001000039B019386E6002F00D18F
:100A680083E6861AB042BF41CD1A7F42ED1B2F02A2
:100A780006D5101A82429241591A5242891AEAE757
:100A880037002F4300D1A5E0290030006DE6002D86
:100A980007D1002F00D194E01900039B10000193A7
:100AA800FBE5002F00D1F8E580254C07C008C908F0
:100AB8002D032043294200D1E2E6DC082C4200D075
:100AC800DEE65B07D0081843039B21000193D7E6B5
:100AD800861AB042BF41CD1A7F42ED1B2F0228D59E
:100AE800161AB24292415B1A52429D1A039B019315
:100AF800002D25D02800FFF7EDFB0300083B20223E
:100B08003100D21A9D40D140294335009D409C4276
:100B18003BDC1A1B0132202308009B1A2C009D4045
:100B28009840D4406B1E9D41D14020432843002467
:100B38001BE637002F43DBD13D003C000197DBE586
:100B48003000FFF7C7FB030018331F2BD7DD310038
:100B5800083881409C4212DC1B1B5A1C1F2ADADD14
:100B68000C001F3BDC402800202A03D040239B1A9E
:100B780099400800431E984100212043D7E7E41A12
:100B8800194B0B405D07DF08B6E5E41A164B280041
:100B98001940EAE5190010005BE619001000E4E5C9
:100BA8002C00E2E519001000029C54E74A07C70828
:100BB80017433D00C9089C420FD10D4304D12F00B3
:100BC8009AE58021019709033D0080273F03044CE3
:100BD8000F4391E53D0001978EE50F008CE5C04677
:100BE800FF070000FE070000FFFF7FFFF0B50D00C4
:100BF80087B000920193040004900198EB0F46001F
:100C0800C70F1A4803938446009B09030593019B69
:100C18006A001B030120090B520D1B0B760D624560
:100C280003D066450DD107B0F0BD9642FBD1009ABE
:100C38000B4313432343F6D1039BD81B431E984110
:100C4800F1E70120B242EED19942ECD1049B059E16
:100C5800B342E8D1039BBB4206D0002AE3D121432B
:100C68004B1E99410800DEE70020DCE7FF07000083
:100C7800F0B587B0009001911D00009B140004930B
:100C8800019B29031A03130B334A03939446019BD0
:100C980068005F007B0D0293029A019B0594DB0FAD
:100CA800090B400DEE0F624512D1009A039F1743BE
:100CB8004FD1029A904204D00120002B06D002386E
:100CC80004E02143081E44D1B342F5D107B0F0BD7A
:100CD800604511D121433CD1029A002A04D0B34285
:100CE800EAD1181EF2D105E0009A03991143F6D112
:100CF800301EEBD101202DE0029A002A17D00028DF
:100D0800DAD0B342D8D1029A8242D5DC029A824222
:100D1800E7DB039A8A42CFD8E3D1049A05998A423D
:100D2800CAD8049A059900208A42CFD2D9E7009FF1
:100D3800039A1743002802D0002FD9D0CFE70C43DD
:100D480004D0002FD4D0B342E3D0B5E7002FBDD0F4
:100D5800B2E702204042B9E7FF070000F0B587B0CC
:100D6800009001911D00009B14000493019B6800F2
:100D78001A03130B344A03939446019B05945F00AE
:100D88007B0D0293019B029AD90F2B031B0B400D7D
:100D9800EE0F624513D1009A039F174352D1029A6E
:100DA800904204D00120002907D0023805E0022033
:100DB800234302D11800B142F4D107B0F0BD604519
:100DC80013D102202343F8D1029B002B04D0B14257
:100DD800E8D1081EF1D105E0009B039A1A43F6D129
:100DE800301EEAD101204042E7E7029A002A17D0D4
:100DF8000028D7D0B142D5D1029A8242D2DC029AD9
:100E08008242E6DB039A9A42CCD8E2D1049B059A47
:100E18009342C7D8049B059A00209342CDD2D8E7C5
:100E2800009F039A1743002802D0002FD8D0CEE79E
:100E38001C4304D0002FD3D0B142E3D0B2E7002F37
:100E4800BBD0AFE70220B8E7FF070000F0B58BB0D2
:100E5800009201930D034B00CA0F06002D0B5B0D8A
:100E6800059200D114E1CF4A934200D138E1ED0058
:100E7800420F2A4380252D041543CB4AC4009B18F2
:100E8800039300230293019B00981E035A00DB0F73
:100E9800360B520D049300D131E1C24B9A4200D176
:100EA80053E1430FF60033438026BF4936041E43FF
:100EB800C300501800220599049F794000910399B6
:100EC80041180691013103910299880010430A28BC
:100ED80000DD73E1022800DD46E10138012800D871
:100EE80055E1190C9BB202911900220CA4B251438E
:100EF80020008C46029F029958435143674305914D
:100F08006744010CC91904908C4505D9802040021A
:100F18008446059F67440597080C84466846008AFE
:100F2800090409180991310CB6B204913000210066
:100F3800049F50437C4371437A4324180F0C3C1997
:100F4800A04202D9802040021218200C82182404E2
:100F580089B2079262180892089962468C46290C51
:100F6800ADB22800029F58436F434B4362449446F6
:100F7800029CFF18020CD2194C43934202D98023D9
:100F88005B02E418130C1B1902932B0080B21204A5
:100F980012180498734345434E434143A8191D0C46
:100FA8002D18AE4202D9802040020918059C6046DF
:100FB800A446089C6044A042BF41801890429241D8
:100FC8002E049BB2F618079B7F42F61853420493EF
:100FD800029BF4199C46A4446346049ABC42A4416B
:100FE8009B18079A64429642B641029A7642344365
:100FF8002D0C64199445AD41049A6D429342924177
:10100800524215436419099A6418410211434A1E51
:101018009141C00DDE0D640201435B0226430B4380
:10102800E40100D4DFE001215A080B401A43F3071A
:10103800CE401343039A5D495218002A00DCD5E0DC
:10104800590709D00F211940042905D0191D9942C3
:101058009B415B42F6180B00F10106D58021C900BF
:101068008C46534A1640039A624452498A4200DD2C
:1010780009E17407DB081C43F60813053603009AD8
:10108800360B3343D2071343200019000BB0F0BDD1
:101098002C0004432BD0002D16D02800FFF71AF996
:1010A800040002000B3C1D2330001B1B1100D8401C
:1010B80008398D4003002B4335008D403E492C00F4
:1010C8008A1A1D000392DCE6FFF704F90400020007
:1010D800153420321C2CE6DD330008388340EDE758
:1010E80004002C4307D0039304000323CAE6250019
:1010F80001230394C6E6039325000223C2E6009B5E
:10110800334329D0002E14D03000FFF7E3F8010054
:1011180003000B391D221800521A0099083886401E
:10112800D1403143009E86402348C01A33000E0048
:10113800C0E6FFF7CFF801000300153120331C2962
:10114800E8DD009908388140EEE7009B334307D07B
:10115800030010000322AEE61E0018000122AAE6D2
:1011680010001E000222A6E601218140A6200F00E1
:10117800C0000740014227D190208000014277D16A
:10118800B938FF38014200D1ABE604990091022A30
:1011980079D0032A75D0012A00D04BE70026340005
:1011A80032006AE7FF07000001FCFFFFFF030000B1
:1011B800FFFFFFFEFE0700000DFCFFFF05990091F1
:1011C8000F2805D00B28E0D02E002300029ADEE776
:1011D8008022120315424FD016424DD13500049A91
:1011E80000921C0048E0069A039223E70120801A27
:1011F8003828D3DC1F2827DC2649039A8C461C0094
:101208006244310093409140C4401A002143531E68
:101218009A410B00C64013435A0709D00F221A40BF
:10122800042A05D01A1D9A429B415B42F618130006
:1012380080213000090408400E4227D17407DB08DA
:1012480002001C43F60818E71F2149428A1A310098
:10125800D1400022202805D00F48039A84466244D2
:101268009640320013435A1E934100260B43D3E79E
:1012780080253C002D030097802636032E43074A1D
:10128800FBE63500ADE700263400F8E7002601222A
:101298003400F2E61E0400003E040000FF070000D0
:1012A800F0B585B000920193CB0F0D030293019B1B
:1012B8004C006D0A410F29435D001E036B0D9C46CF
:1012C800019B760ADD0F009B009A5B0F3343BE4EED
:1012D800640DC000D200B44523D11E001643039606
:1012E800039FBA4EA619002F0CD0029F0095AF425B
:1012F80000D0B5E1002E00D104E1002C00D0BAE204
:101308006446B8E001276F40029D0097BD4200D0B7
:10131800AFE1002E00D1F5E0002CF1D003990800D0
:101328002FE00126754000956546029F009E651BCB
:10133800B74200D02EE1002D00DC76E06746002F92
:1013480021D11F00174300D122E16F1E012D15D1B5
:10135800821882428041C9184042091801241000AD
:101368000B0200D496E00224994B42080B4001215D
:1013780001400A43D807104359088BE0924EB54202
:1013880022D1914C86E0904EB44200D182E00026F2
:10139800B4460136382D1ADC80262F003604334334
:1013A8001F2F31DC20251E00ED1BAE40B446160071
:1013B8000095FE4065462E43009DFB40AA40551E01
:1013C800AA4116439C4602E00126382FE8DD36186C
:1013D8008642804161444042091830000B0259D5C9
:1013E8000026794B0134B4469C42BDD1794B240583
:1013F8001C4063461B031B0B1C43029B3000DB078E
:101408001C43210005B0F0BD3D001E00203DEE400C
:101418000025202F03D04035ED1BAB401D001543A0
:101428006B1E9D4100232E43CCE7002D6AD06546F4
:101438002D1B002C1ED000240126382D12DC802400
:10144800240421431F2D4BDC20240F000600641BBD
:10145800A040A740EE4037430600E940701E864191
:101468000C003E43B01890429241E4185242A11831
:101478006446B3E72C000D00054329D0651E012CF6
:1014880023D1801890429241C918524289180B0200
:1014980000D568E7430709D00F230340042B05D084
:1014A800031D834280414042091818000B0200D4F2
:1014B800E4E10026444B0134B4469C4296D0444BA8
:1014C800C0080B405E070643CDE13F4EB44202D14F
:1014D80019001000DEE7382DB4DD00240126C1E72D
:1014E8002C000E00203CE64034000026202D03D0BE
:1014F8004036761BB1400E000643711E8E412643CE
:101508000024AFE7344E651C354233D10D00054346
:10151800002C11D1002DDBD01D001543BAD0821844
:1015280082428041C9184042091810000B02B1D507
:10153800274B01341940ADE7002D00D19BE11C0079
:101548001443002C00D11CE74C07C008204380241A
:10155800C9082403214208D0DD08254205D1290005
:101568005B07D0081843009B0293CB00410F194337
:10157800C00006E7144CA54200D196E182188242C9
:101588008041CB1840421B18D8075208104359080D
:101598002C007FE7002D76DD6646002E2ED11F0039
:1015A8001743F5D06F1E012D18D1821A9042804141
:1015B800C91A4042091A012410000B0200D469E735
:1015C800490206004D0A02E1FF07000001F8FFFF8B
:1015D800FFFF7FFF0000F07FFE070000B74EB54217
:1015E80000D1CEE60126382F15DD861B6346B042B2
:1015F8008041C91A4042091A3000DEE7AF4EB442B2
:1016080000D147E70026B4460136382DEDDC8026A8
:101618002F00360433431F2F11DC20251E00ED1B3D
:10162800AE40B44616000095FE4065462E43009D28
:10163800FB40AA40551EAA4116439C46D5E73D00EB
:101648001E00203DEE400025202F03D04035ED1B25
:10165800AB401D0015436B1E9D4100232E43ECE754
:10166800002E67D0002C25D019001000934C02954D
:1016780010E7002E5ED0002C1FD003998F4C080075
:10168800009B029306E7002D54D065462D1B002CC5
:101698001FD1009C02942C000D00054300D117E7D0
:1016A800651E012C0CD1101A82429241591A5242DD
:1016B800891A82E702956446EEE7009C0294FAE7ED
:1016C8007E4EB44200D103E7382D09DD0021012602
:1016D80014E0382D2BDC802424042143009C029440
:1016E8001F2D13DC20240F00641B0600A040A74018
:1016F800EE40441EA041E9403E430643901B82420F
:101708009241591A52426446891A56E72C000E0033
:10171800203CE6400024202D03D04034641BA14027
:101728000C000443611E8C4100212643E6E7009922
:101738000291CBE7624E651C354238D11D00154336
:10174800AC460D000543002C25D1002D08D161467B
:1017580026000294002900D148E6190010008FE7FE
:101768006546002D00D195E6861AB042BF41CD1AD4
:101778007F42ED1B2F0206D5101A82429241591A58
:101788005242891A7CE733002B439C4600D18FE0F4
:10179800290030007EE6002D07D1614600297AD065
:1017A8001900009B10000293EBE56446C9E6861A0F
:1017B800B042BF41CD1A7F42ED1B2F0228D5161A21
:1017C800B24292415B1A52429D1A009B0293002D2D
:1017D80026D02800FEF77EFD0300083B20223100BA
:1017E800D21A9D40D140294335009D409C423DDCA2
:1017F8001A1B0132202308009B1A2C009D40984098
:10180800D4406B1E9D41D14020432843002441E62B
:1018180033002B439C46DAD11E001C000293E5E5F9
:101828003000FEF757FD030018331F2BD6DD3100BB
:10183800083881409C4212DC1B1B5A1C1F2AD9DD28
:101848000C001F3BDC402800202A03D040239B1AB1
:1018580099400800431E984100212043D6E7E41A26
:10186800184B0B405E07DB089C46BFE5E41A154B96
:10187800280019400EE61900100082E54B07C00841
:1018880003439C460D4B6646C9089C4213D10E4340
:1018980004D1B446AAE502918021090380231B03E1
:1018A8000B436646054C9C46A0E50026034CF0E732
:1018B800260002949AE58C4698E5C046FF0700008A
:1018C800FE070000FFFF7FFF10B503000400021EA3
:1018D8000CD0FEF7FFFC0B4A121A0A280DDC0B236A
:1018E80021001B1AD94015300B0084401B031B0B29
:1018F80012051A432000110010BD23000B38834045
:101908000024F3E71E040000FE2270B54400240EF4
:101918004302611C5D0AC60F11420DD0E0229200FD
:10192800A4181B0B6D071B031B0B2405F6071C4390
:1019380034432800210070BD002C18D12300002D4D
:10194800F1D02800FEF7C6FC0A280ADC0B232A007F
:101958001B1ADA401300020015329540094C241A6C
:10196800E1E703000B3B9D402B002500F6E7002D27
:1019780006D01A0B80231B036D071343024CD2E7D2
:101988002B00FBE789030000FF070000F7B50B03F6
:101998004A005B0A460F520D1E43531C9C46040026
:1019A800C7003C48C90F034001936346034249D02E
:1019B800394BD018FE2868DC002837DC03001733C1
:1019C80065DB80241E25240434432D1A1F2D10DCCA
:1019D800324BD2183B0097409440781E8741EB4029
:1019E80027433B4307241A00224023423BD1DB080C
:1019F80032E002235B421B1A2000D840030000207B
:101A0800202D03D026481218200090403843421E4B
:101A18009041034307241A0022402342E7D00F22B3
:101A28001A40042A24D00020043308E0A401621ECE
:101A38009441F6007B0F344323435A071BD102001D
:101A4800DB0809E0019B002A06D03B00FF22334354
:101A580002D08023DB0333435B02D0055B0A1843C3
:101A6800C9070843FEBD0F2200201A40042A06D1E8
:101A78000022DB08F0E70F221A40042ADFD00433E3
:101A88005A01DCD5421C0023E6E7FF22FBE70022CF
:101A98001300E1E7FE07000080FCFFFF82FCFFFF68
:101AA800A2FCFFFFD0400B00D1409C46203AD34017
:101AB80018435242634693401843704791400300CD
:101AC80090409C46203A9340194352426346D34083
:101AD8001943704710B5002903D1FEF7FBFB2030EE
:101AE80002E00800FEF7F6FB10BDC04670B5002204
:101AF8000B4B04000D00FEF7E3FB00280BD0084B4E
:101B0800002220002900FFF7CBFB00F00BF8802310
:101B18001B06C01870BD2000290000F003F8F9E783
:101B28000000E0410B0070B5114E0C0349000200A3
:101B3800240B0020490DDD0FB14204DD0D48814220
:101B480002DD0D4BE81870BD8020400320430B4C8C
:101B5800641A1F2C08DC0A4EE24089198840104399
:101B6800002DF0D04042EEE7064B5B1AD840F7E76D
:101B7800FE0300001D040000FFFFFF7F3304000088
:101B8800EDFBFFFF13040000F7B5040C0D0091B244
:101B98000F0061438C460600019383B2100C5F432B
:101BA800444358433B0C60441B18994202D9802196
:101BB80049026418019955437143180C04191B0410
:101BC800BFB24919D819091903B0F0BDF0B506001C
:101BD8000F0015001C0085B08B4263D801D18242EA
:101BE80060D821002800FFF775FF39000090300009
:101BF800FFF770FF009B21001B1A1A0028000393AF
:101C0800FFF75CFF00900191B94245D801D1B0427D
:101C180042D8009B019C01200021039AF61AA74193
:101C2800FFF74CFF04000D00039B002B2BD0019BFA
:101C3800009ADB0750081843019B5908039B9C46F0
:101C4800B9422CD801D1B04229D832003B00121A2F
:101C58008B41012692185B410027B6185F4101238A
:101C68005B429C446346002BEAD130003900039A5A
:101C7800FFF718FF039AA4197D4106000F00FFF72C
:101C88001DFF241A8D410A9B002B01D01E605F6046
:101C98002000290005B0F0BD00240025C4E7B619CE
:101CA8007F41DCE700240025EDE70000F0B543683C
:101CB8008BB00592039383890D0004680493A3688D
:101CC80020005B68039908AA984700282BDB089E28
:101CD800099F280032003B000021FFF755FF002331
:101CE800144A0691FEF734FB0699134B050007903A
:101CF80099421AD832003B0000210598FFF744FFAB
:101D080000230C4A0E00FEF723FB0B4A0300964201
:101D18000BD8A26885420BD304992000009116685D
:101D280003992A00B0470BB0F0BD86204042FAE77D
:101D38001620FBE700CA9A3BFFC99A3BF7B52D4826
:101D480002F0CBFE2C4C200003F0CEFA002804D180
:101D58002A48216802F0C1FEF7BD200003F0C4FA4A
:101D68000028F5D00921264802F0B7FE0626254DA1
:101D78002F00254B6D082A00390018000193FFF742
:101D880095FF041E10D13E0039002048204A02F079
:101D9800A4FE00947408310022000198FFF786FF22
:101DA800011E07D01B48D5E7013E002EE0D11A4896
:101DB8001A49CFE7310022001948FFF777FF011EC3
:101DC800F0D1009B002B0AD07400A74201D22C004E
:101DD80000900021134802F071FC2600DAE7BC42AB
:101DE80006D8114B9C42F4D80123104C0093F0E71D
:101DF8002C00EEE708580010005500101A58001083
:101E08003D58001000CA9A3B6056001096580010C2
:101E180094357700CD5800105C58001050D6DC017E
:101E280050560010409C000093357700286BEE0058
:101E3800F0B595B00493042309921A40099B0892BF
:101E4800DA0807231A40013207001A9C02910B9204
:101E5800820700D0D2E1021D0092002804D0072991
:101E68000AD81C20404254E1029A1A401300043256
:101E780000920822D31A02930425049B2E00013BEA
:101E88000593002307930A9303930193013B069359
:101E9800002F02D0009B049A1A600B9B002B00DDD8
:101EA800EBE09D4B049A9A4203D39C4B9A4200D292
:101EB800E3E0009B0999DA1B9308890700D509E13B
:101EC800039A0F2A00D9B4E0002F00D10AE1039940
:101ED8000CAA53540A00069910AB99540A9B013373
:101EE8000A93EEE07A2861D84B280ED847285DD8A7
:101EF80029282BD8252856D058D820287FD02338F1
:101F080043425841C3B2019379E04C382E284DD84A
:101F1800FEF746F9754C4C4C4C4C4C4C4C4C4C4CCC
:101F28004E4C4C4C4C4C4C4C4C5D4C4E4E5D5D5D9F
:101F3800754E734C754C184E184C4C89874E4C4C4A
:101F48004E4C87000023019304253EE001210A003E
:101F58002A38C0B28240724B1A4250D1E220130094
:101F680080050340024232D11000084001900A4225
:101F780045D0009A6942013A521911400091002F48
:101F880065D0F21B521802998A4200D969E7002BE2
:101F98006AD1042E4BD108CC009A1360009B04260A
:101FA800043300932BE0069B013B06930023AAE72A
:101FB800059B5A78002301936C2ADAD10425059AE7
:101FC8002E0012786C2AD4D16D192E00D1E707257E
:101FD80000990734AC434919A9430CCC002F08D009
:101FE8000135ED1B029E6D18B54200D939E70A602C
:101FF8004B60002308310091019308252E00059BB2
:1020080001330593059B9878002877D0019B002B16
:1020180000D067E72528F2D1069B013306930123F8
:1020280001930425EAE70022019B01928CE7082E20
:1020380001D0162016E70723009907349C430CCCDF
:102048000A604B60009B082608330093D7E7002BF3
:102058000AD1042E01D10434A0E7082EE9D10723C0
:1020680007349C430834EDE7059B023305930B9B2B
:10207800013B0B9308CC04930AE7099B9B0723D5E4
:102088000121009BDA1B9308802080008242D0D275
:10209800039A0F2ACDD8002F1ED00398DBB20CAAC2
:1020A80013549C46069B10AA1354002900D115E727
:1020B80080226346524213430CAA1354079B0133F0
:1020C8000793039B01330393009B04330093059B01
:1020D800013B96E70021D7E7002903D0029B013393
:1020E8000293EEE7029B02330293089B002BE8D190
:1020F800049802F016FE029B1B18F1E78022009B51
:10210800D200DB1B934294D2002F0BD102980838DF
:10211800C01815B0F0BDC04678540010785C0010A7
:10212800DAFF00009B08282238603B706B469B183A
:10213800089A1B78002A0CD0FB70079BBB70002BF9
:1021480020D100260CAD039BB34220D1009BD81BA5
:10215800DFE77B70F1E70CACE4560CA9595C002C66
:102168000BDA009C029DA4180140AC4200D978E625
:10217800009C21702100013100910133039999429B
:10218800E9D1DEE7012200237F20D21BF6E7079B77
:10219800002B02D02B787F2B21D8089B002B21D035
:1021A80010AB009AF35C0024137013000133009302
:1021B8000123009ADB1B1B19D318029A934200D9FA
:1021C8004FE6009B009A013301932B780499137012
:1021D8000198220002F0B7FD019B1B1900930136FC
:1021E8000135B0E72B789B00FB181A680492089A0F
:1021F80004981A6002F095FD441CD9E70E2031E6D8
:10220800014B18607047C04600000020F0B51C0064
:10221800002799B0049005910892089B1878002827
:1022280001D1380027E3089B01330793252807D0FD
:102238000599049B9847002800DA1CE30137E3E17D
:1022480012AD18220021280002F086FD089B5B7859
:10225800252B14D1089AEB720232079212AB5A7AE4
:10226800D10700D47FE102CC0391002900DB7FE194
:102278000421187A01431972039B5B4277E100221B
:1022880001261500100094460392079B1B782B2B00
:102298006FD068D8202B71D0232B71D0002A05D09D
:1022A80012AE327A110040220A433272002D04D055
:1022B800202212AD2E7A32432A72002804D010222E
:1022C80012A8057A2A430272039A002A04D0082227
:1022D80012A9087A02430A726246002A04D004222C
:1022E80012A9087A02430A72442112A8027A1140FC
:1022F800442902D140218A4302728022017A524243
:102308000A43027200210A25079A2A2B40D1417AF2
:10231800293B0B43013243721578022629002E39D6
:102328004B42594112A8437A4900B3430B434372C5
:102338002E2D45D153782A2B3DD000230132083663
:102348001178551C08003038092863D912A916934A
:102358000D7AA807184302239D432B00C00F4000A5
:1023680003430B722CE02D2B0CD0302B96D132006E
:1023780000E00396079B0133079386E73000F9E7EF
:102388003500F7E7B446F5E73200694330395918A4
:102398001378561C180030380928F5D9079B934242
:1023A800BAD0022512AB187A1591C90F4900A84373
:1023B80001431972B0E70423417A02320B43437296
:1023C800117812AB6C2945D029D8682930D06A29F0
:1023D8004CD04C2954D01178531C12AA0793D172AF
:1023E800537A782900D9B9E06D2950D8692900D9DC
:1023F800B4E0572966D8412903D04539022900D9C4
:10240800ACE0072312A98A7A9A43033B13438B72E1
:10241800012373E07343303B2A005B1890E774296B
:1024280029D07A29D7D17821587A884348390DE0BC
:1024380050787821682806D1587A88437039014342
:1024480059720232C7E7587A8843102101435972FA
:102458000132C0E7507878216C2803D1587A884334
:102468005839ECE7587A88431821EFE77821587AE9
:1024780088435039EAE77821587A88434039E5E7B4
:102488001889A5490840A54901431981E0E70120B9
:1024980005006E39C9B28D402900A14D294238D1B5
:1024A8002425294251D1014258D00721907A8843E6
:1024B80004390143917278221340403B5A425341F8
:1024C800DBB21BE001200D000600583DEDB2AE4026
:1024D8003500E2263602354293D1924E354222D15A
:1024E800842189020D4239D00725917AA9430143F5
:1024F800917278210B40402B11D0002312AA117A37
:102508008807C00F034302205B00814319431172FF
:10251800A4E60721957A8D4305392943E8E7137A1C
:1025280003431372E9E70725967AAE43053D354321
:10253800957278252B40402B02D1157A28431072CA
:102548006329DAD15A1E9341BAE70721907A884362
:1025580004390143917278221340F3E7012312AA48
:10256800117A0B43DDE7197A7F290FD9DB680393CA
:1025780012AB51070CD504CC0692002A0CDA0221C2
:102588005A7A8A435A7201235B4204E0012374E6B3
:102598009207F8D51B690693002512A98B7A4A7A07
:1025A8005B0752065B0F120FCD600D61012B30D116
:1025B800D01E042804D8FDF7F3FD0E45450E0E0085
:1025C8002368D81712934860012A09D15BB2129385
:1025D800DB174B6006E008CC1293DB174B6002E078
:1025E800022A14D0043412A90B7A03201D000540D6
:1025F800034245D0079B089A0599049802F0CFFA40
:10260800002800DA37E13F18079B089305E61BB25C
:10261800DDE7022B25D1D01E042804D8FDF7C0FD24
:102628000D121219190008CC012A16D012934D6008
:102638009BB2022AD7D11293D5E708CC1293002374
:102648001393D0E7072307349C4303CC12901391CC
:10265800C9E708CC12930023C0E7DBB212934D60A0
:10266800C1E7042B08D1073403339C432068616811
:10267800083412901391B6E7032BB4D108CCDAE7EB
:10268800C87A7828C0D862282BD8252800D1CFE569
:102698005828B9D1129813991E230AAA9B18009397
:1026A80014AA0CAB02F02EFA069B0600002B0DDBD9
:1026B8001E2340200AAA9B1812AA117A9B1B814349
:1026C80011720699994201D9CB1A1593002E9BD005
:1026D8001E230AAA9B18981B0693002D32D001309E
:1026E80030E0633815288FD8FDF764FD5E00680078
:1026F8008EFF8EFF8EFF8EFF68008EFF8EFF8EFF8F
:102708008EFFA0007A007C008EFF8EFF1E008EFFD9
:102718007A008EFF8EFF7A00FD87FFFF02400000DF
:102728008204000001080000069B129E002B37DB84
:102738001900300002F0FDFA331800250693002E28
:1027480000D161E712AB9B7A1022190011400B915E
:10275800134200D185E00230159A0A9280185B0670
:1027680001D5169BC018039B002B00DC94E01B1AB4
:10277800039312AB1B7A5A07D10F0891002A00DA8B
:102788008AE05B0600D478E0002D07D02800059980
:10279800049B984700286EDB089D013730236DE0C5
:1027A800300002F0BEFAC7E70923129A0CAE327065
:1027B8000AAA9B18002501200693C3E72B251A07B0
:1027C80002D4DB06DB0F5D01129A139B002B00DBA2
:1027D80060E70021504299412D251290139159E745
:1027E800002557E7129812AD002834D01E230AAAF4
:1027F8009B18009314AA0CAB002102F083F9EF2375
:102808006A8906001A40484B13436B810025069BD2
:10281800AB4200DB4CE7A84200D1F5E61E230AAA2A
:102828009B18181A1E239B1806938BE7129B072ADE
:1028380000D9E9E61000FDF7B3FC0C04060C080803
:102848000C0C1F70E0E61F80DEE6FA171F605A6066
:10285800DAE61F60D8E6354B0500354E05200693AD
:1028680070E71A07D20F801876E705990998049B34
:102878009847002805DA19B0F0BD20230993039B77
:102888000893089B1A00013A0892002BEDDC039A82
:10289800D719FF1A089B0393002D06D02800059925
:1028A800049B98470028E6DB013712AB9B7ADA06CF
:1028B80001D41B0706D530200599049B98470028AA
:1028C800D9DB01370B9B002B07D012ABD87A0599BF
:1028D800049B98470028CEDB01373D0006E03020F6
:1028E8000599049B98470028C5DB01350A9BDB192D
:1028F8005B1B002BF3DC3200069B0599049802F061
:102908004EF90028B7DB47193D00039B5B19DB1B19
:10291800002B00DC78E620200599049B98470028C6
:10292800A9DB0137F1E7C04610780000085900100C
:1029380003590010F0B585B001902F48039102F0BB
:102948004FF9061E0AD1040001272C4D2C4B9D423D
:1029580006D3019B002B01D0002C1FD105B0F0BD80
:102968002B7B002B10D02B68DB68002B01D02800B4
:1029780098472B681B69002B08D16B680422280034
:10298800196800F0C5F801361035DFE728009847C8
:102998000028F2D03B00B3401C43F4E72700200096
:1029A800FDF7B6FC01238340DA43144E05019C432E
:1029B800731901931B7B0292002B0CD0AB591B6936
:1029C800002B13D1029B76191F40736804221968E3
:1029D800019800F09DF8002CE1D1039B002B03D057
:1029E8006420002101F06AFE3C00B5E70198984791
:1029F8000028F0D1E6E7C04640010020405600100C
:102A080050560010014B8000C05870477056001097
:102A1800030010B50800002B05D0044A136000F02D
:102A280075FA002010BD16204042FBE70400002084
:102A38000023FA21054A10B51370054A05481360AA
:102A4800054A89001360FFF7E3FF10BDE801002085
:102A580038010020D94B00103C01002070B50C4D06
:102A68002978002908D10120FFF764FF094C0A4B97
:102A78009C4202D301232B7070BD63685B79002BE5
:102A880003D0236820009B6898471034EFE7C046BE
:102A9800E8010020405600105056001010B5040000
:102AA800044802F09DF8002C03D00121024802F0EE
:102AB800CDFC10BD380100203C01002070B50A4B48
:102AC80005001B689847094CA860094B9C4200D335
:102AD80070BD63685B79002B04D02368290020004F
:102AE8001B6898471034F0E7040000204056001097
:102AF80050560010044B054A00209B1ADB089942E7
:102B080001D2C90088587047405600100856001076
:102B1800084B10B5C31A44681B110133237143686D
:102B28009A7101224368196043685A7102F071F87A
:102B380010BDC04640560010F0B50400002087B014
:102B480002AF7B603B6B0E001500834207D07B6BA6
:102B58001021FB6000933B6BFA6AFFF769F90722C3
:102B6800230015401340DB001549AD011D43430206
:102B78000B401D43BC6ABB6A17341B051D43231851
:102B880093430333043A93430733D34093406A464D
:102B9800D31A9D463B6B02AC002B08D001002000E5
:102BA8007B6B103000933B6BFA6AFFF741F92A0000
:102BB800310020007B6802F02FF8BD4605B0F0BD5B
:102BC80000FE0F000EB417B5054C05AB04CB010091
:102BD8002000019302F061F81EBC08BC03B018473E
:102BE800534C001010B5CB0604D4890603D503490D
:102BF800FFF7E8FF10BD0249FAE7C0461759001071
:102C080016590010F0B58FB0069314AB1B78070067
:102C18000C0008920593002B00D19CE00225189B1C
:102C2800189A1D4001231A400A92189A07331A402D
:102C38000B92002601F0EEFF0200B04204D03800EB
:102C48008349FFF7BFFF0600002D09D04423189AD7
:102C58001A4244D1220038007E49FFF7B3FF3618E4
:102C68000A9B002B0AD0059A7B4B9200D258002A67
:102C780000D17A4A38007A49FFF7A4FF00240B9B59
:102C8800A34208D0059A774B920038007649D2586B
:102C9800FFF798FF0400089B002B05D01A003800A6
:102CA8007249FFF78FFF2418069B002B05D01A00E6
:102CB80038006F49FFF786FF2418159B6D48A41943
:102CC800002B00D09BE0179B002B51D1189BDB07F2
:102CD80000D5B7E038001899FFF784FF9BE0002083
:102CE800654B1D688542BAD0644B20001968FDF712
:102CF8006BFA2900FDF7A4FA0C00E12109010790FD
:102D0800FDF79EFAFA208000099160432900FDF73B
:102D180097FA0C000C903C210998FDF755FAE1212F
:102D28000D9009010798FDF74FFA0790FA208000E7
:102D380029006043FDF748FA0C9B02903C21099852
:102D48000193FDF77DFA380000910D9B079A4C49D5
:102D5800FFF738FF83E7069B4A48012B00D1454817
:102D6800159B059C002B4AD1179B002B53D00024A0
:102D7800179E102E00D9102638001899FFF732FF39
:102D88000025AC424CDC169B38001A783E49FFF708
:102D980019FF012507231D4203D138003B49FFF7DE
:102DA80011FFAE4242D9169B38005A5D3649FFF7EB
:102DB80009FF0135102DEDD1002538003449FFF702
:102DC80001FF2B00169AD25C1300203B5E2B00D922
:102DD8002E2238002F49FFF7F5FE0135102D2AD095
:102DE80007231D4203D138002849FFF7EBFE2B00CB
:102DF800AE42E7D838002549FFF7E4FEEDE7159B1A
:102E08003A00254901F033FE179B002BB0D1059BF2
:102E1800002B00D05AE7380001F045FF0FB0F0BD95
:102E280038001A49FFF7CEFE0135AAE738001B49DA
:102E3800FFF7C8FEBDE7169B9B191693179B9B1BB4
:102E48001793E2E73800054A0549FFF7BBFE41E75B
:102E58001E590010225900108056001019590010F0
:102E680047590010945600104A5900105059001044
:102E780054590010534C0010480100204401002010
:102E88002B5900106B4C0010595900106159001053
:102E98006359001065590010A34C00105F590010C9
:102EA800F0B50B8889B0DB055C0F4B680F00150087
:102EB8008E680790002B0CD0134A9A1AD208002368
:102EC80011B2120405D438788006400FFFF712FEBD
:102ED80003003A003968788809030009490D10325F
:102EE80084465718481E814149420A40614601926A
:102EF8000391002231000798049502970094FFF788
:102F080081FE09B0F0BDC04608560010012310B577
:102F180000211C00074A904207D8074A002900D11F
:102F280001231360054B186010BD210040085B00A9
:102F3800F1E7C04640420F0044010020480100204C
:102F4800014B00201960704760010020012210B574
:102F5800024B03481A7001F0A6FE10BDEA010020DA
:102F6800C456001010B5054B0C001868FFF74AFD51
:102F78000F22030021000248984710BD600100207D
:102F8800C456001070B50D0004004618B44201D1B3
:102F9800280070BD21780348013483685B6898472E
:102FA800F4E7C046D0540010014910220A60704767
:102FB80010ED00E0BFF34F8F30BF62B6BFF36F8FE5
:102FC8007047C046F0B507000D0087B0002939D01A
:102FD80000248B681E4E05934B68012204930B68EE
:102FE800200003931B4B31000293019423000094AB
:102FF80001F066FE6B69012205932B693100049389
:10300800EB6820000393144B01940293009423006F
:1030180001F056FEEB6901220393104B31002000AA
:10302800029301942300009401F04AFEAB69012247
:1030380003930B4B3100029320002300019400946A
:1030480001F03EFE2900380000F03AFF07B0F0BD5D
:1030580028560010A2590010D1590010005A00102B
:103068000F5A001043B2000605D41F221A4001234C
:103078009340014A1360704700E100E030B5FF2536
:1030880003220B00290040B20240D20091405B01AC
:103098002B40C943934000280ADBC0240A4A800811
:1030A80080008018A40002590A401343035130BD20
:1030B8000F2210400838054A800880008018C2692D
:1030C80011401943C161F2E700E100E000ED00E0C2
:1030D80030BFFDE7FF22084B10B59343074A9360C2
:1030E800BFF34F8FBFF36F8F00F090FF01F060FBCD
:1030F80000F03AF900F0CAFF0001001000ED00E00E
:10310800084A0949936809689866D9668023074977
:103118005B05486803434B6062B6BFF36F8F9368E3
:10312800D86E7047B4010020D857001000ED00E0B9
:1031380013498A6813481044EFF3098CF0C04346DA
:103148004C4655465E466746F8C072B60E4F0F4E5F
:103158004A698A603E60906E00239366002800D119
:1031680062B6084C10191030F8C89846A146AA460D
:10317800B346BC462438F0C88CF309887047000071
:10318800B40100203000000004ED00E00000000859
:1031980004207146014202D0EFF3098001D1EFF318
:1031A80008808169023909780229FFD001B501F048
:1031B80096FD01BD10B5203A1360029B01245360AF
:1031C800039B06499360049BA143D36080235B045F
:1031D800D361002391610265836610BDF94A00102E
:1031E800064B9860101C81F30988002162B6BFF372
:1031F8006F8F0022002301F07BFCC046B401002041
:1032080001B5EFF305800549401AC000044901449F
:1032180009C9984709BC9E460249084710000000A2
:103228001855001031320010044B996858698842CB
:1032380002D00349034A0A6070470000B401002025
:1032480004ED00E000000010F0B5384B91B05F6865
:103258000400FB05DB0D079362B6BFF36F8F344E96
:10326800130EFF2B0DD1F33B1340082B3FD1002049
:10327800304B01220293310003000190009001F0CD
:1032880040FD00252C00079B032B36D100272A4B35
:103298000122029331003B0038000197009701F0AA
:1032A80030FDA369023B1A88244B9A4239D123681E
:1032B80031000393224B0122029338003B0001970F
:1032C800009701F01EFD26682022210008A801F0C1
:1032D8003AFD0F9B002D26D0DA0502D1194A134377
:1032E8000F93300008A9FFF76DFE11B0F0BD01255E
:1032F8001207C8D50C000025C5E7F8235B00124A61
:103308001F4200D0114A0020079B0392103B0493F0
:103318000F4B01220293310003000190009001F04D
:10332800F0FC0026D0E75B0A5B02D9E700ED00E07D
:10333800285600106B5A0010965A001002DF000041
:10334800AD5A0010FF0100003D5A0010525A0010FB
:10335800C95A0010EFF30880EFF3098101B57246EE
:10336800FFF772FF01BDC046F0B5C0240022032656
:10337800FF25A40010002F003040C00087400549F9
:1033880093089B005B1819590132B94319511A2A3D
:10339800F0D1F0BD00E100E072B6074807494018D7
:1033A80080F30988EFF314800221084380F314881E
:1033B800BFF36F8FFFF78EFEF001002000080000BA
:1033C80010B50A4B9B6883420DD1EFF30583002BA0
:1033D80009D08022064B520559680A435A605A6A36
:1033E80004490A405A6201F087F910BDB40100206F
:1033F80000ED00E0FF7FFFFF014B18607047C046FB
:10340800080000200E4B0F4A70B51A600E4D0F4B86
:103418000F4C2B601900A2689143FBD100F040FBD0
:103428000C4B2B60A368DB018033FBD1EFF31083D7
:1034380072B6002B02D162B6BFF36F8F002070BD49
:1034480000E00040BFCDFFFF00F00040FE3F3C0021
:1034580000C00040FFFFFF0110B5084801F044FF1D
:10346800002808D0064C2000FFF7C6FF2000FEF712
:10347800C7FE002010BD13204042FBE7D0540010C7
:103488008D34001070B50400074D0A2804D1AB68CC
:103498000D2128005B689847AB6828005B68E1B29B
:1034A8009847200070BDC046D0540010F7B50600FC
:1034B800002403690193E308144A08339B009B58CE
:1034C800072222409200D3400F22134203D1013435
:1034D8001E2CF0D1F7BD0F21200000F027FC019B26
:1034E80059680029F3D00127A7400D680029EED0BC
:1034F8008B681A003A403B4202D030004B6898472C
:103508002B1E00D02B6829001D00EFE70041014069
:103518007FB50BAB059300200393054B0122029363
:10352800019003000090FFF707FB07B000BDC046FD
:10353800EE5A0010F0B5456887B00021E86905AA81
:1035480001F01DFD041E07DB059B00221979186890
:1035580001F028FD041E0DD000201C4B012202930F
:103568001B490300039401900090FFF7D1FF20004E
:1035780007B0F0BD210017482B1D1422164F4A43EF
:10358800BC46944400266746124D013155192E60F9
:103598003E60124FBC46944467463E60104FD219B5
:1035A800104F176010226A602E601A785E78120138
:1035B80032436A6001250268033395438022520131
:1035C8000243156014300829D7D1D0E7EE5A00100D
:1035D8003056001000000540080005400C0005406A
:1035E80010000540FFFF0000F7B508AC24880093E1
:1035F8000F2943D88026551E7602B5423ED2B342E3
:103608003CD201260D003540019514254F087D4315
:10361800406834400068401903680068314228D087
:103628009908314020000C00C000A40004430C207D
:103638001449013A0B0069180E6892B274400440AC
:103648008020400101430C6014217943C9180E4BB6
:103658000A61ED18019B002B0ED0009B0B4A1B043E
:103668000093296805430020009B4B401A402A60BC
:10367800FEBDC0083040D7E7054AF2E716204042B1
:10368800F6E7C046000005400C0005400000FFFFBB
:10369800FFFF0000F8B515004A080F2925D80323B5
:1036A80053434468E4186079FCF774FFFEF72CF97B
:1036B80000220F4BFDF7CAFB060020790F00FCF72C
:1036C80069FFFEF721F902000B0030003900FCF712
:1036D8009DFFFEF75BF9011C0648FCF779FEFCF735
:1036E80057FE286069600020F8BD16204042FBE7BD
:1036F8000000B03F286BEE4C436803495A68936B4F
:103708000B4093637047C0463FF8FFFF10B5032B8B
:1037180023D8012A02D0032A1FD1013A02291CD832
:103728000468013A0E485B01D200415C1A4320004C
:1037380000232C30994205D0023301391A434B42F9
:1037480059418B001A436E23E16A4A401A4080238C
:103758005B01034300201A6010BD16204042FBE7BE
:103768004B5B0010F0B5456885B02B68040006690E
:103778000021A86803AA6F68019301F000FC0028E3
:1037880023DB039B00221979186801F00BFC002841
:103798001BDB3168019800F033FB002817D00D4B74
:1037A800306073600122032300216068FFF7AEFFD9
:1037B8003A00C0232C329B011343002610221A60C2
:1037C8003E6020006B699847300005B0F0BD1620B8
:1037D8004042FAE70001030030B50A4B0A4A9868EC
:1037E80019680A4D9C68C90301D4A04204D2116823
:1037F8002868091811601B682B681068C018001B1E
:1038080030BDC04610E000E07C01002088010020A7
:103818000020094A136A1B021B0A1362074B084A55
:103828001A60084B1860084B5A600722986019689C
:103838000A431A607047C04600ED00E08801002086
:10384800D33000007C01002010E000E070B5FFF7E5
:10385800C3FF0B4B0B4A186811680B4C40181060DB
:10386800002225681A600949401BFCF7ADFC074B8C
:1038780043435B19236001F06DF8FFF7D5FC70BD79
:103888007C0100208401002080010020D430000049
:10389800F0B5324D324F85B0002954D0431C08D1C1
:1038A80001222B6893432B60FF231B063B6005B066
:1038B800F0BD3B6801930026012804DD294B1E005A
:1038C800984200DC461EEFF3108372B60393FFF7AD
:1038D80083FF0022AB680293234B1C68234B041917
:1038E8001A60234B1B680093E01A904231DB214B8E
:1038F800214A5E43801919008018FCF765FC1D4BAE
:103908005843009B1B1B18188023DB00984223D9BF
:103918001A4B984220D8002338600138A96868609B
:10392800AB60029B02985B1A1A19884202D2019A6C
:103938009B181A190C4B1A60039B002BB7D162B65F
:10394800BFF36F8FB3E73B680193431CB3D10548BE
:10395800B8E78020C000DEE71800DCE710E000E0F0
:10396800880100203D050000840100207C01002022
:1039780080010020D4300000D330000084C6FF004E
:1039880010B5EFF3108472B6FFF726FF074B084A0D
:103998001B6812689B1A1818002C02D162B6BFF374
:1039A8006F8F0449FCF710FC10BDC046840100204D
:1039B80080010020D4300000F0B585B001920A9A49
:1039C80005000F0000209A4263D80C241A0E1B022F
:1039D800039202930A9A030003990298FCF7B8FC31
:1039E8006C432D4B0600E4186368834200D2606084
:1039F8002B1FDBB20093C023009A9B012343012AAB
:103A08001BD8012F19D103221A60A3683B42FCD0AE
:103A1800019A236852015A40E0231A4080235B012F
:103A280023431A60032122687A400A401A6001235E
:103A3800BB40A2681342FCD01AE0802212011A602F
:103A4800164BAA00D158002905D05869FCF7BCFBD1
:103A580001300138FDD1019A236852015A40E02310
:103A68001A4080235B0123431A60009A012AD9D99E
:103A7800802380229B01234312011A60029866600A
:103A8800320000230399FCF763FC044CAD0060513D
:103A9800012005B0F0BDC046008000408C01002028
:103AA80073B50C2000F0DEF800F0E4F800280AD026
:103AB80000232C4A2C489900013350500A2BFAD184
:103AC8002A4B536273BD2A4DA86700F0B7F801224C
:103AD800284B1A606B6C012BFCD10322264B1A6011
:103AE800AC6B012CFCD1022505262100009506238C
:103AF800224A234800F054F833002100214A224882
:103B0800009600F04DF8214B2900214D009300222A
:103B18000420FFF751FF2B00210000223000009500
:103B2800FFF74AFF0022104C1100230000940720E1
:103B3800FFF742FF00222300110000940820FFF73E
:103B48003BFF0022094B1100009309202300FFF7D7
:103B580033FF00222B00110000950620FFF72CFFF1
:103B6800B0E7C0468C010020006CDC021BB70000E7
:103B7800008000403CB0004030B00040002F685941
:103B880000800240008C864700C00240001BB7003E
:103B980040597307014B8000C05870478C010020C2
:103BA800F8B504000C2017001E000D00FCF70CFBF4
:103BB8001D4941433800FCF707FB069A33041203FA
:103BC80013432268002A0FDA3F2122680A40AA42DA
:103BD8000AD1A2681205120D824205D1EE21E268CF
:103BE800C9020A409A421BD0104A944219D0802236
:103BF80052010F490F4E0A600F490A601700B16859
:103C08008F43FBD1C022211D92010A432121256047
:103C1800A060116021680029FCDAE36008231360C2
:103C2800F8BD80229201E4E740420F0000C0024044
:103C380000E0004000C0004000F00040AA22064B0F
:103C480012011A602F220549DA60054A11605A6884
:103C5800002AFCDA7047C0460040024000B0FA0073
:103C6800006002408023024A9B000343D3627047EE
:103C780000800540024B18688007C00F7047C04697
:103C880000C00640084B8200D218402310B51468C3
:103C9800C0006340C0242340802464012243136091
:103CA800024BC018416010BD04C0014000400140F3
:103CB800074B8000C0180368C90092000A435A40A5
:103CC8000C231A4080235B0103431A607047C046E7
:103CD80004C00140054B8000C0180222802300293F
:103CE80000D1C0239B0103431A60704704C0014000
:103CF800054B8000C01803685940012319408023F0
:103D08005B0103431960704704C00140064B800003
:103D1800C0180368090159403023194080235B010A
:103D2800034319607047C04604C001400722C30816
:103D3800104080008140024A3C339B0099507047F4
:103D480000400140F8B5D0231B061C6805006342FB
:103D58005C412F2364429C430A4B0F00E418160071
:103D6800FFF7E4FF07232B40ED089B00AD009F40C1
:103D780064198023002E00D1C0239B0123431F60B8
:103D8800F8BDC04630410140054B8000C0184022B4
:103D98008023002900D1C0239B0103431A60704788
:103DA80004C0014070B5060006200C00FFF7F2FEC3
:103DB8002100C000FCF708FA0124C50907D00E4B02
:103DC8009D4215D87F23184000192C0045088023F0
:103DD800002274629B01B5622C3633431A600620B8
:103DE800FFF7D8FEA10149198000FCF7EDF970BD75
:103DF8000025024CEBE7C046FEFF0000FFFF000075
:103E080070B5040006200D00FFF7C4FE00282ED070
:103E1800194B9C422CD08023DB03184A18491360A5
:103E2800184A136018008A689043FBD1164B174A4A
:103E3800E31859424B4180215B0049009952200008
:103E48002900FFF7AFFF6023E26A210053406E228A
:103E5800134080222C3152010A4313600C4B10226C
:103E6800236380239B010B431A600323A36470BD63
:103E780080231B04D1E7C0460080034000E00040D7
:103E880000C0004000F000400080FCBFE4010020BA
:103E9800010300001FB50400FEF7E0FD0020064BFB
:103EA80001900293009003000122044901F029FACD
:103EB800200001F035FAC0465C5B0010285600105F
:103EC800F0B506000F0089B0EFF3108372B60793C0
:103ED80000F00CFC264B0500042E02D8254BB2003E
:103EE800D3580024244A0493244B069202930122B7
:103EF800230020000699059403960194009401F08C
:103F080000FAA7420DD0FB69DB05A34209D01C4B80
:103F1800012202932000230006990194009401F0E5
:103F2800F0F9002D07D0280001F006FA002802D089
:103F38000378002B00D1134804900020124B012273
:103F480006990293019003000090039501F0D9F9B6
:103F580039003000FFF79EFF079B002B02D162B6A5
:103F6800BFF36F8F2800FFF72BFA09B0F0BDC046EA
:103F78006B5B0010DC57001028560010815B0010A6
:103F8800A95B0010795B0010CA5B0010F7B5012728
:103F9800104E830001309C5983000193019BF35814
:103FA800A34200D8F7BD6568236828009847002D0C
:103FB8000DD0002807D0C2178018EB685040FF28A2
:103FC80000DDFF201870EA6853783B4353700834CB
:103FD800E4E7C046F057001010B50124094B032050
:103FE8001C70FFF7D3FF00F039FD0420FFF7CEFF68
:103FF80000F0D0F8FDF7A2FE034A137BA343137326
:1040080010BDC046EB010020A800002010B5034AEF
:1040180003480021121A01F087F910BDF0010020B1
:104028003800002070B570260125040046430102BF
:10403800114880220918002086B004950E35039592
:10404800053565430D4B0590029001900C48F61814
:104058002D180C4B30000095520000F071F8042226
:10406800737B2C74934373730134074BE402E41895
:10407800EE606C6006B070BDF009002038000020CA
:10408800B401002045530010F0010020F0B50020D5
:10409800A3B0FFF77BFF224B83F308882149224B0B
:1040A8000A6A00251A40E0231B0413430B6200F040
:1040B80037FEFEF779FFFEF7BBFC02221B4E06AB6C
:1040C800FF329A81B3601F9501F00DF90120FFF7C7
:1040D8005DFF0220FFF75AFF00F060FA144C154B01
:1040E8007461802205930123134E14490493D2006E
:1040F80033002000039502950195009500F020F803
:1041080004220700637B20009343637301F030F9B6
:104118002800FFF787FF320039002000FFF760F81A
:10412800F009002000ED00E0FFFF00FFB4010020CF
:10413800A80000202C5C0010E13F0010F00A0020CD
:104148007FB504005830A065E0650C980026207300
:10415800042060730B980732A073072082438D18E0
:104168000A9AA660E673A661E6610292099A20009F
:104178000192089A00922A00FFF71CF8044B666522
:104188009B68B34200D05B6E2800636604B070BDC4
:10419800B401002070B5204C86B026001F4DAC42FB
:1041A80008D300F0D5F93400AC4219D300F0E0F997
:1041B80006B070BDA36A0593236A0493E369039369
:1041C800A36902936369019323690093E368A26872
:1041D80061682068FFF7B4FF23685C652C34DDE76D
:1041E800636A5A1C0FD0D843C01718400A2200230C
:1041F800C117FDF7C9FC26680B000200014304D172
:10420800300000F05FF92C34CEE730000449183054
:1042180000F032FBF7E7C046E8550010E8550010FB
:10422800CF5300100121044B044AC01A044BC0109C
:104238004343D1547047C04618010020EC010020C8
:10424800ABAAAAAA70B518240A4B1D7C0A4B6C436A
:10425800E418200001F0D2F8084B1A68002A08D0A8
:104268000021074B013A595520000649D31700F0A1
:1042780003FB70BDB401002018010020DC01002000
:10428800EC0100202D42001070B50E4D0E4BAC69AC
:104298009C4201D0002C00D1EC68AB68002808D102
:1042A8005A7BD20605D1A269002A02D1DA897F2A6F
:1042B80005D89C4202D02000FFF7C4FF23006B61A1
:1042C80070BDC046B4010020CC0100200D2270B59D
:1042D80082560400437B002A04DA7F22134043738A
:1042E80001F033F88023627B5B421343134A637304
:1042F80093691348834200D10023D169002B04D16C
:10430800206061600C60D4610CE00E250E266557B4
:104318009E57B5420DD0AE420BDD596823606160EF
:104328000C605C609068001B43425841FFF7ACFF8B
:1043380070BD9942E4D01B68E0E7C046B401002094
:10434800CC0100200D2370B5C356417B002B26DB22
:10435800CB0624D18369002B21D1802252420A4303
:104368004273114A114C9169A14200D00B00D169E6
:10437800002B04D1046041600860D0610CE00E2578
:104388000E2645579E57B5420AD0AE4208DD5A68F8
:1043980003604260106058600020FFF775FF70BD31
:1043A8008B42E7D01B68E3E7B4010020CC01002072
:1043B8000D2210B582560400437B002A04DA7F22BE
:1043C8001340437300F0C1FF034B9868001B43423E
:1043D8005841FFF759FF10BDB401002010B5EFF3A5
:1043E800108472B60A234343002802DD022B00DA48
:1043F8000223074A1360074B1960074B9868FFF7B9
:1044080021FF002C02D162B6BFF36F8F10BDC046EA
:10441800DC010020D8010020B401002070B5EFF3C2
:10442800108572B6164A174B946819688C4208D1E1
:104438002000FFF707FF002D02D162B6BFF36F8F90
:1044480070BD00211960104B1B688B42F3D0E389C3
:104458007F2BF0D8637BDB06EDD10E210B4B615629
:104468001B689942E7DB0A4B9C42E4D0094B127C5B
:104478009B5C002BDFD02000FFF728FFD8E7C04661
:10448800B4010020D4010020DC010020D801002064
:1044980038000020EC01002010B500290AD1EFF304
:1044A8000580002807D1064B9A685B699A4202D0BA
:1044B800FEF726FE10BD62B6BFF36F8FFAE7C0465F
:1044C800B401002010B5EFF3108472B60422437BC8
:1044D800134205D1002C02D162B6BFF36F8F10BD15
:1044E80093434373FFF72EFF21000248FFF7D4FFE1
:1044F800F5E7C046ED01002070B50400183000F063
:104508007DFFEFF3108672B60D22A256637B002A58
:1045180005DA7F2213402000637300F016FF102392
:104528000A4D627BA8681343001B637343425841DA
:10453800FFF7AAFE002E02D162B6BFF36F8FAB68F9
:10454800A34201D100F053FF70BDC046B401002062
:10455800EFF3108172B6054B9A68D37B013BD37396
:10456800002902D162B6BFF36F8F7047B4010020F3
:1045780010B5EFF3108472B6074B00209A68D37B0E
:104588000133D373FFF780FE002C02D162B6BFF36C
:104598006F8F00F02CFF10BDB4010020002110B572
:1045A800034B044A08009A61DA61FFF717FF10BD50
:1045B800B4010020CC010020F8B5EFF3108572B6E5
:1045C8007F22194CA068437B1340437300F0BDFE63
:1045D8008022A3685242597B14480A435A73A2693D
:1045E800824200D10022E169002A04D11860596092
:1045F8000B60E3610CE00E260E279E57D757BE428C
:104608000DD0B7420BDD51681A6059600B605360DA
:104618000120FFF739FE2800FEF772FDF8BD8A4237
:10462800E4D01268E0E7C046B4010020CC010020C5
:104638000300F7B50B4304000D00002B03D1FFF76F
:10464800BBFF0020FEBD4B1C2EDB4B1C01D1831C85
:104658002AD300F0E6FE2718EFF3108372B6144E43
:104668000193B068134B1860FFF7A2FEB0682200F0
:104678002B001149183000F0FFF81023B268019898
:10468800517B0B435373FEF73BFD00F0CAFE00233A
:104698003A0004001D00121BAB41AB4202DCD0D132
:1046A800AA42CED01000CDE702277F423F1BD3E7B6
:1046B800B4010020D4010020CF53001010B50B0026
:1046C8000C00421C07D1013305D1074B9868FFF74E
:1046D80013FF200010BD2100FFF7AAFF0A220023C4
:1046E800C117FBF735FEF5E7B4010020014B9868C8
:1046F8007047C046B401002070B50400EFF310867F
:1047080072B6037BDB0708D5002E02D162B6BFF371
:104718006F8F042062B602DF70BD0823427B1A4205
:1047280005D0002EF8D162B6BFF36F8FF4E72021D1
:10473800100088430100194348B2002820DB617348
:10474800A368002B02D0200000F007FE20001830DC
:1047580000F054FE2300A56D58339D4201D0002D72
:1047680016D10120FFF790FD104B9B68A342D8D1CA
:10477800EFF30583002BD4D13000FEF7C1FCD0E75E
:104788005F210A4013432000637300F0DEFDD7E782
:10479800280000F0E2FD2800183000F02FFE00236A
:1047A8002800EB66FFF7CEFDD4E7C046B401002031
:1047B80010B50648064A0749121A00F0B9FD064A1C
:1047C8000649074800F0B4FD10BDC04600000020AF
:1047D80038000020785C001000000000785C0010B1
:1047E80000000020002010B5034B1B68834201D154
:1047F800FFF7C6F810BDC046E001002070B50E4BAB
:104808001E689E4203D1FFF7EDFF0C4870BDFFF70D
:10481800E9FF002EF9D0326973690400C517121B2D
:10482800AB41002BF1DC03D1802109068A42ECD28E
:10483800D843C0171040E9E724000020FFFFFF7F9E
:1048480030B500280ED00B4B5B6898420AD001683F
:10485800002907D00A694B690469456912196B4137
:104868000A614B610368426813605A600023036061
:10487800436030BD24000020F7B5040016001F0077
:10488800531C01D17B1C57D0A160EFF3108372B683
:104898000193002F23DA7B1C01D1B31C1FD82B4BAB
:1048A8001868596802225242D317121A8B41921B78
:1048B800BB41002B04DC01D1002A01D101220023D5
:1048C800234F226163613D68BD4200D100257E68A7
:1048D800002D0FD12760666034607C601CE0FFF714
:1048E80081FF0122002392197B410600C717921904
:1048F8007B41E5E72869696922696369994202DCB5
:104908001BD1904219D9801A99416B682861696155
:10491800636025601C606C603B68BB4206D09C42AB
:1049280004D1FFF76BFF0021FEF7B2FF019B002BBC
:1049380002D162B6BFF36F8FF7BD121A8B412261A5
:104948006361B542C6D02D68C2E7C0463001002079
:1049580024000020F0B585B0EFF3108372B60293FF
:10496800304B1860304B1C689C4200D100242F4B00
:104978002C4D0393186859682B689C46002C39D035
:1049880062692669DB179A4202DC0AD1664508D9B2
:104998001F00226963696646921BBB4122616361FD
:1049A80028E0F31700960193009A019B801859415B
:1049B800002300221D4F2261636138607960200066
:1049C800FFF73EFF029B002B02D162B6BFF36F8F49
:1049D8002000A3689847EFF3108372B60293114B37
:1049E8001A68921B1A60104B94461C689C42BED1F0
:1049F800386879686246D31712184B410024039926
:104A08002C600A604B60FFF7F9FE2100FEF740FFBB
:104A1800029BA34202D162B6BFF36F8FFFF7FEFC81
:104A280005B0F0BDE0010020240000203001002086
:104A380010B5EFF3108472B6FFF7D4FE02000649F2
:104A4800C3170868496880185941002C02D162B61A
:104A5800BFF36F8F10BDC0463001002010B502486B
:104A680000F03BF810BDC046345C00107047F0B54C
:104A780085B00D001C1E0290039229D000265B7899
:104A88000193E078237840009B00C018A378C018F1
:104A98002018019B9E4210D36279237912021A438F
:104AA800A37903991B041343E279029812061A4367
:104AB80023000833A84705B0F0BD0378471C9B00C6
:104AC80038001F5100F02DF9013038180136E0E7A1
:104AD80016204042EFE7002070470FB407B504A93D
:104AE80001C9019100F088F803B008BC04B0184768
:104AF80010B50400080011001A00A047FFF7F6FDE2
:104B0800FEF75EFCF0B585B001900393D3781500ED
:104B18001A00413A0F00082402926F2B0AD004D8D9
:104B28002419582B06D0063C04E00822102493438D
:104B3800702BF8D10A9E2200002339000198FBF758
:104B480007FC13008C46D2B2092B1AD83032D3B2E4
:104B5800013E33700023BB4202D1019B9C4202D824
:104B6800039B9E420AD82B789B0604D5082C10D1AB
:104B7800AB782343AB70300005B0F0BD67460190B9
:104B8800D9E7130002995733DBB21929E0D8373235
:104B9800DDE7102CEFD1AB781C43AC70EBE7F7B531
:104BA800070015001E0014000191A64206D8002E29
:104BB80001D0601B08E02378002BFAD020780199F7
:104BC800B84701340028F0DAFEBD7047002070476E
:104BD80010B500F02AFC0A220023FBF7B9FB10BD30
:104BE80010B5012100F025FC10BD002110B508000A
:104BF800FDF7A0FE002010BD1FB502900020039114
:104C080003000200010001900090FDF795FF05B038
:104C180000BD70470020704770B50E0004001500F5
:104C28001900002802D1FDF739FF70BD002B06D00E
:104C38002B035B0D1030120DC01800F084F8200013
:104C480025606660FDF73AFFEFE713B56B464A68E3
:104C5800D87107330C68180001215268A04700205A
:104C680016BD70B504000D000A2802D10D20FFF70B
:104C7800ECFF29002000FFF7E8FF002070BDF8B521
:104C880006000D0014001F00210028003A00B0475C
:104C9800241A2D18002CF7D1F8BD13B50024009460
:104CA800FDF7B4FA16BD10B5426804000CCA816855
:104CB8000068FFF7E4FF002263681A6010BD7047C0
:104CC8007FB50BAB0593002003930A9B0122029347
:104CD800019003000090FDF72FFF07B000BD10B54D
:104CE80001000068FEF76EF910BD10B50021012023
:104CF800FEF768F910BD10B5FEF7EAF9FEF794FA69
:104D080010BD7FB50BAB0593002003930A9B0122CE
:104D18000293019003000090FDF70EFF07B000BD5D
:104D28007047030000201A5C002A00D17047013048
:104D3800F9E7030000201A5C002A01D0884200D15C
:104D480070470130F7E7002310B59A4200D110BD33
:104D5800CC5CC4540133F8E70300C9B2821893420B
:104D680000D1704719700133F9E7012040427047BC
:104D7800D0231B065B6800200B6070470A0010B543
:104D880003691000196988430100D02000064161B9
:104D98001C69596921401140816219695B69114098
:104DA80099434162002010BD0A0010B50369100044
:104DB800196988430100D020000681611C6959697E
:104DC80021401140416219695B6911409943816230
:104DD800002010BD036908001A699043D02212060A
:104DE800D0611B6900200B40D362704710B503697E
:104DF8005868002821D088421BD108689C685860F0
:104E0800A14200D1986000200860824206D05A680A
:104E18000A609A685960002A00D19960002010E061
:104E2800814206D10868206098688142EBD19C6075
:104E3800E9E7040000680028F2D1002AE7D116202B
:104E4800404210BD10B543685B689847002010BD0C
:104E5800F7B50D00076916000F21002228001C0075
:104E6800FEF770FF01221300AB40019380239B03E0
:104E78009E4205D1FB68019A93430020FB60FEBD6A
:104E88008023610EDB0423401140F6010DD5890013
:104E9800002B01D00823194301222800FEF752FFF6
:104EA800FB68019A1A431300E7E7002BF4D00223AA
:104EB800F1E710B5002203210D20FEF7DFF80D20E1
:104EC800FEF7D0F810BD30B50469D020000603699C
:104ED800256953400B40AB430D00C361036A53403F
:104EE8009D432B0025691D4063692B40C362036AFB
:104EF8005A400A402169636911409943C162002000
:104F080030BDF8B515000F000124520929090669BA
:104F1800214038002240FEF7CBFE05213800FEF77D
:104F2800B1FEAB0325D5BC403269A90715D522438C
:104F38003261D02271691206680707D52143716171
:104F480094616D0307D554620020F8BDA1437161D7
:104F580054612D03F7D49462F6E7A2433261D0225C
:104F68001206290301D55461EDE76D03EBD5946171
:104F7800E9E7ED03E8D5D022BC401206EBE730B5EF
:104F88000368136005790468ED006419A34202D32D
:104F98000220404230BD5C798C4201D00833F0E7F2
:104FA8000020F7E7F8B5040001268D004519AC424A
:104FB80001D10020F8BD2078271DC006C00E00F0E2
:104FC80087F921882078C905C006090FC00EFEF7A9
:104FD80059FE61782078CA09C0064906C90FC00E73
:104FE800FEF766FE61782078C906C006090FC00E74
:104FF800FEF78CFE617820784909C0063140C00E62
:10500800FEF776FEA17820788907C006C90FC00E82
:10501800FEF760FEA1782078C907C006C90FC00E48
:10502800FEF7B2FE3C00C2E70020704783680079B3
:10503800022809D004280BD001280CD1C9180B78F4
:10504800DBB2002013607047C9180B889BB2F8E7E1
:10505800C9180B68F5E716204042F4E70300F0B5DD
:1050680085B05F6801923E790800F100FBF7E8F827
:1050780003AA04000D0081B23800FFF7D7FF00280B
:1050880017D101220399EDB2AA400B00944693432D
:105098007D79019A954201D063460B43BA68022E86
:1050A80009D0042E0CD0012E0ED1A4B2DBB2A41864
:1050B800237005B0F0BDA4B29BB2A4182380F8E712
:1050C800A4B2A4182360F4E716204042F1E710B513
:1050D8000122FFF7C3FF10BD10B50022FFF7BEFF86
:1050E80010BD70B504000D00FFF7F1FF002803D1D3
:1050F80029002000FFF7F0FF70BD030073B55E685C
:10510800080031791400C900FBF79AF801AA0D00CC
:1051180081B23000FFF78AFF002809D1019BEDB268
:10512800EB4001229A43737959424B415340237013
:1051380076BD10B5436810225B689C69200010405A
:10514800144202D11B680B7010BD01204042FBE7DE
:10515800202243685B6898691042FCD11960704747
:1051680043685B681B681805C00F5A0501D50822FB
:1051780010439A0501D502221043DB0501D504230B
:105188001843704730B52025436800205B689C6948
:105198002C4202D1141A002C00DC30BD0C5C01300A
:1051A8001C60F4E730B51025436800205B689C69F3
:1051B8002C4202D1141A002C00DC30BD1C680C549F
:1051C8000130F4E7202243685B68996B0A430721A2
:1051D8009A635A6B8A435A637047202143685A6816
:1051E800936B8B439363704743685B68186C8006C6
:1051F800C00F7047102243685B68996B0A433821D7
:105208009A635A6B8A435A637047102143685A68F5
:10521800936B8B439363704743685B689869000698
:10522800C00F704743685B68186CC006C00F7047B2
:1052380043685A68F823916BDB000B43936370470C
:1052480010B50400FFF7EEFF03000120002B04D186
:105258002000FFF7C9FF431E984110BD0120704789
:1052680003699960DA60704710B502699368002B8A
:1052780001D0D168984710BD030010B50800082276
:105288001969FFF760FD002010BD10B50022032149
:105298001420FDF7F3FE1420FDF7E4FE10BD70B5F1
:1052A800436806000C00056909681868FEF77AFD6E
:1052B800002802D11620404270BDA3796279217975
:1052C8007068FEF723FA0028F4D106CC06C5F3E788
:1052D8000123D022834010B5120693620521936101
:1052E800FEF7D0FC10BD7047002809D00123C26822
:1052F80000205178194202D010784242504118409B
:1053080070477FB50BAB0593002003930A9B0122DE
:105318000293019003000090FDF70EFC07B000BD5A
:10532800EFF3108372B6FEE710B5FFF715FD10BD59
:1053380010B5FFF708FD10BD0020704710B5EFF35A
:10534800108372B6FDF736FEF9E70368426813600A
:105358005A60002303604360704710B50400FFF7EC
:10536800F4FF0222637B934363730023A36010BDA1
:1053780010B5EFF3108472B6FEF7E4FF002C02D1EB
:1053880062B6BFF36F8F10BD70B504000E00EFF367
:10539800108572B62823427B1A420ED18368002BEF
:1053A80001D0FFF7DAFF0422637B002E00D014221D
:1053B800934320006373FEF7C5FF002D02D162B648
:1053C800BFF36F8F70BD10B501211838FFF7DCFFF0
:1053D80010BD10B5002805D1EFF30580002802D1D3
:1053E800FDF78EFE10BD62B6BFF36F8FFAE710B5FA
:1053F800EFF3108072B6FFF7ECFF10BD10B5EFF3B6
:10540800108472B60368002B08D0FFF719FA002041
:10541800002C02D162B6BFF36F8F10BD1620404238
:10542800F6E710B5FFF704FB10BD10B5FFF700FB5A
:1054380010BD0300EFF3108272B6006841181960BE
:10544800002A02D162B6BFF36F8F70470300EFF3F3
:10545800108272B60068411A1960002A02D162B639
:08546800BFF36F8F70470000D5
:0854700064C7FF7F010000008A
:105478000D3400100000000031500010B854001026
:105488006D370010D0540010613400100000000087
:105498001938001000000000F34B00100000000055
:1054A8004D4E0010E85400103D3500100055001016
:1054B800315B0010405700104C570010300000209E
:1054C80000000000FE5500104E5B00105C570010F5
:1054D8008C5700103200002014000020F6550010F0
:1054E800E05A0010D4560010DC5600102C000020A2
:1054F80064010020F0550010175B001000570010E1
:105508000C0000202E00002000000000E8550010CC
:1055180000000000F34C001000000000F34C0010E5
:1055280000000000F34C001000000000F34C0010D5
:1055380000000000F34C001000000000F34C0010C5
:1055480000000000F34C001000000000F34C0010B5
:1055580000000000F34C001000000000F34C0010A5
:1055680000000000F34C001000000000F34C001095
:1055780000000000F34C0010E8540010B53400108F
:1055880000000000F34C001000000000F34C001075
:1055980000000000F34C001000000000F34C001065
:1055A80000000000F34C001000000000F34C001055
:1055B800D05400107152001000000000F34C00108D
:1055C80000000000F34C001000000000F34C001035
:1055D80000000000F34C001000000000F34C001025
:1055E800010000800080FF7F00800080FF7F0100B5
:1055F80000800080FF7F0080008002000400FF7FA1
:10560800F2580010030000000959001003000000C0
:105618000D59001003000000995900100300000004
:10562800315C001003000000245B0010040000003F
:08563800DC5A00100300000021
:10564000A85600104C0100208859001001000000ED
:105650000055001007000000002D3101000000007F
:105660000055001009000000002D3101000000006D
:10567000A92E001000000000000000000000000043
:105680000000000068590010705900100000000070
:105690000000000000000000785900107C59001044
:1056A00080590010845900106D2F00100000000078
:1056B000552F0010C74C001000000000492F0010AB
:1056C000000000008D2F001054010020E90100208F
:1056D00001000000FFFFFF3FBB4E00100B4F00100A
:1056E000794D0010CF4E0010854D0010B14D0010C7
:1056F000DD4D0010594E0010F54D00100000000067
:1057000000000540FF0000010000010000FF0F0045
:10571000FF0F0001000001000001000028570010E9
:10572000B85400100E0000003057001001000000B7
:1057300038570010020000009902000087020000A4
:1057400000C000400400000000C0004003510010F1
:10575000D7500010E1500010EB5000100040034003
:105760000040034074570010B854001016000000A9
:10577000935200107C570010010000008457001065
:105780000200000040020000410201003B510010F5
:105790005951001069510010A75200108152001099
:1057A0008D510010AD510010CD510010E35100108B
:1057B000F1510010FD510010135200102152001041
:1057C0002D520010395200100137001049520010BC
:1057D0006552001069520010F5FFFFFFE25B0010F8
:1057E000F05B0010045C0010135C00101F5C0010E4
:1057F000785400107854001098540010A0540010F1
:10580000B8540010B854001050574D2D62617365A4
:105810006420626C696E6B790A004572726F723A2D
:105820002050574D20646576696365202573206993
:1058300073206E6F742072656164790A0043616C35
:105840006962726174696E6720666F722063686155
:105850006E6E656C2025642E2E2E0A004572726FC6
:10586000723A2050574D2064657669636520646FF5
:105870006573206E6F7420737570706F7274206121
:1058800020706572696F64206174206C6561737447
:1058900020256C750A00446F6E652063616C696237
:1058A000726174696E673B206D6178696D756D2FEB
:1058B0006D696E696D756D20706572696F647320B6
:1058C00025752F256C75206E7365630A004572720D
:1058D0006F722025643A206661696C656420746F7C
:1058E000207365742070756C7365207769647468C3
:1058F0000A0063627072696E74665F7061636B61E7
:10590000676500286E696C29006C6F67006C6F67B3
:105910005F6D676D74000D0A001B5B306D002573B1
:1059200020005B2530386C755D20005B25303275BA
:105930003A253032753A253032752E253033752CA4
:10594000253033755D20002573003C25733E200013
:1059500025732F0025733A2000253032782000204F
:105960002020007C002563001B5B313B33316D0040
:105970001B5B313B33336D006572720077726E00D2
:10598000696E6600646267006C6F675F6261636B7B
:10599000656E645F75617274006C6F675F756172CC
:1059A000740072302F61313A2020307825303878F9
:1059B000202072312F61323A20203078253038781B
:1059C000202072322F61333A202030782530387809
:1059D0000072332F61343A20203078253038782017
:1059E0007231322F69703A20203078253038782093
:1059F0007231342F6C723A2020307825303878009C
:105A000020787073723A202030782530387800463C
:105A100061756C74696E6720696E737472756374F6
:105A2000696F6E206164647265737320287231350A
:105A30002F7063293A20307825303878005265730A
:105A4000657276656420457863657074696F6E2051
:105A5000280053707572696F757320696E74657272
:105A60007275707420284952512000535053454C90
:105A700020696E20746872656164206D6F646520B2
:105A8000646F6573206E6F7420696E6469636174FE
:105A90006520505350002A2A2A2A2A20484152447D
:105AA000204641554C54202A2A2A2A2A0041524392
:105AB000485F4558434550542077697468207265A3
:105AC00061736F6E2025780A002A2A2A2A2A202547
